{"abi":[{"type":"constructor","inputs":[{"name":"_idoContract","type":"address","internalType":"address"}],"stateMutability":"nonpayable"},{"type":"function","name":"MIN_CVS_RATIO","inputs":[],"outputs":[{"name":"","type":"uint256","internalType":"uint256"}],"stateMutability":"view"},{"type":"function","name":"borrowerLoans","inputs":[{"name":"","type":"address","internalType":"address"},{"name":"","type":"uint256","internalType":"uint256"}],"outputs":[{"name":"","type":"uint256","internalType":"uint256"}],"stateMutability":"view"},{"type":"function","name":"calculateInterest","inputs":[{"name":"principal","type":"uint256","internalType":"uint256"},{"name":"rate","type":"uint256","internalType":"uint256"},{"name":"elapsedTime","type":"uint256","internalType":"uint256"},{"name":"duration","type":"uint256","internalType":"uint256"}],"outputs":[{"name":"","type":"uint256","internalType":"uint256"}],"stateMutability":"pure"},{"type":"function","name":"calculateInterestRate","inputs":[{"name":"cvs","type":"uint256","internalType":"uint256"}],"outputs":[{"name":"","type":"uint256","internalType":"uint256"}],"stateMutability":"pure"},{"type":"function","name":"calculateMaxLoanAmount","inputs":[{"name":"vaultAddress","type":"address","internalType":"address"}],"outputs":[{"name":"","type":"uint256","internalType":"uint256"}],"stateMutability":"view"},{"type":"function","name":"createVault","inputs":[{"name":"ipId","type":"bytes32","internalType":"bytes32"}],"outputs":[{"name":"vaultAddress","type":"address","internalType":"address"}],"stateMutability":"nonpayable"},{"type":"function","name":"creatorShareBps","inputs":[],"outputs":[{"name":"","type":"uint256","internalType":"uint256"}],"stateMutability":"view"},{"type":"function","name":"defaultCollateralRatio","inputs":[],"outputs":[{"name":"","type":"uint256","internalType":"uint256"}],"stateMutability":"view"},{"type":"function","name":"deposit","inputs":[{"name":"vaultAddress","type":"address","internalType":"address"}],"outputs":[{"name":"shares","type":"uint256","internalType":"uint256"}],"stateMutability":"payable"},{"type":"function","name":"depositorShares","inputs":[{"name":"","type":"address","internalType":"address"},{"name":"","type":"address","internalType":"address"}],"outputs":[{"name":"","type":"uint256","internalType":"uint256"}],"stateMutability":"view"},{"type":"function","name":"getBorrowerLoans","inputs":[{"name":"borrower","type":"address","internalType":"address"}],"outputs":[{"name":"","type":"uint256[]","internalType":"uint256[]"}],"stateMutability":"view"},{"type":"function","name":"getLoan","inputs":[{"name":"loanId","type":"uint256","internalType":"uint256"}],"outputs":[{"name":"","type":"tuple","internalType":"struct ADLV.Loan","components":[{"name":"loanId","type":"uint256","internalType":"uint256"},{"name":"vaultAddress","type":"address","internalType":"address"},{"name":"borrower","type":"address","internalType":"address"},{"name":"loanAmount","type":"uint256","internalType":"uint256"},{"name":"collateralAmount","type":"uint256","internalType":"uint256"},{"name":"interestRate","type":"uint256","internalType":"uint256"},{"name":"duration","type":"uint256","internalType":"uint256"},{"name":"cvsAtIssuance","type":"uint256","internalType":"uint256"},{"name":"startTime","type":"uint256","internalType":"uint256"},{"name":"endTime","type":"uint256","internalType":"uint256"},{"name":"repaidAmount","type":"uint256","internalType":"uint256"},{"name":"outstandingAmount","type":"uint256","internalType":"uint256"},{"name":"status","type":"uint8","internalType":"enum ADLV.LoanStatus"}]}],"stateMutability":"view"},{"type":"function","name":"getVault","inputs":[{"name":"vaultAddress","type":"address","internalType":"address"}],"outputs":[{"name":"","type":"tuple","internalType":"struct ADLV.Vault","components":[{"name":"vaultAddress","type":"address","internalType":"address"},{"name":"ipId","type":"bytes32","internalType":"bytes32"},{"name":"creator","type":"address","internalType":"address"},{"name":"totalLiquidity","type":"uint256","internalType":"uint256"},{"name":"availableLiquidity","type":"uint256","internalType":"uint256"},{"name":"totalLoansIssued","type":"uint256","internalType":"uint256"},{"name":"activeLoansCount","type":"uint256","internalType":"uint256"},{"name":"totalLicenseRevenue","type":"uint256","internalType":"uint256"},{"name":"totalLoanRepayments","type":"uint256","internalType":"uint256"},{"name":"createdAt","type":"uint256","internalType":"uint256"},{"name":"exists","type":"bool","internalType":"bool"}]}],"stateMutability":"view"},{"type":"function","name":"getVaultLoans","inputs":[{"name":"vaultAddress","type":"address","internalType":"address"}],"outputs":[{"name":"","type":"uint256[]","internalType":"uint256[]"}],"stateMutability":"view"},{"type":"function","name":"idoContract","inputs":[],"outputs":[{"name":"","type":"address","internalType":"contract IDO"}],"stateMutability":"view"},{"type":"function","name":"ipToVault","inputs":[{"name":"","type":"bytes32","internalType":"bytes32"}],"outputs":[{"name":"","type":"address","internalType":"address"}],"stateMutability":"view"},{"type":"function","name":"issueLoan","inputs":[{"name":"vaultAddress","type":"address","internalType":"address"},{"name":"loanAmount","type":"uint256","internalType":"uint256"},{"name":"duration","type":"uint256","internalType":"uint256"},{"name":"targetChainId","type":"uint256","internalType":"uint256"}],"outputs":[{"name":"loanId","type":"uint256","internalType":"uint256"}],"stateMutability":"payable"},{"type":"function","name":"liquidateLoan","inputs":[{"name":"loanId","type":"uint256","internalType":"uint256"}],"outputs":[],"stateMutability":"nonpayable"},{"type":"function","name":"loanCounter","inputs":[],"outputs":[{"name":"","type":"uint256","internalType":"uint256"}],"stateMutability":"view"},{"type":"function","name":"loans","inputs":[{"name":"","type":"uint256","internalType":"uint256"}],"outputs":[{"name":"loanId","type":"uint256","internalType":"uint256"},{"name":"vaultAddress","type":"address","internalType":"address"},{"name":"borrower","type":"address","internalType":"address"},{"name":"loanAmount","type":"uint256","internalType":"uint256"},{"name":"collateralAmount","type":"uint256","internalType":"uint256"},{"name":"interestRate","type":"uint256","internalType":"uint256"},{"name":"duration","type":"uint256","internalType":"uint256"},{"name":"cvsAtIssuance","type":"uint256","internalType":"uint256"},{"name":"startTime","type":"uint256","internalType":"uint256"},{"name":"endTime","type":"uint256","internalType":"uint256"},{"name":"repaidAmount","type":"uint256","internalType":"uint256"},{"name":"outstandingAmount","type":"uint256","internalType":"uint256"},{"name":"status","type":"uint8","internalType":"enum ADLV.LoanStatus"}],"stateMutability":"view"},{"type":"function","name":"owner","inputs":[],"outputs":[{"name":"","type":"address","internalType":"address"}],"stateMutability":"view"},{"type":"function","name":"protocolFeeBps","inputs":[],"outputs":[{"name":"","type":"uint256","internalType":"uint256"}],"stateMutability":"view"},{"type":"function","name":"repayLoan","inputs":[{"name":"loanId","type":"uint256","internalType":"uint256"}],"outputs":[],"stateMutability":"payable"},{"type":"function","name":"sellLicense","inputs":[{"name":"vaultAddress","type":"address","internalType":"address"},{"name":"licenseType","type":"string","internalType":"string"},{"name":"","type":"uint256","internalType":"uint256"}],"outputs":[],"stateMutability":"payable"},{"type":"function","name":"setIDOContract","inputs":[{"name":"_idoContract","type":"address","internalType":"address"}],"outputs":[],"stateMutability":"nonpayable"},{"type":"function","name":"setProtocolFee","inputs":[{"name":"_protocolFeeBps","type":"uint256","internalType":"uint256"}],"outputs":[],"stateMutability":"nonpayable"},{"type":"function","name":"totalShares","inputs":[{"name":"","type":"address","internalType":"address"}],"outputs":[{"name":"","type":"uint256","internalType":"uint256"}],"stateMutability":"view"},{"type":"function","name":"updateIPCVS","inputs":[{"name":"ipId","type":"bytes32","internalType":"bytes32"},{"name":"newCVS","type":"uint256","internalType":"uint256"}],"outputs":[],"stateMutability":"nonpayable"},{"type":"function","name":"vaultCounter","inputs":[],"outputs":[{"name":"","type":"uint256","internalType":"uint256"}],"stateMutability":"view"},{"type":"function","name":"vaultLoans","inputs":[{"name":"","type":"address","internalType":"address"},{"name":"","type":"uint256","internalType":"uint256"}],"outputs":[{"name":"","type":"uint256","internalType":"uint256"}],"stateMutability":"view"},{"type":"function","name":"vaultShareBps","inputs":[],"outputs":[{"name":"","type":"uint256","internalType":"uint256"}],"stateMutability":"view"},{"type":"function","name":"vaults","inputs":[{"name":"","type":"address","internalType":"address"}],"outputs":[{"name":"vaultAddress","type":"address","internalType":"address"},{"name":"ipId","type":"bytes32","internalType":"bytes32"},{"name":"creator","type":"address","internalType":"address"},{"name":"totalLiquidity","type":"uint256","internalType":"uint256"},{"name":"availableLiquidity","type":"uint256","internalType":"uint256"},{"name":"totalLoansIssued","type":"uint256","internalType":"uint256"},{"name":"activeLoansCount","type":"uint256","internalType":"uint256"},{"name":"totalLicenseRevenue","type":"uint256","internalType":"uint256"},{"name":"totalLoanRepayments","type":"uint256","internalType":"uint256"},{"name":"createdAt","type":"uint256","internalType":"uint256"},{"name":"exists","type":"bool","internalType":"bool"}],"stateMutability":"view"},{"type":"function","name":"withdraw","inputs":[{"name":"vaultAddress","type":"address","internalType":"address"},{"name":"shares","type":"uint256","internalType":"uint256"}],"outputs":[],"stateMutability":"nonpayable"},{"type":"event","name":"CVSUpdated","inputs":[{"name":"vaultAddress","type":"address","indexed":true,"internalType":"address"},{"name":"oldCVS","type":"uint256","indexed":false,"internalType":"uint256"},{"name":"newCVS","type":"uint256","indexed":false,"internalType":"uint256"}],"anonymous":false},{"type":"event","name":"Deposited","inputs":[{"name":"vaultAddress","type":"address","indexed":true,"internalType":"address"},{"name":"depositor","type":"address","indexed":true,"internalType":"address"},{"name":"amount","type":"uint256","indexed":false,"internalType":"uint256"},{"name":"shares","type":"uint256","indexed":false,"internalType":"uint256"}],"anonymous":false},{"type":"event","name":"LicenseSold","inputs":[{"name":"vaultAddress","type":"address","indexed":true,"internalType":"address"},{"name":"ipId","type":"bytes32","indexed":true,"internalType":"bytes32"},{"name":"licensee","type":"address","indexed":true,"internalType":"address"},{"name":"price","type":"uint256","indexed":false,"internalType":"uint256"},{"name":"licenseType","type":"string","indexed":false,"internalType":"string"}],"anonymous":false},{"type":"event","name":"LoanDefaulted","inputs":[{"name":"vaultAddress","type":"address","indexed":true,"internalType":"address"},{"name":"borrower","type":"address","indexed":true,"internalType":"address"},{"name":"loanId","type":"uint256","indexed":true,"internalType":"uint256"}],"anonymous":false},{"type":"event","name":"LoanIssued","inputs":[{"name":"vaultAddress","type":"address","indexed":true,"internalType":"address"},{"name":"borrower","type":"address","indexed":true,"internalType":"address"},{"name":"loanId","type":"uint256","indexed":true,"internalType":"uint256"},{"name":"amount","type":"uint256","indexed":false,"internalType":"uint256"},{"name":"collateral","type":"uint256","indexed":false,"internalType":"uint256"},{"name":"interestRate","type":"uint256","indexed":false,"internalType":"uint256"},{"name":"duration","type":"uint256","indexed":false,"internalType":"uint256"},{"name":"targetChainId","type":"uint256","indexed":false,"internalType":"uint256"}],"anonymous":false},{"type":"event","name":"LoanLiquidated","inputs":[{"name":"vaultAddress","type":"address","indexed":true,"internalType":"address"},{"name":"borrower","type":"address","indexed":true,"internalType":"address"},{"name":"loanId","type":"uint256","indexed":true,"internalType":"uint256"}],"anonymous":false},{"type":"event","name":"LoanRepaid","inputs":[{"name":"vaultAddress","type":"address","indexed":true,"internalType":"address"},{"name":"borrower","type":"address","indexed":true,"internalType":"address"},{"name":"loanId","type":"uint256","indexed":true,"internalType":"uint256"},{"name":"amount","type":"uint256","indexed":false,"internalType":"uint256"}],"anonymous":false},{"type":"event","name":"VaultCreated","inputs":[{"name":"vaultAddress","type":"address","indexed":true,"internalType":"address"},{"name":"ipId","type":"bytes32","indexed":true,"internalType":"bytes32"},{"name":"creator","type":"address","indexed":true,"internalType":"address"},{"name":"initialCVS","type":"uint256","indexed":false,"internalType":"uint256"}],"anonymous":false},{"type":"event","name":"Withdrawn","inputs":[{"name":"vaultAddress","type":"address","indexed":true,"internalType":"address"},{"name":"withdrawer","type":"address","indexed":true,"internalType":"address"},{"name":"amount","type":"uint256","indexed":false,"internalType":"uint256"},{"name":"shares","type":"uint256","indexed":false,"internalType":"uint256"}],"anonymous":false}],"bytecode":{"object":"0x6080346100e357601f61246338819003918201601f19168301916001600160401b038311848410176100e7578084926020946040528339810103126100e357516001600160a01b038116908190036100e3576101f4600255611b586003556109c4600455613a98600555801561009e575f80546001600160a01b0319908116929092179055600180549091163317905560405161236790816100fc8239f35b60405162461bcd60e51b815260206004820152601960248201527f41444c563a20496e76616c69642049444f2061646472657373000000000000006044820152606490fd5b5f80fd5b634e487b7160e01b5f52604160045260245ffdfe6080806040526004361015610012575f80fd5b5f905f3560e01c9081630eb9af3814611dbd57508063116f71ac14611d985780631518405e14611d5257806317799f3614611a675780631cfe28dd14611a4a57806334d9289e14611a2d57806335659fb814611a105780634f7d26941461199e578063504006ca146117b85780635ffd9b52146114f65780637068716614611434578063724dfc921461140c578063787dce3d146113535780638da5cb5b1461132c57806390d3b379146113055780639403b07c146112a657806398a5185514611273578063a622ee7c146111b4578063ab7b1c8914610f91578063ac95804114610f73578063acbd44ad14610ac8578063b1a25c9414610aaa578063bf6b874e14610a72578063c7477223146109ca578063ccdd9f5d146106e1578063e1ec3c6814610612578063e3ed1902146105bb578063eee8b7ff14610539578063f2f85c061461051b578063f340fa01146103fd578063f3fef3a31461024d578063f77e69ce146102315763ff2c682c14610189575f80fd5b3461022e57602060031936011261022e576001600160a01b036101aa611f34565b6101b98260015416331461217a565b1680156101ea577fffffffffffffffffffffffff000000000000000000000000000000000000000082541617815580f35b606460405162461bcd60e51b815260206004820152601560248201527f41444c563a20496e76616c6964206164647265737300000000000000000000006044820152fd5b80fd5b503461022e578060031936011261022e57602060405160028152f35b503461022e57604060031936011261022e57610267611f34565b6001600160a01b036024359116808352600860205261028f60ff600a604086200154166120b5565b808352600d602052604083206001600160a01b0333165f526020528160405f2054106103b957808352600860205260408320916003830160046102e96102d6835485612137565b858852600e602052604088205490612100565b9401906102f985835410156122ae565b838652600d602052604086206001600160a01b0333165f5260205260405f206103238482546121c5565b9055838652600e6020526040862061033c8482546121c5565b90556103498582546121c5565b90556103568482546121c5565b905583808480156103af575b8280929181923390f1156103a45760405192835260208301527f91fb9d98b786c57d74c099ccd2beca1739e9f6a81fb49001ca465c4b7591bbe260403393a380f35b6040513d85823e3d90fd5b6108fc9150610362565b606460405162461bcd60e51b815260206004820152601960248201527f41444c563a20496e73756666696369656e7420736861726573000000000000006044820152fd5b50602060031936011261022e576020906001600160a01b0361041d611f34565b168082526008835261043860ff600a604085200154166120b5565b610443341515612256565b8082526008835260046040832060038101805480155f146104f65750604034955b858152600d88528181206001600160a01b0333165f528852815f2061048a8882546122a1565b9055858152600e88522061049f8682546122a1565b90556104ac3482546122a1565b9055016104ba3482546122a1565b90556040519034825282848301527ff5681f9d0db1b911ac18ee83d515a1cf1051853a9eae418316a2fdf7dea427c560403393a3604051908152f35b610515604091868852600e89526105108389205434612137565b612100565b95610464565b503461022e578060031936011261022e576020600454604051908152f35b503461022e57602060031936011261022e576001600160a01b0361055b611f34565b168152600b60205260408120604051918260208354918281520192825260208220915b8181106105a5576105a18561059581870382612039565b60405191829182611f8c565b0390f35b825484526020909301926001928301920161057e565b503461022e57604060031936011261022e576105d5611f34565b6001600160a01b03168152600b602052604081208054602435929083101561022e5760206106038484611f4a565b90549060031b1c604051908152f35b503461022e57602060031936011261022e5760406101a09160043581526009602052206106df8154916001600160a01b03600182015416906001600160a01b036002820154166003820154600483015460058401546006850154600786015491600887015493600988015495600a8901549760ff600c600b8c01549b0154169a60206040519e8f908152015260408d015260608c015260808b015260a08a015260c089015260e0880152610100870152610120860152610140850152610160840152610180830190611fc5565bf35b503461022e57602060031936011261022e57600435808252600960205260408220600c810160ff815416600581101561099d576001610720911461220b565b600982015442119081156109595760018301916001600160a01b0383541686526008602052600160408720015460206001600160a01b03885416916024604051809481937f4d32d69100000000000000000000000000000000000000000000000000000000835260048301525afa90811561094e578791610918575b506003850154908160011b91808304600214901517156108eb57109081156108e3575b501561089f5760047fffffffffffffffffffffffffffffffffffffffffffffffffffffffffffffff008254161790556001600160a01b0381541684526008602052600660408520018054905f1982019182116108725755838080806004860154818115610869575b3390f1156103a45760026001600160a01b038092541692015416907fd4bfdcd3d7029abe0d70d4a6f1f560c5eac8d3cd6ecef801c6d3d67a49be60688480a480f35b506108fc610827565b6024867f4e487b710000000000000000000000000000000000000000000000000000000081526011600452fd5b606460405162461bcd60e51b815260206004820152601b60248201527f41444c563a204c6f616e206e6f74206c6971756964617461626c6500000000006044820152fd5b90505f6107bf565b6024887f4e487b710000000000000000000000000000000000000000000000000000000081526011600452fd5b90506020813d602011610946575b8161093360209383612039565b8101031261094257515f61079c565b5f80fd5b3d9150610926565b6040513d89823e3d90fd5b606460405162461bcd60e51b815260206004820152601660248201527f41444c563a204c6f616e206e6f742065787069726564000000000000000000006044820152fd5b6024857f4e487b710000000000000000000000000000000000000000000000000000000081526021600452fd5b503461022e57604060031936011261022e576109f26001600160a01b0360015416331461217a565b806001600160a01b03815416803b15610a6f578180916044604051809481937f86b58b73000000000000000000000000000000000000000000000000000000008352600435600484015260243560248401525af18015610a6457610a535750f35b81610a5d91612039565b61022e5780f35b6040513d84823e3d90fd5b50fd5b503461022e57602060031936011261022e5760406020916001600160a01b03610a99611f34565b168152600e83522054604051908152f35b503461022e578060031936011261022e576020600354604051908152f35b50608060031936011261022e57610add611f34565b90602435916001600160a01b036044359116908183526008602052610b0b60ff600a604086200154166120b5565b81835260086020526040832060018101549360206001600160a01b03825416956024604051809881937f4d32d69100000000000000000000000000000000000000000000000000000000835260048301525afa948515610f66578195610f32575b508560011b861590878104600214821715610f05578610610ec15760048301610b9888825410156122ae565b610ba1876121d2565b93612710610bb16005548b612137565b043410610e7d576006548098610bc68261207a565b6006558a86610bd58a426122a1565b60405193610be28561201c565b85855260208501908d82528c8c604088013381526060890188815260808a019134835260a08b0193845260c08b0194855260e08b019586526101008b01964288526101208c019889526101408c0199808b526101608d019b8c526101808d019d60018f5281526009602052604090209b518c55516001600160a01b031660018c01906001600160a01b031681547fffffffffffffffffffffffff000000000000000000000000000000000000000016179055516001600160a01b031660028b01906001600160a01b031681547fffffffffffffffffffffffff0000000000000000000000000000000000000000161790555160038a015551600489015551600588015551600687015551600786015551600885015551600984015551600a83015551600b820155600c0190516005811015610e5057906006929160ff7fffffffffffffffffffffffffffffffffffffffffffffffffffffffffffffff008354169116179055878552600a602052610d5c89604087206122f9565b338552600b602052610d7189604087206122f9565b60058101610d808b82546122a1565b90550180549060018201809211610e2357908493929155610da28982546121c5565b9055878291610e19575b8280929181923390f115610e0d57509160209491849360405193845234878501526040840152606083015260643560808301527fa6efe75e779d75c642d0ca7479a20b0ff0054df737eea7ccb5db7dc87832cce260a03393a4604051908152f35b604051903d90823e3d90fd5b6108fc9150610dac565b6024857f4e487b710000000000000000000000000000000000000000000000000000000081526011600452fd5b6024867f4e487b710000000000000000000000000000000000000000000000000000000081526021600452fd5b606460405162461bcd60e51b815260206004820152601d60248201527f41444c563a20496e73756666696369656e7420636f6c6c61746572616c0000006044820152fd5b606460405162461bcd60e51b815260206004820152601660248201527f41444c563a20496e73756666696369656e7420435653000000000000000000006044820152fd5b6024837f4e487b710000000000000000000000000000000000000000000000000000000081526011600452fd5b9094506020813d602011610f5e575b81610f4e60209383612039565b810103126109425751935f610b6c565b3d9150610f41565b50604051903d90823e3d90fd5b503461022e578060031936011261022e576020600754604051908152f35b50602060031936011261022e57600435808252600960205260408220600c810160ff815416600581101561099d576001610fcb911461220b565b60028201916001600160a01b03835416330361117057610fec341515612256565b61101c6003820154611016600584015461100a6008860154426121c5565b6006860154918461214a565b906122a1565b600a8201805461102c81846121c5565b341061114b57505584600b82015560027fffffffffffffffffffffffffffffffffffffffffffffffffffffffffffffff00835416178255848080806001600160a01b03875416600486015490828215611142575bf115611137576001905b01906001600160a01b038254168552600860205260ff6040862091600883016110b43482546122a1565b9055600483016110c53482546122a1565b905554166005811015610e5057600214611118575b506001600160a01b0380915416915416907fa6f6d5e50bc84f153a0d6a9f9b37780433f92dc32d7e10f975ab3831c36898fa6020604051348152a480f35b6006018054905f19820191821161087257556001600160a01b036110da565b6040513d86823e3d90fd5b506108fc611080565b906001939261115e6111669334906122a1565b8092556121c5565b600b82015561108a565b606460405162461bcd60e51b815260206004820152601260248201527f41444c563a204e6f7420626f72726f77657200000000000000000000000000006044820152fd5b503461022e57602060031936011261022e576040610160916001600160a01b036111dc611f34565b1681526008602052206001600160a01b03815416906001810154906001600160a01b0360028201541660038201546004830154600584015460068501549160078601549360088701549560ff600a60098a015499015416986040519a8b5260208b015260408a01526060890152608088015260a087015260c086015260e08501526101008401526101208301521515610140820152f35b503461022e57602060031936011261022e576001600160a01b0360406020926004358152600c8452205416604051908152f35b503461022e57604060031936011261022e576112c0611f34565b90602435916001600160a01b0383168303611301576001600160a01b039182604092168152600d6020522091165f52602052602060405f2054604051908152f35b5080fd5b503461022e57602060031936011261022e5760206113246004356121d2565b604051908152f35b503461022e578060031936011261022e5760206001600160a01b0360015416604051908152f35b503461022e57602060031936011261022e5760043561137e6001600160a01b0360015416331461217a565b6103e881116113c857806002558061271003906127108211610f0557604682029082820460461490612710141715610f05579060646113c2920490816003556121c5565b60045580f35b606460405162461bcd60e51b815260206004820152601260248201527f41444c563a2046656520746f6f206869676800000000000000000000000000006044820152fd5b503461022e57608060031936011261022e57602061132460643560443560243560043561214a565b503461022e57602060031936011261022e576001600160a01b03611456611f34565b168152600860205260016040822001549060206001600160a01b03825416926024604051809581937f4d32d69100000000000000000000000000000000000000000000000000000000835260048301525afa908115610e0d57906114c3575b6020906040519060011c8152f35b506020813d6020116114ee575b816114dd60209383612039565b8101031261094257602090516114b5565b3d91506114d0565b5060606003193601126109425761150b611f34565b60243567ffffffffffffffff811161094257366023820112156109425780600401359167ffffffffffffffff8311610942573660248484010111610942576001600160a01b0316805f52600860205261156d60ff600a60405f200154166120b5565b3415611774575f8181526008602052604090206001810154600254909391906127109061159a9034612137565b04906127106115ab60035434612137565b04916115c0836115bb83346121c5565b6121c5565b6001600160a01b035f5416803b15610942575f80916044604051809481937f12149e420000000000000000000000000000000000000000000000000000000083528d60048401528760248401525af180156117695761174e575b5082918994939160078693016116318282546122a1565b9055600384016116428282546122a1565b9055611653600485019182546122a1565b9055801590811561171d575b50505081159081156116ea575b505050507fb95b9670f342744ee734fb423b9c01db040b4a0aad1b1a3c2704d8a42478d3f990846024604051923484526040602085015282604085015201606083013785606086830101526060817fffffffffffffffffffffffffffffffffffffffffffffffffffffffffffffffe0601f339801168101030190a480f35b839283926001600160a01b0360028594015416908390611714575bf11561113757845f808061166c565b506108fc611705565b8280929181926001600160a01b0360015416908390611745575bf115610a6457825f8061165f565b506108fc611737565b61175e9194939299505f90612039565b5f979091925f61161a565b6040513d5f823e3d90fd5b606460405162461bcd60e51b815260206004820152601360248201527f41444c563a20496e76616c6964207072696365000000000000000000000000006044820152fd5b34610942576020600319360112610942575f6101806040516117d98161201c565b8281528260208201528260408201528260608201528260808201528260a08201528260c08201528260e08201528261010082015282610120820152826101408201528261016082015201526004355f52600960205260405f206040519061183f8261201c565b80548252816001600160a01b0360018301541691602082019283526001600160a01b0360028201541660408301908152600382015460608401908152600483015460808501908152600584015460a0860190815260068501549060c0870191825260078601549260e0880193845260088701549461010089019586526009880154966101208a0197885260ff600c600a8b01549a6101408d019b8c52610160600b8201549d019c8d520154169a6101808d019b6005811015611971578c526040519c518d52516001600160a01b031660208d0152516001600160a01b031660408c01525160608b01525160808a01525160a08901525160c08801525160e08701525161010086015251610120850152516101408401525161016083015251610180820161196b91611fc5565b6101a090f35b7f4e487b71000000000000000000000000000000000000000000000000000000005f52602160045260245ffd5b34610942576020600319360112610942576001600160a01b036119bf611f34565b165f52600a60205260405f206040519081602082549182815201915f5260205f20905f5b8181106119fa576105a18561059581870382612039565b82548452602090930192600192830192016119e3565b34610942575f600319360112610942576020600254604051908152f35b34610942575f600319360112610942576020600654604051908152f35b34610942575f600319360112610942576020600554604051908152f35b3461094257602060031936011261094257600435805f52600c6020526001600160a01b0360405f205416611d0e5760249060206001600160a01b035f5416604051938480927f4d32d6910000000000000000000000000000000000000000000000000000000082528560048301525afa8015611769575f90611cdb575b6020925060075491611b2f6001600160a01b03604051868101904282523360601b604082015284605482015286607482015260748152611b25609482612039565b519020169361207a565b6007556001600a604051611b4281611fd2565b8581528587820185815260408301338152606084015f8152608085015f815260a08601905f825260c08701925f84526001600160a01b0360e08901955f87526101008a01975f89526101208b0199428b526101408c019d8e525f52602060089052828060405f209c5116167fffffffffffffffffffffffff00000000000000000000000000000000000000008c5416178b555160018b015551166001600160a01b0360028a0191167fffffffffffffffffffffffff0000000000000000000000000000000000000000825416179055516003880155516004870155516005860155516006850155516007840155516008830155516009820155019051151560ff7fffffffffffffffffffffffffffffffffffffffffffffffffffffffffffffff008354169116179055805f52600c845260405f206001600160a01b0384167fffffffffffffffffffffffff0000000000000000000000000000000000000000825416179055604051918252827fb1df0c72509178f65ecefcf11e5c46f18b71416215d3199b946f98f318a85f2f853394a4604051908152f35b506020823d602011611d06575b81611cf560209383612039565b810103126109425760209151611ae4565b3d9150611ce8565b606460405162461bcd60e51b815260206004820152601a60248201527f41444c563a205661756c7420616c7265616479206578697374730000000000006044820152fd5b3461094257604060031936011261094257611d6b611f34565b6001600160a01b0360243591165f52600a60205260405f2080548210156109425760209161060391611f4a565b34610942575f6003193601126109425760206001600160a01b035f5416604051908152f35b34610942576020600319360112610942576001600160a01b03905f610140611de3611f34565b92611ded81611fd2565b8281528260208201528260408201528260608201528260808201528260a08201528260c08201528260e082015282610100820152826101208201520152165f52600860205261016060405f20604051611e4581611fd2565b80806001600160a01b03845416938482526001810154602083019081526001600160a01b0360028301541660408401908152600383015460608501908152600484015490608086019182526001600160a01b0360058601549360a0880194855260068701549560c0890196875261014060ff600a60078b01549a60e08d019b8c5261010060088201549d019c8d5261012060098201549e019d8e520154169b019a15158b526040519b8c525160208c0152511660408a01525160608901525160808801525160a08701525160c08601525160e08501525161010084015251610120830152511515610140820152f35b600435906001600160a01b038216820361094257565b8054821015611f5f575f5260205f2001905f90565b7f4e487b71000000000000000000000000000000000000000000000000000000005f52603260045260245ffd5b60206040818301928281528451809452019201905f5b818110611faf5750505090565b8251845260209384019390920191600101611fa2565b9060058210156119715752565b610160810190811067ffffffffffffffff821117611fef57604052565b7f4e487b71000000000000000000000000000000000000000000000000000000005f52604160045260245ffd5b6101a0810190811067ffffffffffffffff821117611fef57604052565b90601f7fffffffffffffffffffffffffffffffffffffffffffffffffffffffffffffffe0910116810190811067ffffffffffffffff821117611fef57604052565b5f1981146120885760010190565b7f4e487b71000000000000000000000000000000000000000000000000000000005f52601160045260245ffd5b156120bc57565b606460405162461bcd60e51b815260206004820152601a60248201527f41444c563a205661756c7420646f6573206e6f742065786973740000000000006044820152fd5b811561210a570490565b7f4e487b71000000000000000000000000000000000000000000000000000000005f52601260045260245ffd5b8181029291811591840414171561208857565b61215d929161215891612137565b612137565b908061271002906127108204036120885761217791612100565b90565b1561218157565b606460405162461bcd60e51b815260206004820152601060248201527f41444c563a204f6e6c79206f776e6572000000000000000000000000000000006044820152fd5b9190820391821161208857565b60649004806107d0115f14612202576107d0036107d08111612088575b6101f481106121fb5790565b506101f490565b506101f46121ef565b1561221257565b606460405162461bcd60e51b815260206004820152601560248201527f41444c563a204c6f616e206e6f742061637469766500000000000000000000006044820152fd5b1561225d57565b606460405162461bcd60e51b815260206004820152601460248201527f41444c563a20496e76616c696420616d6f756e740000000000000000000000006044820152fd5b9190820180921161208857565b156122b557565b606460405162461bcd60e51b815260206004820152601c60248201527f41444c563a20496e73756666696369656e74206c6971756964697479000000006044820152fd5b805468010000000000000000811015611fef5761231b91600182018155611f4a565b5f19829392549160031b92831b921b191617905556fea2646970667358221220270f00798f08dc3512fa5b25b3a698f67a09bc881b0342fa29ac38c83e2c4be464736f6c634300081e0033","linkReferences":{}},"methodIdentifiers":{"MIN_CVS_RATIO()":"f77e69ce","borrowerLoans(address,uint256)":"e3ed1902","calculateInterest(uint256,uint256,uint256,uint256)":"724dfc92","calculateInterestRate(uint256)":"90d3b379","calculateMaxLoanAmount(address)":"70687166","createVault(bytes32)":"17799f36","creatorShareBps()":"b1a25c94","defaultCollateralRatio()":"1cfe28dd","deposit(address)":"f340fa01","depositorShares(address,address)":"9403b07c","getBorrowerLoans(address)":"eee8b7ff","getLoan(uint256)":"504006ca","getVault(address)":"0eb9af38","getVaultLoans(address)":"4f7d2694","idoContract()":"116f71ac","ipToVault(bytes32)":"98a51855","issueLoan(address,uint256,uint256,uint256)":"acbd44ad","liquidateLoan(uint256)":"ccdd9f5d","loanCounter()":"34d9289e","loans(uint256)":"e1ec3c68","owner()":"8da5cb5b","protocolFeeBps()":"35659fb8","repayLoan(uint256)":"ab7b1c89","sellLicense(address,string,uint256)":"5ffd9b52","setIDOContract(address)":"ff2c682c","setProtocolFee(uint256)":"787dce3d","totalShares(address)":"bf6b874e","updateIPCVS(bytes32,uint256)":"c7477223","vaultCounter()":"ac958041","vaultLoans(address,uint256)":"1518405e","vaultShareBps()":"f2f85c06","vaults(address)":"a622ee7c","withdraw(address,uint256)":"f3fef3a3"},"id":49}