{"abi":[{"type":"constructor","inputs":[{"name":"initialOwner","type":"address","internalType":"address"}],"stateMutability":"nonpayable"},{"type":"function","name":"cvsOracle","inputs":[],"outputs":[{"name":"","type":"address","internalType":"contract ICVSOracle"}],"stateMutability":"view"},{"type":"function","name":"getCVS","inputs":[{"name":"ipId","type":"bytes32","internalType":"bytes32"}],"outputs":[{"name":"","type":"uint256","internalType":"uint256"}],"stateMutability":"view"},{"type":"function","name":"getCVSWithMetadata","inputs":[{"name":"ipId","type":"bytes32","internalType":"bytes32"}],"outputs":[{"name":"cvs","type":"uint256","internalType":"uint256"},{"name":"lastUpdated","type":"uint256","internalType":"uint256"},{"name":"confidence","type":"uint256","internalType":"uint256"}],"stateMutability":"view"},{"type":"function","name":"getTotalRevenue","inputs":[{"name":"ipId","type":"bytes32","internalType":"bytes32"}],"outputs":[{"name":"","type":"uint256","internalType":"uint256"}],"stateMutability":"view"},{"type":"function","name":"ipAssetCVS","inputs":[{"name":"","type":"bytes32","internalType":"bytes32"}],"outputs":[{"name":"","type":"uint256","internalType":"uint256"}],"stateMutability":"view"},{"type":"function","name":"owner","inputs":[],"outputs":[{"name":"","type":"address","internalType":"address"}],"stateMutability":"view"},{"type":"function","name":"recordRevenue","inputs":[{"name":"ipId","type":"bytes32","internalType":"bytes32"},{"name":"amount","type":"uint256","internalType":"uint256"}],"outputs":[],"stateMutability":"nonpayable"},{"type":"function","name":"renounceOwnership","inputs":[],"outputs":[],"stateMutability":"nonpayable"},{"type":"function","name":"setCVSOracle","inputs":[{"name":"_cvsOracle","type":"address","internalType":"address"}],"outputs":[],"stateMutability":"nonpayable"},{"type":"function","name":"setUseOracle","inputs":[{"name":"_useOracle","type":"bool","internalType":"bool"}],"outputs":[],"stateMutability":"nonpayable"},{"type":"function","name":"totalLicenseRevenue","inputs":[{"name":"","type":"bytes32","internalType":"bytes32"}],"outputs":[{"name":"","type":"uint256","internalType":"uint256"}],"stateMutability":"view"},{"type":"function","name":"transferOwnership","inputs":[{"name":"newOwner","type":"address","internalType":"address"}],"outputs":[],"stateMutability":"nonpayable"},{"type":"function","name":"updateCVS","inputs":[{"name":"ipId","type":"bytes32","internalType":"bytes32"},{"name":"newCVS","type":"uint256","internalType":"uint256"}],"outputs":[],"stateMutability":"nonpayable"},{"type":"function","name":"useOracle","inputs":[],"outputs":[{"name":"","type":"bool","internalType":"bool"}],"stateMutability":"view"},{"type":"event","name":"CVSOracleUpdated","inputs":[{"name":"newOracle","type":"address","indexed":true,"internalType":"address"}],"anonymous":false},{"type":"event","name":"CVSUpdated","inputs":[{"name":"ipId","type":"bytes32","indexed":true,"internalType":"bytes32"},{"name":"newCVS","type":"uint256","indexed":false,"internalType":"uint256"},{"name":"oldCVS","type":"uint256","indexed":false,"internalType":"uint256"}],"anonymous":false},{"type":"event","name":"OracleUsageToggled","inputs":[{"name":"useOracle","type":"bool","indexed":false,"internalType":"bool"}],"anonymous":false},{"type":"event","name":"OwnershipTransferred","inputs":[{"name":"previousOwner","type":"address","indexed":true,"internalType":"address"},{"name":"newOwner","type":"address","indexed":true,"internalType":"address"}],"anonymous":false},{"type":"event","name":"RevenueCollected","inputs":[{"name":"ipId","type":"bytes32","indexed":true,"internalType":"bytes32"},{"name":"amount","type":"uint256","indexed":false,"internalType":"uint256"}],"anonymous":false},{"type":"error","name":"OwnableInvalidOwner","inputs":[{"name":"owner","type":"address","internalType":"address"}]},{"type":"error","name":"OwnableUnauthorizedAccount","inputs":[{"name":"account","type":"address","internalType":"address"}]}],"bytecode":{"object":"0x60803460c557601f61090738819003918201601f19168301916001600160401b0383118484101760c95780849260209460405283398101031260c557516001600160a01b0381169081900360c557801560b2575f80546001600160a01b031981168317825560405192916001600160a01b03909116907f8be0079c531659141344cd1fd0a4f28419497f9722a3daafe3b4186f6b6457e09080a36003805460ff60a01b1916905561082990816100de8239f35b631e4fbdf760e01b5f525f60045260245ffd5b5f80fd5b634e487b7160e01b5f52604160045260245ffdfe6080806040526004361015610012575f80fd5b5f3560e01c908163080a33c1146105135750806312149e421461048857806344878724146104635780634d32d6911461043d57806356d9af1f146104135780636804f6131461037b578063715018a6146102ff5780637caa3758146102ce57806386b58b73146102715780638da5cb5b1461023f578063afda415f1461018b578063ba503c7b146101b5578063d7614b021461018b5763f2fde38b146100b6575f80fd5b346101875760206003193601126101875760043573ffffffffffffffffffffffffffffffffffffffff8116809103610187576100f06107a7565b801561015b5773ffffffffffffffffffffffffffffffffffffffff5f54827fffffffffffffffffffffffff00000000000000000000000000000000000000008216175f55167f8be0079c531659141344cd1fd0a4f28419497f9722a3daafe3b4186f6b6457e05f80a3005b7f1e4fbdf7000000000000000000000000000000000000000000000000000000005f525f60045260245ffd5b5f80fd5b34610187576020600319360112610187576004355f526002602052602060405f2054604051908152f35b346101875760206003193601126101875760043573ffffffffffffffffffffffffffffffffffffffff8116809103610187576101ef6107a7565b807fffffffffffffffffffffffff000000000000000000000000000000000000000060035416176003557fa3162d28585da43d3023644ba81316ea9f4f116d5d34c00e42713bd598c6c7ff5f80a2005b34610187575f60031936011261018757602073ffffffffffffffffffffffffffffffffffffffff5f5416604051908152f35b346101875760407f0e7b7490cd4d8f8719b8ad695658024a7b1d1ed7707d37840be9940c1ba5cd756102a236610543565b6102ad9391936107a7565b5f8481526001602090815290839020805490839055835192835290820152a2005b346101875760206003193601126101875760606102ec6004356106a7565b9060405192835260208301526040820152f35b34610187575f600319360112610187576103176107a7565b5f73ffffffffffffffffffffffffffffffffffffffff81547fffffffffffffffffffffffff000000000000000000000000000000000000000081168355167f8be0079c531659141344cd1fd0a4f28419497f9722a3daafe3b4186f6b6457e08280a3005b34610187576020600319360112610187576004358015158091036101875760207f96ba85a69dbf47588c2f934cac30b06a0a0b422eefe13281f4b2ea57fbed976b916103c56107a7565b6003547fffffffffffffffffffffff00ffffffffffffffffffffffffffffffffffffffff74ff00000000000000000000000000000000000000008360a01b16911617600355604051908152a1005b34610187576020600319360112610187576004355f526001602052602060405f2054604051908152f35b3461018757602060031936011261018757602061045b6004356105c7565b604051908152f35b34610187575f60031936011261018757602060ff60035460a01c166040519015158152f35b346101875761049636610543565b61049e6107a7565b815f52600260205260405f208054918083018093116104e6577f98f448e7f283d230d866add7dbaed15cfec1a6750fd88683ee4af351a01d7dbd9260209255604051908152a2005b7f4e487b71000000000000000000000000000000000000000000000000000000005f52601160045260245ffd5b34610187575f6003193601126101875760209073ffffffffffffffffffffffffffffffffffffffff600354168152f35b6003196040910112610187576004359060243590565b90601f7fffffffffffffffffffffffffffffffffffffffffffffffffffffffffffffffe0910116810190811067ffffffffffffffff82111761059a57604052565b7f4e487b71000000000000000000000000000000000000000000000000000000005f52604160045260245ffd5b60035460ff8160a01c1680610688575b6105ec575b505f52600160205260405f205490565b602073ffffffffffffffffffffffffffffffffffffffff916024604051809481937fa4576cc70000000000000000000000000000000000000000000000000000000083528188166004840152165afa5f9181610654575b50156105dc5780156105dc57905090565b9091506020813d602011610680575b8161067060209383610559565b810103126101875751905f610643565b3d9150610663565b5073ffffffffffffffffffffffffffffffffffffffff811615156105d7565b60035460ff8160a01c1680610788575b6106d2575b505f52600160205260405f205490429061271090565b606073ffffffffffffffffffffffffffffffffffffffff916024604051809481937fe876b5aa0000000000000000000000000000000000000000000000000000000083528188166004840152165afa5f815f935f93610746575b50610739575b50506106bc565b8015610732579391925090565b93509150506060823d606011610780575b8161076460609383610559565b810103126101875781516020830151604090930151915f61072c565b3d9150610757565b5073ffffffffffffffffffffffffffffffffffffffff811615156106b7565b73ffffffffffffffffffffffffffffffffffffffff5f541633036107c757565b7f118cdaa7000000000000000000000000000000000000000000000000000000005f523360045260245ffdfea2646970667358221220895fc0753b0d583cd5c2a06b747b3b7855e35eca5c71b96c4cba5bd4c1409ffd64736f6c634300081e0033","linkReferences":{}},"methodIdentifiers":{"cvsOracle()":"080a33c1","getCVS(bytes32)":"4d32d691","getCVSWithMetadata(bytes32)":"7caa3758","getTotalRevenue(bytes32)":"afda415f","ipAssetCVS(bytes32)":"56d9af1f","owner()":"8da5cb5b","recordRevenue(bytes32,uint256)":"12149e42","renounceOwnership()":"715018a6","setCVSOracle(address)":"ba503c7b","setUseOracle(bool)":"6804f613","totalLicenseRevenue(bytes32)":"d7614b02","transferOwnership(address)":"f2fde38b","updateCVS(bytes32,uint256)":"86b58b73","useOracle()":"44878724"},"id":60}