{"abi":[{"type":"constructor","inputs":[],"stateMutability":"nonpayable"},{"type":"function","name":"approve","inputs":[{"name":"to","type":"address","internalType":"address"},{"name":"tokenId","type":"uint256","internalType":"uint256"}],"outputs":[],"stateMutability":"nonpayable"},{"type":"function","name":"balanceOf","inputs":[{"name":"owner","type":"address","internalType":"address"}],"outputs":[{"name":"","type":"uint256","internalType":"uint256"}],"stateMutability":"view"},{"type":"function","name":"burn","inputs":[{"name":"tokenId","type":"uint256","internalType":"uint256"}],"outputs":[],"stateMutability":"nonpayable"},{"type":"function","name":"exists","inputs":[{"name":"loanId","type":"uint256","internalType":"uint256"}],"outputs":[{"name":"","type":"bool","internalType":"bool"}],"stateMutability":"view"},{"type":"function","name":"getApproved","inputs":[{"name":"tokenId","type":"uint256","internalType":"uint256"}],"outputs":[{"name":"","type":"address","internalType":"address"}],"stateMutability":"view"},{"type":"function","name":"getLoanId","inputs":[{"name":"tokenId","type":"uint256","internalType":"uint256"}],"outputs":[{"name":"loanId","type":"uint256","internalType":"uint256"}],"stateMutability":"view"},{"type":"function","name":"getTokenId","inputs":[{"name":"loanId","type":"uint256","internalType":"uint256"}],"outputs":[{"name":"tokenId","type":"uint256","internalType":"uint256"}],"stateMutability":"view"},{"type":"function","name":"isApprovedForAll","inputs":[{"name":"owner","type":"address","internalType":"address"},{"name":"operator","type":"address","internalType":"address"}],"outputs":[{"name":"","type":"bool","internalType":"bool"}],"stateMutability":"view"},{"type":"function","name":"loanIdToTokenId","inputs":[{"name":"","type":"uint256","internalType":"uint256"}],"outputs":[{"name":"","type":"uint256","internalType":"uint256"}],"stateMutability":"view"},{"type":"function","name":"mint","inputs":[{"name":"to","type":"address","internalType":"address"},{"name":"loanId","type":"uint256","internalType":"uint256"}],"outputs":[{"name":"tokenId","type":"uint256","internalType":"uint256"}],"stateMutability":"nonpayable"},{"type":"function","name":"name","inputs":[],"outputs":[{"name":"","type":"string","internalType":"string"}],"stateMutability":"view"},{"type":"function","name":"owner","inputs":[],"outputs":[{"name":"","type":"address","internalType":"address"}],"stateMutability":"view"},{"type":"function","name":"ownerOf","inputs":[{"name":"tokenId","type":"uint256","internalType":"uint256"}],"outputs":[{"name":"","type":"address","internalType":"address"}],"stateMutability":"view"},{"type":"function","name":"renounceOwnership","inputs":[],"outputs":[],"stateMutability":"nonpayable"},{"type":"function","name":"safeTransferFrom","inputs":[{"name":"from","type":"address","internalType":"address"},{"name":"to","type":"address","internalType":"address"},{"name":"tokenId","type":"uint256","internalType":"uint256"}],"outputs":[],"stateMutability":"nonpayable"},{"type":"function","name":"safeTransferFrom","inputs":[{"name":"from","type":"address","internalType":"address"},{"name":"to","type":"address","internalType":"address"},{"name":"tokenId","type":"uint256","internalType":"uint256"},{"name":"data","type":"bytes","internalType":"bytes"}],"outputs":[],"stateMutability":"nonpayable"},{"type":"function","name":"setApprovalForAll","inputs":[{"name":"operator","type":"address","internalType":"address"},{"name":"approved","type":"bool","internalType":"bool"}],"outputs":[],"stateMutability":"nonpayable"},{"type":"function","name":"supportsInterface","inputs":[{"name":"interfaceId","type":"bytes4","internalType":"bytes4"}],"outputs":[{"name":"","type":"bool","internalType":"bool"}],"stateMutability":"view"},{"type":"function","name":"symbol","inputs":[],"outputs":[{"name":"","type":"string","internalType":"string"}],"stateMutability":"view"},{"type":"function","name":"tokenIdToLoanId","inputs":[{"name":"","type":"uint256","internalType":"uint256"}],"outputs":[{"name":"","type":"uint256","internalType":"uint256"}],"stateMutability":"view"},{"type":"function","name":"tokenURI","inputs":[{"name":"tokenId","type":"uint256","internalType":"uint256"}],"outputs":[{"name":"","type":"string","internalType":"string"}],"stateMutability":"view"},{"type":"function","name":"totalSupply","inputs":[],"outputs":[{"name":"supply","type":"uint256","internalType":"uint256"}],"stateMutability":"view"},{"type":"function","name":"transferFrom","inputs":[{"name":"from","type":"address","internalType":"address"},{"name":"to","type":"address","internalType":"address"},{"name":"tokenId","type":"uint256","internalType":"uint256"}],"outputs":[],"stateMutability":"nonpayable"},{"type":"function","name":"transferOwnership","inputs":[{"name":"newOwner","type":"address","internalType":"address"}],"outputs":[],"stateMutability":"nonpayable"},{"type":"event","name":"Approval","inputs":[{"name":"owner","type":"address","indexed":true,"internalType":"address"},{"name":"approved","type":"address","indexed":true,"internalType":"address"},{"name":"tokenId","type":"uint256","indexed":true,"internalType":"uint256"}],"anonymous":false},{"type":"event","name":"ApprovalForAll","inputs":[{"name":"owner","type":"address","indexed":true,"internalType":"address"},{"name":"operator","type":"address","indexed":true,"internalType":"address"},{"name":"approved","type":"bool","indexed":false,"internalType":"bool"}],"anonymous":false},{"type":"event","name":"LoanNFTBurned","inputs":[{"name":"tokenId","type":"uint256","indexed":true,"internalType":"uint256"},{"name":"loanId","type":"uint256","indexed":true,"internalType":"uint256"}],"anonymous":false},{"type":"event","name":"LoanNFTMinted","inputs":[{"name":"tokenId","type":"uint256","indexed":true,"internalType":"uint256"},{"name":"loanId","type":"uint256","indexed":true,"internalType":"uint256"},{"name":"borrower","type":"address","indexed":true,"internalType":"address"}],"anonymous":false},{"type":"event","name":"OwnershipTransferred","inputs":[{"name":"previousOwner","type":"address","indexed":true,"internalType":"address"},{"name":"newOwner","type":"address","indexed":true,"internalType":"address"}],"anonymous":false},{"type":"event","name":"Transfer","inputs":[{"name":"from","type":"address","indexed":true,"internalType":"address"},{"name":"to","type":"address","indexed":true,"internalType":"address"},{"name":"tokenId","type":"uint256","indexed":true,"internalType":"uint256"}],"anonymous":false},{"type":"error","name":"ERC721IncorrectOwner","inputs":[{"name":"sender","type":"address","internalType":"address"},{"name":"tokenId","type":"uint256","internalType":"uint256"},{"name":"owner","type":"address","internalType":"address"}]},{"type":"error","name":"ERC721InsufficientApproval","inputs":[{"name":"operator","type":"address","internalType":"address"},{"name":"tokenId","type":"uint256","internalType":"uint256"}]},{"type":"error","name":"ERC721InvalidApprover","inputs":[{"name":"approver","type":"address","internalType":"address"}]},{"type":"error","name":"ERC721InvalidOperator","inputs":[{"name":"operator","type":"address","internalType":"address"}]},{"type":"error","name":"ERC721InvalidOwner","inputs":[{"name":"owner","type":"address","internalType":"address"}]},{"type":"error","name":"ERC721InvalidReceiver","inputs":[{"name":"receiver","type":"address","internalType":"address"}]},{"type":"error","name":"ERC721InvalidSender","inputs":[{"name":"sender","type":"address","internalType":"address"}]},{"type":"error","name":"ERC721NonexistentToken","inputs":[{"name":"tokenId","type":"uint256","internalType":"uint256"}]},{"type":"error","name":"OwnableInvalidOwner","inputs":[{"name":"owner","type":"address","internalType":"address"}]},{"type":"error","name":"OwnableUnauthorizedAccount","inputs":[{"name":"account","type":"address","internalType":"address"}]}],"bytecode":{"object":"0x60806040523461037657604080519081016001600160401b0381118282101761028c576040908152600e82526d105d1b185cc8131bd85b8813919560921b602083015280519081016001600160401b0381118282101761028c57604052600581526420a627a0a760d91b602082015281516001600160401b03811161028c575f54600181811c9116801561036c575b602082101461026e57601f811161030a575b50602092601f82116001146102ab57928192935f926102a0575b50508160011b915f199060031b1c1916175f555b80516001600160401b03811161028c57600154600181811c91168015610282575b602082101461026e57601f811161020b575b50602091601f82116001146101ab579181925f926101a0575b50508160011b915f199060031b1c1916176001555b331561018d5760068054336001600160a01b03198216811790925560405191906001600160a01b03167f8be0079c531659141344cd1fd0a4f28419497f9722a3daafe3b4186f6b6457e05f80a360016007556117cc908161037b8239f35b631e4fbdf760e01b5f525f60045260245ffd5b015190505f8061011a565b601f1982169260015f52805f20915f5b8581106101f3575083600195106101db575b505050811b0160015561012f565b01515f1960f88460031b161c191690555f80806101cd565b919260206001819286850151815501940192016101bb565b60015f527fb10e2d527612073b26eecdfd717e6a320cf44b4afac2b0732d9fcbe2b7fa0cf6601f830160051c81019160208410610264575b601f0160051c01905b8181106102595750610101565b5f815560010161024c565b9091508190610243565b634e487b7160e01b5f52602260045260245ffd5b90607f16906100ef565b634e487b7160e01b5f52604160045260245ffd5b015190505f806100ba565b601f198216935f8052805f20915f5b8681106102f257508360019596106102da575b505050811b015f556100ce565b01515f1960f88460031b161c191690555f80806102cd565b919260206001819286850151815501940192016102ba565b5f80527f290decd9548b62a8d60345a988386fc84ba6bc95484008f6362f93160ef3e563601f830160051c81019160208410610362575b601f0160051c01905b81811061035757506100a0565b5f815560010161034a565b9091508190610341565b90607f169061008e565b5f80fdfe6080806040526004361015610012575f80fd5b5f905f3560e01c90816301ffc9a7146110d05750806306fdde0314611018578063081812fc14610fce578063095ea7b314610e7057806314ff5ea314610de157806318160ddd14610db857806323b872dd14610da157806340c10f19146109d057806342842e0e146109a157806342966c68146108305780634f558e79146107d05780636352211e1461079457806370a082311461071d578063715018a61461069f5780638da5cb5b1461066c57806395d89b411461052d578063a22cb4651461044e578063b88d4fde146103b8578063c57cca4f1461038e578063c87b56dd14610331578063d784c91314610284578063e4a999061461025a578063e985e9c5146101fa5763f2fde38b14610126575f80fd5b346101f75760206003193601126101f75773ffffffffffffffffffffffffffffffffffffffff6101546111e2565b61015c61159d565b1680156101cb5773ffffffffffffffffffffffffffffffffffffffff600654827fffffffffffffffffffffffff0000000000000000000000000000000000000000821617600655167f8be0079c531659141344cd1fd0a4f28419497f9722a3daafe3b4186f6b6457e05f80a380f35b6024827f1e4fbdf700000000000000000000000000000000000000000000000000000000815280600452fd5b80fd5b50346101f75760406003193601126101f75773ffffffffffffffffffffffffffffffffffffffff604061022b6111e2565b9282610235611205565b9416815260056020522091165f52602052602060ff60405f2054166040519015158152f35b50346101f75760206003193601126101f75760406020916004358152600983522054604051908152f35b50346101f75760206003193601126101f75760043573ffffffffffffffffffffffffffffffffffffffff6102b78261156f565b16156102d3578160409160209352600883522054604051908152f35b60646040517f08c379a000000000000000000000000000000000000000000000000000000000815260206004820152601460248201527f546f6b656e20646f6573206e6f742065786973740000000000000000000000006044820152fd5b3461038a57602060031936011261038a5761034d60043561156f565b505f60405161035d60208261127c565b5261038660405161036f60208261127c565b5f815260405191829160208352602083019061119f565b0390f35b5f80fd5b3461038a57602060031936011261038a576004355f526008602052602060405f2054604051908152f35b3461038a57608060031936011261038a576103d16111e2565b6103d9611205565b906044356064359267ffffffffffffffff841161038a573660238501121561038a5783600401359261040a846112ea565b93610418604051958661127c565b808552366024828801011161038a576020815f92602461044c99018389013786010152610446838383611324565b336115ea565b005b3461038a57604060031936011261038a576104676111e2565b6024359081151580920361038a5773ffffffffffffffffffffffffffffffffffffffff1690811561050157335f52600560205260405f20825f5260205260405f207fffffffffffffffffffffffffffffffffffffffffffffffffffffffffffffff0081541660ff83161790556040519081527f17307eab39ab6107e8899845ad3d59bd9653f200f220920489ca2b5937696c3160203392a3005b507f5b08ba18000000000000000000000000000000000000000000000000000000005f5260045260245ffd5b3461038a575f60031936011261038a576040515f6001548060011c90600181168015610662575b602083108114610635578285529081156105f35750600114610595575b610386836105818185038261127c565b60405191829160208352602083019061119f565b91905060015f527fb10e2d527612073b26eecdfd717e6a320cf44b4afac2b0732d9fcbe2b7fa0cf6915f905b8082106105d957509091508101602001610581610571565b9192600181602092548385880101520191019092916105c1565b7fffffffffffffffffffffffffffffffffffffffffffffffffffffffffffffff001660208086019190915291151560051b840190910191506105819050610571565b7f4e487b71000000000000000000000000000000000000000000000000000000005f52602260045260245ffd5b91607f1691610554565b3461038a575f60031936011261038a57602073ffffffffffffffffffffffffffffffffffffffff60065416604051908152f35b3461038a575f60031936011261038a576106b761159d565b5f73ffffffffffffffffffffffffffffffffffffffff6006547fffffffffffffffffffffffff00000000000000000000000000000000000000008116600655167f8be0079c531659141344cd1fd0a4f28419497f9722a3daafe3b4186f6b6457e08280a3005b3461038a57602060031936011261038a5773ffffffffffffffffffffffffffffffffffffffff61074b6111e2565b168015610768575f526003602052602060405f2054604051908152f35b7f89c62b64000000000000000000000000000000000000000000000000000000005f525f60045260245ffd5b3461038a57602060031936011261038a5760206107b260043561156f565b73ffffffffffffffffffffffffffffffffffffffff60405191168152f35b3461038a57602060031936011261038a576004355f526009602052602060405f20548015159081610807575b506040519015158152f35b73ffffffffffffffffffffffffffffffffffffffff91506108279061156f565b161515826107fc565b3461038a57602060031936011261038a5760043561084c61159d565b805f52600860205260405f205490805f5260086020525f6040812055815f5260096020525f6040812055805f52600260205273ffffffffffffffffffffffffffffffffffffffff60405f2054168015908115610952575b825f52600260205260405f207fffffffffffffffffffffffff00000000000000000000000000000000000000008154169055825f827fddf252ad1be2c89b69c2b068fc378daa952ba7f163c4a11628f55a4df523b3ef8280a450610927577fb47d0d6b8a476f6ab08bd9270841806441752c792af107b6254115f1524309545f80a3005b7f7e273289000000000000000000000000000000000000000000000000000000005f5260045260245ffd5b610989835f52600460205260405f207fffffffffffffffffffffffff00000000000000000000000000000000000000008154169055565b805f52600360205260405f205f1981540190556108a3565b3461038a5761044c6109b236611228565b90604051926109c260208561127c565b5f8452610446838383611324565b3461038a57604060031936011261038a576109e96111e2565b6024356109f461159d565b600754905f198214610d745760018201600755602091604051610a17848261127c565b5f815273ffffffffffffffffffffffffffffffffffffffff8516948515610d4857825f526002855273ffffffffffffffffffffffffffffffffffffffff60405f2054168015159081610cfa575b875f526003875260405f2060018154019055845f526002875260405f20887fffffffffffffffffffffffff00000000000000000000000000000000000000008254161790558488827fddf252ad1be2c89b69c2b068fc378daa952ba7f163c4a11628f55a4df523b3ef5f80a450610cce573b610b24575b5083815f52600884528260405f2055825f52600984528160405f205560405192827f4f4e9039bb5a640045be245a150e8b62e69208885cb24ca519f44869900f2b895f80a48152f35b83610b7691604051809381927f150b7a020000000000000000000000000000000000000000000000000000000083523360048401525f602484015286604484015260806064840152608483019061119f565b03815f895af15f9181610c76575b50610bf4575050503d5f14610bec573d90610b9e826112ea565b91610bac604051938461127c565b82523d5f8284013e5b81519182610be957837f64a0ae92000000000000000000000000000000000000000000000000000000005f5260045260245ffd5b01fd5b606090610bb5565b7fffffffff000000000000000000000000000000000000000000000000000000007f150b7a02000000000000000000000000000000000000000000000000000000009195929394951603610c4b5792919084610adb565b7f64a0ae92000000000000000000000000000000000000000000000000000000005f5260045260245ffd5b9091508481813d8311610cc7575b610c8e818361127c565b8101031261038a57517fffffffff000000000000000000000000000000000000000000000000000000008116810361038a579086610b84565b503d610c84565b7f73c6ac6e000000000000000000000000000000000000000000000000000000005f525f60045260245ffd5b610d31855f52600460205260405f207fffffffffffffffffffffffff00000000000000000000000000000000000000008154169055565b805f526003875260405f205f198154019055610a64565b7f64a0ae92000000000000000000000000000000000000000000000000000000005f525f60045260245ffd5b7f4e487b71000000000000000000000000000000000000000000000000000000005f52601160045260245ffd5b3461038a5761044c610db236611228565b91611324565b3461038a575f60031936011261038a576007545f198101908111610d7457602090604051908152f35b3461038a57602060031936011261038a576004355f52600960205260405f20548015610e1257602090604051908152f35b60646040517f08c379a000000000000000000000000000000000000000000000000000000000815260206004820152601760248201527f4c6f616e204e465420646f6573206e6f742065786973740000000000000000006044820152fd5b3461038a57604060031936011261038a57610e896111e2565b602435610e958161156f565b33151580610fae575b80610f61575b610f3557819073ffffffffffffffffffffffffffffffffffffffff80851691167f8c5be1e5ebec7d5bd14f71427d1e84f3dd0314c0f7b2291e5b200ac8c7c3b9255f80a45f52600460205273ffffffffffffffffffffffffffffffffffffffff60405f2091167fffffffffffffffffffffffff00000000000000000000000000000000000000008254161790555f80f35b7fa9fbf51f000000000000000000000000000000000000000000000000000000005f523360045260245ffd5b5073ffffffffffffffffffffffffffffffffffffffff81165f52600560205260405f2073ffffffffffffffffffffffffffffffffffffffff33165f5260205260ff60405f20541615610ea4565b503373ffffffffffffffffffffffffffffffffffffffff82161415610e9e565b3461038a57602060031936011261038a57600435610feb8161156f565b505f526004602052602073ffffffffffffffffffffffffffffffffffffffff60405f205416604051908152f35b3461038a575f60031936011261038a576040515f5f548060011c906001811680156110c6575b602083108114610635578285529081156105f3575060011461106a57610386836105818185038261127c565b5f8080527f290decd9548b62a8d60345a988386fc84ba6bc95484008f6362f93160ef3e563939250905b8082106110ac57509091508101602001610581610571565b919260018160209254838588010152019101909291611094565b91607f169161103e565b3461038a57602060031936011261038a57600435907fffffffff00000000000000000000000000000000000000000000000000000000821680920361038a57817f80ac58cd0000000000000000000000000000000000000000000000000000000060209314908115611175575b811561114b575b5015158152f35b7f01ffc9a70000000000000000000000000000000000000000000000000000000091501483611144565b7f5b5e139f000000000000000000000000000000000000000000000000000000008114915061113d565b907fffffffffffffffffffffffffffffffffffffffffffffffffffffffffffffffe0601f602080948051918291828752018686015e5f8582860101520116010190565b6004359073ffffffffffffffffffffffffffffffffffffffff8216820361038a57565b6024359073ffffffffffffffffffffffffffffffffffffffff8216820361038a57565b600319606091011261038a5760043573ffffffffffffffffffffffffffffffffffffffff8116810361038a579060243573ffffffffffffffffffffffffffffffffffffffff8116810361038a579060443590565b90601f7fffffffffffffffffffffffffffffffffffffffffffffffffffffffffffffffe0910116810190811067ffffffffffffffff8211176112bd57604052565b7f4e487b71000000000000000000000000000000000000000000000000000000005f52604160045260245ffd5b67ffffffffffffffff81116112bd57601f017fffffffffffffffffffffffffffffffffffffffffffffffffffffffffffffffe01660200190565b919073ffffffffffffffffffffffffffffffffffffffff168015610d4857815f52600260205273ffffffffffffffffffffffffffffffffffffffff60405f20541692823315159283611487575b73ffffffffffffffffffffffffffffffffffffffff935085611438575b805f52600360205260405f2060018154019055815f52600260205260405f20817fffffffffffffffffffffffff0000000000000000000000000000000000000000825416179055857fddf252ad1be2c89b69c2b068fc378daa952ba7f163c4a11628f55a4df523b3ef5f80a41680830361140757505050565b7f64283d7b000000000000000000000000000000000000000000000000000000005f5260045260245260445260645ffd5b61146f825f52600460205260405f207fffffffffffffffffffffffff00000000000000000000000000000000000000008154169055565b855f52600360205260405f205f19815401905561138e565b91929050806114fe575b1561149e57828291611371565b82846114cf577f7e273289000000000000000000000000000000000000000000000000000000005f5260045260245ffd5b7f177e802f000000000000000000000000000000000000000000000000000000005f523360045260245260445ffd5b503384148015611539575b806114915750825f5260046020523373ffffffffffffffffffffffffffffffffffffffff60405f20541614611491565b50835f52600560205260405f2073ffffffffffffffffffffffffffffffffffffffff33165f5260205260ff60405f205416611509565b805f52600260205273ffffffffffffffffffffffffffffffffffffffff60405f205416908115610927575090565b73ffffffffffffffffffffffffffffffffffffffff6006541633036115be57565b7f118cdaa7000000000000000000000000000000000000000000000000000000005f523360045260245ffd5b93909293823b6115fc575b5050505050565b61166973ffffffffffffffffffffffffffffffffffffffff928360209516968460405197889687967f150b7a02000000000000000000000000000000000000000000000000000000008852166004870152166024850152604484015260806064840152608483019061119f565b03815f865af15f9181611739575b506116e557503d156116de573d61168d816112ea565b9061169b604051928361127c565b81523d5f602083013e5b805190816116d957827f64a0ae92000000000000000000000000000000000000000000000000000000005f5260045260245ffd5b602001fd5b60606116a5565b7fffffffff000000000000000000000000000000000000000000000000000000007f150b7a0200000000000000000000000000000000000000000000000000000000911603610c4b57505f808080806115f5565b9091506020813d60201161178e575b816117556020938361127c565b8101031261038a57517fffffffff000000000000000000000000000000000000000000000000000000008116810361038a57905f611677565b3d915061174856fea2646970667358221220c3c53b545385f1facb3c2de385ab72268caa9c263a74fce89ff79b1795eac98164736f6c634300081e0033","linkReferences":{}},"methodIdentifiers":{"approve(address,uint256)":"095ea7b3","balanceOf(address)":"70a08231","burn(uint256)":"42966c68","exists(uint256)":"4f558e79","getApproved(uint256)":"081812fc","getLoanId(uint256)":"d784c913","getTokenId(uint256)":"14ff5ea3","isApprovedForAll(address,address)":"e985e9c5","loanIdToTokenId(uint256)":"e4a99906","mint(address,uint256)":"40c10f19","name()":"06fdde03","owner()":"8da5cb5b","ownerOf(uint256)":"6352211e","renounceOwnership()":"715018a6","safeTransferFrom(address,address,uint256)":"42842e0e","safeTransferFrom(address,address,uint256,bytes)":"b88d4fde","setApprovalForAll(address,bool)":"a22cb465","supportsInterface(bytes4)":"01ffc9a7","symbol()":"95d89b41","tokenIdToLoanId(uint256)":"c57cca4f","tokenURI(uint256)":"c87b56dd","totalSupply()":"18160ddd","transferFrom(address,address,uint256)":"23b872dd","transferOwnership(address)":"f2fde38b"},"id":63}