{"abi":[{"type":"constructor","inputs":[{"name":"_idoContract","type":"address","internalType":"address"}],"stateMutability":"nonpayable"},{"type":"function","name":"MIN_CVS_RATIO","inputs":[],"outputs":[{"name":"","type":"uint256","internalType":"uint256"}],"stateMutability":"view"},{"type":"function","name":"borrowerLoans","inputs":[{"name":"","type":"address","internalType":"address"},{"name":"","type":"uint256","internalType":"uint256"}],"outputs":[{"name":"","type":"uint256","internalType":"uint256"}],"stateMutability":"view"},{"type":"function","name":"bridgeAgent","inputs":[],"outputs":[{"name":"","type":"address","internalType":"address"}],"stateMutability":"view"},{"type":"function","name":"calculateInterest","inputs":[{"name":"principal","type":"uint256","internalType":"uint256"},{"name":"rate","type":"uint256","internalType":"uint256"},{"name":"elapsedTime","type":"uint256","internalType":"uint256"},{"name":"duration","type":"uint256","internalType":"uint256"}],"outputs":[{"name":"","type":"uint256","internalType":"uint256"}],"stateMutability":"pure"},{"type":"function","name":"calculateInterestRate","inputs":[{"name":"cvs","type":"uint256","internalType":"uint256"}],"outputs":[{"name":"","type":"uint256","internalType":"uint256"}],"stateMutability":"pure"},{"type":"function","name":"calculateMaxLoanAmount","inputs":[{"name":"vaultAddress","type":"address","internalType":"address"}],"outputs":[{"name":"","type":"uint256","internalType":"uint256"}],"stateMutability":"view"},{"type":"function","name":"claimForBridge","inputs":[{"name":"loanId","type":"uint256","internalType":"uint256"}],"outputs":[],"stateMutability":"nonpayable"},{"type":"function","name":"confirmBridge","inputs":[{"name":"loanId","type":"uint256","internalType":"uint256"},{"name":"bridgeTxHash","type":"bytes32","internalType":"bytes32"}],"outputs":[],"stateMutability":"nonpayable"},{"type":"function","name":"createVault","inputs":[{"name":"ipId","type":"bytes32","internalType":"bytes32"}],"outputs":[{"name":"vaultAddress","type":"address","internalType":"address"}],"stateMutability":"nonpayable"},{"type":"function","name":"creatorShareBps","inputs":[],"outputs":[{"name":"","type":"uint256","internalType":"uint256"}],"stateMutability":"view"},{"type":"function","name":"defaultCollateralRatio","inputs":[],"outputs":[{"name":"","type":"uint256","internalType":"uint256"}],"stateMutability":"view"},{"type":"function","name":"deposit","inputs":[{"name":"vaultAddress","type":"address","internalType":"address"}],"outputs":[{"name":"shares","type":"uint256","internalType":"uint256"}],"stateMutability":"payable"},{"type":"function","name":"depositorShares","inputs":[{"name":"","type":"address","internalType":"address"},{"name":"","type":"address","internalType":"address"}],"outputs":[{"name":"","type":"uint256","internalType":"uint256"}],"stateMutability":"view"},{"type":"function","name":"getBorrowerLoans","inputs":[{"name":"borrower","type":"address","internalType":"address"}],"outputs":[{"name":"","type":"uint256[]","internalType":"uint256[]"}],"stateMutability":"view"},{"type":"function","name":"getLoan","inputs":[{"name":"loanId","type":"uint256","internalType":"uint256"}],"outputs":[{"name":"","type":"tuple","internalType":"struct ADLV.Loan","components":[{"name":"loanId","type":"uint256","internalType":"uint256"},{"name":"vaultAddress","type":"address","internalType":"address"},{"name":"borrower","type":"address","internalType":"address"},{"name":"loanAmount","type":"uint256","internalType":"uint256"},{"name":"collateralAmount","type":"uint256","internalType":"uint256"},{"name":"interestRate","type":"uint256","internalType":"uint256"},{"name":"duration","type":"uint256","internalType":"uint256"},{"name":"cvsAtIssuance","type":"uint256","internalType":"uint256"},{"name":"startTime","type":"uint256","internalType":"uint256"},{"name":"endTime","type":"uint256","internalType":"uint256"},{"name":"repaidAmount","type":"uint256","internalType":"uint256"},{"name":"outstandingAmount","type":"uint256","internalType":"uint256"},{"name":"status","type":"uint8","internalType":"enum ADLV.LoanStatus"}]}],"stateMutability":"view"},{"type":"function","name":"getPendingBridge","inputs":[{"name":"loanId","type":"uint256","internalType":"uint256"}],"outputs":[{"name":"borrower","type":"address","internalType":"address"},{"name":"amount","type":"uint256","internalType":"uint256"},{"name":"targetChainId","type":"uint256","internalType":"uint256"},{"name":"claimed","type":"bool","internalType":"bool"},{"name":"confirmed","type":"bool","internalType":"bool"}],"stateMutability":"view"},{"type":"function","name":"getVault","inputs":[{"name":"vaultAddress","type":"address","internalType":"address"}],"outputs":[{"name":"","type":"tuple","internalType":"struct ADLV.Vault","components":[{"name":"vaultAddress","type":"address","internalType":"address"},{"name":"ipId","type":"bytes32","internalType":"bytes32"},{"name":"creator","type":"address","internalType":"address"},{"name":"totalLiquidity","type":"uint256","internalType":"uint256"},{"name":"availableLiquidity","type":"uint256","internalType":"uint256"},{"name":"totalLoansIssued","type":"uint256","internalType":"uint256"},{"name":"activeLoansCount","type":"uint256","internalType":"uint256"},{"name":"totalLicenseRevenue","type":"uint256","internalType":"uint256"},{"name":"totalLoanRepayments","type":"uint256","internalType":"uint256"},{"name":"createdAt","type":"uint256","internalType":"uint256"},{"name":"exists","type":"bool","internalType":"bool"}]}],"stateMutability":"view"},{"type":"function","name":"getVaultLoans","inputs":[{"name":"vaultAddress","type":"address","internalType":"address"}],"outputs":[{"name":"","type":"uint256[]","internalType":"uint256[]"}],"stateMutability":"view"},{"type":"function","name":"idoContract","inputs":[],"outputs":[{"name":"","type":"address","internalType":"contract IDO"}],"stateMutability":"view"},{"type":"function","name":"ipToVault","inputs":[{"name":"","type":"bytes32","internalType":"bytes32"}],"outputs":[{"name":"","type":"address","internalType":"address"}],"stateMutability":"view"},{"type":"function","name":"issueLoan","inputs":[{"name":"vaultAddress","type":"address","internalType":"address"},{"name":"loanAmount","type":"uint256","internalType":"uint256"},{"name":"duration","type":"uint256","internalType":"uint256"},{"name":"targetChainId","type":"uint256","internalType":"uint256"}],"outputs":[{"name":"loanId","type":"uint256","internalType":"uint256"}],"stateMutability":"payable"},{"type":"function","name":"liquidateLoan","inputs":[{"name":"loanId","type":"uint256","internalType":"uint256"}],"outputs":[],"stateMutability":"nonpayable"},{"type":"function","name":"loanCounter","inputs":[],"outputs":[{"name":"","type":"uint256","internalType":"uint256"}],"stateMutability":"view"},{"type":"function","name":"loans","inputs":[{"name":"","type":"uint256","internalType":"uint256"}],"outputs":[{"name":"loanId","type":"uint256","internalType":"uint256"},{"name":"vaultAddress","type":"address","internalType":"address"},{"name":"borrower","type":"address","internalType":"address"},{"name":"loanAmount","type":"uint256","internalType":"uint256"},{"name":"collateralAmount","type":"uint256","internalType":"uint256"},{"name":"interestRate","type":"uint256","internalType":"uint256"},{"name":"duration","type":"uint256","internalType":"uint256"},{"name":"cvsAtIssuance","type":"uint256","internalType":"uint256"},{"name":"startTime","type":"uint256","internalType":"uint256"},{"name":"endTime","type":"uint256","internalType":"uint256"},{"name":"repaidAmount","type":"uint256","internalType":"uint256"},{"name":"outstandingAmount","type":"uint256","internalType":"uint256"},{"name":"status","type":"uint8","internalType":"enum ADLV.LoanStatus"}],"stateMutability":"view"},{"type":"function","name":"owner","inputs":[],"outputs":[{"name":"","type":"address","internalType":"address"}],"stateMutability":"view"},{"type":"function","name":"pendingBridges","inputs":[{"name":"","type":"uint256","internalType":"uint256"}],"outputs":[{"name":"borrower","type":"address","internalType":"address"},{"name":"amount","type":"uint256","internalType":"uint256"},{"name":"targetChainId","type":"uint256","internalType":"uint256"},{"name":"claimed","type":"bool","internalType":"bool"},{"name":"confirmed","type":"bool","internalType":"bool"}],"stateMutability":"view"},{"type":"function","name":"protocolFeeBps","inputs":[],"outputs":[{"name":"","type":"uint256","internalType":"uint256"}],"stateMutability":"view"},{"type":"function","name":"repayLoan","inputs":[{"name":"loanId","type":"uint256","internalType":"uint256"}],"outputs":[],"stateMutability":"payable"},{"type":"function","name":"sellLicense","inputs":[{"name":"vaultAddress","type":"address","internalType":"address"},{"name":"licenseType","type":"string","internalType":"string"},{"name":"","type":"uint256","internalType":"uint256"}],"outputs":[],"stateMutability":"payable"},{"type":"function","name":"setBridgeAgent","inputs":[{"name":"_bridgeAgent","type":"address","internalType":"address"}],"outputs":[],"stateMutability":"nonpayable"},{"type":"function","name":"setIDOContract","inputs":[{"name":"_idoContract","type":"address","internalType":"address"}],"outputs":[],"stateMutability":"nonpayable"},{"type":"function","name":"setProtocolFee","inputs":[{"name":"_protocolFeeBps","type":"uint256","internalType":"uint256"}],"outputs":[],"stateMutability":"nonpayable"},{"type":"function","name":"totalShares","inputs":[{"name":"","type":"address","internalType":"address"}],"outputs":[{"name":"","type":"uint256","internalType":"uint256"}],"stateMutability":"view"},{"type":"function","name":"updateIPCVS","inputs":[{"name":"ipId","type":"bytes32","internalType":"bytes32"},{"name":"newCVS","type":"uint256","internalType":"uint256"}],"outputs":[],"stateMutability":"nonpayable"},{"type":"function","name":"vaultCounter","inputs":[],"outputs":[{"name":"","type":"uint256","internalType":"uint256"}],"stateMutability":"view"},{"type":"function","name":"vaultLoans","inputs":[{"name":"","type":"address","internalType":"address"},{"name":"","type":"uint256","internalType":"uint256"}],"outputs":[{"name":"","type":"uint256","internalType":"uint256"}],"stateMutability":"view"},{"type":"function","name":"vaultShareBps","inputs":[],"outputs":[{"name":"","type":"uint256","internalType":"uint256"}],"stateMutability":"view"},{"type":"function","name":"vaults","inputs":[{"name":"","type":"address","internalType":"address"}],"outputs":[{"name":"vaultAddress","type":"address","internalType":"address"},{"name":"ipId","type":"bytes32","internalType":"bytes32"},{"name":"creator","type":"address","internalType":"address"},{"name":"totalLiquidity","type":"uint256","internalType":"uint256"},{"name":"availableLiquidity","type":"uint256","internalType":"uint256"},{"name":"totalLoansIssued","type":"uint256","internalType":"uint256"},{"name":"activeLoansCount","type":"uint256","internalType":"uint256"},{"name":"totalLicenseRevenue","type":"uint256","internalType":"uint256"},{"name":"totalLoanRepayments","type":"uint256","internalType":"uint256"},{"name":"createdAt","type":"uint256","internalType":"uint256"},{"name":"exists","type":"bool","internalType":"bool"}],"stateMutability":"view"},{"type":"function","name":"withdraw","inputs":[{"name":"vaultAddress","type":"address","internalType":"address"},{"name":"shares","type":"uint256","internalType":"uint256"}],"outputs":[],"stateMutability":"nonpayable"},{"type":"event","name":"BridgeAgentUpdated","inputs":[{"name":"oldAgent","type":"address","indexed":true,"internalType":"address"},{"name":"newAgent","type":"address","indexed":true,"internalType":"address"}],"anonymous":false},{"type":"event","name":"BridgeConfirmed","inputs":[{"name":"loanId","type":"uint256","indexed":true,"internalType":"uint256"},{"name":"bridgeTxHash","type":"bytes32","indexed":false,"internalType":"bytes32"}],"anonymous":false},{"type":"event","name":"BridgeFundsClaimed","inputs":[{"name":"loanId","type":"uint256","indexed":true,"internalType":"uint256"},{"name":"agent","type":"address","indexed":true,"internalType":"address"},{"name":"borrower","type":"address","indexed":true,"internalType":"address"},{"name":"amount","type":"uint256","indexed":false,"internalType":"uint256"},{"name":"targetChainId","type":"uint256","indexed":false,"internalType":"uint256"}],"anonymous":false},{"type":"event","name":"CVSUpdated","inputs":[{"name":"vaultAddress","type":"address","indexed":true,"internalType":"address"},{"name":"oldCVS","type":"uint256","indexed":false,"internalType":"uint256"},{"name":"newCVS","type":"uint256","indexed":false,"internalType":"uint256"}],"anonymous":false},{"type":"event","name":"Deposited","inputs":[{"name":"vaultAddress","type":"address","indexed":true,"internalType":"address"},{"name":"depositor","type":"address","indexed":true,"internalType":"address"},{"name":"amount","type":"uint256","indexed":false,"internalType":"uint256"},{"name":"shares","type":"uint256","indexed":false,"internalType":"uint256"}],"anonymous":false},{"type":"event","name":"LicenseSold","inputs":[{"name":"vaultAddress","type":"address","indexed":true,"internalType":"address"},{"name":"ipId","type":"bytes32","indexed":true,"internalType":"bytes32"},{"name":"licensee","type":"address","indexed":true,"internalType":"address"},{"name":"price","type":"uint256","indexed":false,"internalType":"uint256"},{"name":"licenseType","type":"string","indexed":false,"internalType":"string"}],"anonymous":false},{"type":"event","name":"LoanDefaulted","inputs":[{"name":"vaultAddress","type":"address","indexed":true,"internalType":"address"},{"name":"borrower","type":"address","indexed":true,"internalType":"address"},{"name":"loanId","type":"uint256","indexed":true,"internalType":"uint256"}],"anonymous":false},{"type":"event","name":"LoanIssued","inputs":[{"name":"vaultAddress","type":"address","indexed":true,"internalType":"address"},{"name":"borrower","type":"address","indexed":true,"internalType":"address"},{"name":"loanId","type":"uint256","indexed":true,"internalType":"uint256"},{"name":"amount","type":"uint256","indexed":false,"internalType":"uint256"},{"name":"collateral","type":"uint256","indexed":false,"internalType":"uint256"},{"name":"interestRate","type":"uint256","indexed":false,"internalType":"uint256"},{"name":"duration","type":"uint256","indexed":false,"internalType":"uint256"},{"name":"targetChainId","type":"uint256","indexed":false,"internalType":"uint256"}],"anonymous":false},{"type":"event","name":"LoanLiquidated","inputs":[{"name":"vaultAddress","type":"address","indexed":true,"internalType":"address"},{"name":"borrower","type":"address","indexed":true,"internalType":"address"},{"name":"loanId","type":"uint256","indexed":true,"internalType":"uint256"}],"anonymous":false},{"type":"event","name":"LoanRepaid","inputs":[{"name":"vaultAddress","type":"address","indexed":true,"internalType":"address"},{"name":"borrower","type":"address","indexed":true,"internalType":"address"},{"name":"loanId","type":"uint256","indexed":true,"internalType":"uint256"},{"name":"amount","type":"uint256","indexed":false,"internalType":"uint256"}],"anonymous":false},{"type":"event","name":"VaultCreated","inputs":[{"name":"vaultAddress","type":"address","indexed":true,"internalType":"address"},{"name":"ipId","type":"bytes32","indexed":true,"internalType":"bytes32"},{"name":"creator","type":"address","indexed":true,"internalType":"address"},{"name":"initialCVS","type":"uint256","indexed":false,"internalType":"uint256"}],"anonymous":false},{"type":"event","name":"Withdrawn","inputs":[{"name":"vaultAddress","type":"address","indexed":true,"internalType":"address"},{"name":"withdrawer","type":"address","indexed":true,"internalType":"address"},{"name":"amount","type":"uint256","indexed":false,"internalType":"uint256"},{"name":"shares","type":"uint256","indexed":false,"internalType":"uint256"}],"anonymous":false}],"bytecode":{"object":"0x6080346100e357601f612a3038819003918201601f19168301916001600160401b038311848410176100e7578084926020946040528339810103126100e357516001600160a01b038116908190036100e3576101f4600355611b586004556109c4600555613a98600655801561009e575f80546001600160a01b0319908116929092179055600180549091163317905560405161293490816100fc8239f35b60405162461bcd60e51b815260206004820152601960248201527f41444c563a20496e76616c69642049444f2061646472657373000000000000006044820152606490fd5b5f80fd5b634e487b7160e01b5f52604160045260245ffdfe6080806040526004361015610012575f80fd5b5f905f3560e01c908163022dda401461243a575080630eb9af38146122c2578063116f71ac1461229d5780631518405e1461225757806317799f3614611f6f5780631cfe28dd14611f5257806334d9289e14611f3557806335659fb814611f18578063377a91ce14611eab5780634f7d269414611e39578063504006ca14611c535780635ffd9b521461199157806370687166146118cf578063717a14b61461177e578063724dfc921461175657806374bf20dd14611627578063787dce3d1461156e5780638da5cb5b1461154757806390d3b379146115205780639403b07c146114c157806394a0bec5146113ea57806398a51855146113b7578063a622ee7c146112f8578063ab7b1c89146110f3578063ac958041146110d5578063acbd44ad14610b13578063b1a25c9414610af5578063bf6b874e14610abd578063c41c3ac514610a96578063c7477223146109ee578063ccdd9f5d14610723578063e1ec3c6814610654578063e3ed1902146105fd578063eee8b7ff1461057b578063f2f85c061461055d578063f340fa011461043f578063f3fef3a31461028f578063f77e69ce146102735763ff2c682c146101cb575f80fd5b34610270576020600319360112610270576001600160a01b036101ec6124b6565b6101fb82600154163314612747565b16801561022c577fffffffffffffffffffffffff000000000000000000000000000000000000000082541617815580f35b606460405162461bcd60e51b815260206004820152601560248201527f41444c563a20496e76616c6964206164647265737300000000000000000000006044820152fd5b80fd5b5034610270578060031936011261027057602060405160028152f35b5034610270576040600319360112610270576102a96124b6565b6001600160a01b03602435911680835260096020526102d160ff600a60408620015416612637565b808352600f602052604083206001600160a01b0333165f526020528160405f2054106103fb578083526009602052604083209160038301600461032b610318835485612704565b8588526010602052604088205490612682565b94019061033b858354101561287b565b838652600f602052604086206001600160a01b0333165f5260205260405f20610365848254612792565b905583865260106020526040862061037e848254612792565b905561038b858254612792565b9055610398848254612792565b905583808480156103f1575b8280929181923390f1156103e65760405192835260208301527f91fb9d98b786c57d74c099ccd2beca1739e9f6a81fb49001ca465c4b7591bbe260403393a380f35b6040513d85823e3d90fd5b6108fc91506103a4565b606460405162461bcd60e51b815260206004820152601960248201527f41444c563a20496e73756666696369656e7420736861726573000000000000006044820152fd5b506020600319360112610270576020906001600160a01b0361045f6124b6565b168082526009835261047a60ff600a60408520015416612637565b610485341515612823565b8082526009835260046040832060038101805480155f146105385750604034955b858152600f88528181206001600160a01b0333165f528852815f206104cc88825461286e565b905585815260108852206104e186825461286e565b90556104ee34825461286e565b9055016104fc34825461286e565b90556040519034825282848301527ff5681f9d0db1b911ac18ee83d515a1cf1051853a9eae418316a2fdf7dea427c560403393a3604051908152f35b610557604091868852601089526105528389205434612704565b612682565b956104a6565b50346102705780600319360112610270576020600554604051908152f35b5034610270576020600319360112610270576001600160a01b0361059d6124b6565b168152600c60205260408120604051918260208354918281520192825260208220915b8181106105e7576105e3856105d7818703826125bb565b6040519182918261250e565b0390f35b82548452602090930192600192830192016105c0565b5034610270576040600319360112610270576106176124b6565b6001600160a01b03168152600c602052604081208054602435929083101561027057602061064584846124cc565b90549060031b1c604051908152f35b50346102705760206003193601126102705760406101a0916004358152600a602052206107218154916001600160a01b03600182015416906001600160a01b036002820154166003820154600483015460058401546006850154600786015491600887015493600988015495600a8901549760ff600c600b8c01549b0154169a60206040519e8f908152015260408d015260608c015260808b015260a08a015260c089015260e0880152610100870152610120860152610140850152610160840152610180830190612547565bf35b503461027057602060031936011261027057600435808252600a60205260408220600c810160ff81541660058110156109c157600161076291146127d8565b6009820154421190811561097d5760018301916001600160a01b0383541686526009602052600160408720015460206001600160a01b03885416916024604051809481937f4d32d69100000000000000000000000000000000000000000000000000000000835260048301525afa90811561097257879161093c575b506003850154908160011b918083046002149015171561090f5710908115610907575b50156108c357600460ff198254161790556001600160a01b0381541684526009602052600660408520018054905f198201918211610896575583808080600486015481811561088d575b3390f1156103e65760026001600160a01b038092541692015416907fd4bfdcd3d7029abe0d70d4a6f1f560c5eac8d3cd6ecef801c6d3d67a49be60688480a480f35b506108fc61084b565b6024867f4e487b710000000000000000000000000000000000000000000000000000000081526011600452fd5b606460405162461bcd60e51b815260206004820152601b60248201527f41444c563a204c6f616e206e6f74206c6971756964617461626c6500000000006044820152fd5b90505f610801565b6024887f4e487b710000000000000000000000000000000000000000000000000000000081526011600452fd5b90506020813d60201161096a575b81610957602093836125bb565b8101031261096657515f6107de565b5f80fd5b3d915061094a565b6040513d89823e3d90fd5b606460405162461bcd60e51b815260206004820152601660248201527f41444c563a204c6f616e206e6f742065787069726564000000000000000000006044820152fd5b6024857f4e487b710000000000000000000000000000000000000000000000000000000081526021600452fd5b503461027057604060031936011261027057610a166001600160a01b03600154163314612747565b806001600160a01b03815416803b15610a93578180916044604051809481937f86b58b73000000000000000000000000000000000000000000000000000000008352600435600484015260243560248401525af18015610a8857610a775750f35b81610a81916125bb565b6102705780f35b6040513d84823e3d90fd5b50fd5b503461027057806003193601126102705760206001600160a01b0360025416604051908152f35b50346102705760206003193601126102705760406020916001600160a01b03610ae46124b6565b168152601083522054604051908152f35b50346102705780600319360112610270576020600454604051908152f35b50608060031936011261027057610b286124b6565b9060243591604435906001600160a01b036064359116918284526009602052610b5a60ff600a60408720015416612637565b82845260096020526040842060018101549460206001600160a01b03825416966024604051809981937f4d32d69100000000000000000000000000000000000000000000000000000000835260048301525afa9586156110c8578196611094575b508660011b8715908881046002148217156110675787106110235760048301610be7898254101561287b565b610bf08861279f565b93612710610c006006548c612704565b043410610fdf576007548099610c15826125fc565b6007558b86610c248a4261286e565b8c60405194610c328661259e565b868652602086019182528c8c604088013381526060890188815260808a019134835260a08b0193845260c08b0194855260e08b019586526101008b01964288526101208c019889526101408c0199808b526101608d019b8c526101808d019d60018f528152600a602052604090209b518c55516001600160a01b031660018c01906001600160a01b031681547fffffffffffffffffffffffff000000000000000000000000000000000000000016179055516001600160a01b031660028b01906001600160a01b031681547fffffffffffffffffffffffff0000000000000000000000000000000000000000161790555160038a015551600489015551600588015551600687015551600786015551600885015551600984015551600a83015551600b820155600c0190516005811015610fb257906006929160ff60ff198354169116179055888552600b602052610d8d8a604087206128c6565b338552600c602052610da28a604087206128c6565b60058101610db18c825461286e565b90550180549060018201809211610f855755610dce898254612792565b905584158015610f7a575b15610e5e578190888291610e54575b8280929181923390f115610e48575091849391602096935b60405194855234888601526040850152606084015260808301527fa6efe75e779d75c642d0ca7479a20b0ff0054df737eea7ccb5db7dc87832cce260a03393a4604051908152f35b604051903d90823e3d90fd5b6108fc9150610de8565b50959392919060405160a0810181811067ffffffffffffffff821117610f4d579787610f1660038299989796959460209c6040523381528c81018a815260408201908982526001600160a01b038060406060860199808b526080870199818b5281526020600e905220945116167fffffffffffffffffffffffff00000000000000000000000000000000000000008454161783555160018301555160028201550192511515839060ff60ff1983541691151516179055565b5181547fffffffffffffffffffffffffffffffffffffffffffffffffffffffffffff00ff1690151560081b61ff0016179055610e00565b6024897f4e487b710000000000000000000000000000000000000000000000000000000081526041600452fd5b506105238514610dd9565b6024857f4e487b710000000000000000000000000000000000000000000000000000000081526011600452fd5b6024867f4e487b710000000000000000000000000000000000000000000000000000000081526021600452fd5b606460405162461bcd60e51b815260206004820152601d60248201527f41444c563a20496e73756666696369656e7420636f6c6c61746572616c0000006044820152fd5b606460405162461bcd60e51b815260206004820152601660248201527f41444c563a20496e73756666696369656e7420435653000000000000000000006044820152fd5b6024837f4e487b710000000000000000000000000000000000000000000000000000000081526011600452fd5b9095506020813d6020116110c0575b816110b0602093836125bb565b810103126109665751945f610bbb565b3d91506110a3565b50604051903d90823e3d90fd5b50346102705780600319360112610270576020600854604051908152f35b50602060031936011261027057600435808252600a60205260408220600c810160ff81541660058110156109c157600161112d91146127d8565b60028201916001600160a01b0383541633036112b45761114e341515612823565b61117e6003820154611178600584015461116c600886015442612792565b60068601549184612717565b9061286e565b600a8201805461118e8184612792565b341061128f57505584600b820155600260ff19835416178255848080806001600160a01b03875416600486015490828215611286575bf11561127b576001905b01906001600160a01b038254168552600960205260ff6040862091600883016111f834825461286e565b90556004830161120934825461286e565b905554166005811015610fb25760021461125c575b506001600160a01b0380915416915416907fa6f6d5e50bc84f153a0d6a9f9b37780433f92dc32d7e10f975ab3831c36898fa6020604051348152a480f35b6006018054905f19820191821161089657556001600160a01b0361121e565b6040513d86823e3d90fd5b506108fc6111c4565b90600193926112a26112aa93349061286e565b809255612792565b600b8201556111ce565b606460405162461bcd60e51b815260206004820152601260248201527f41444c563a204e6f7420626f72726f77657200000000000000000000000000006044820152fd5b5034610270576020600319360112610270576040610160916001600160a01b036113206124b6565b1681526009602052206001600160a01b03815416906001810154906001600160a01b0360028201541660038201546004830154600584015460068501549160078601549360088701549560ff600a60098a015499015416986040519a8b5260208b015260408a01526060890152608088015260a087015260c086015260e08501526101008401526101208301521515610140820152f35b5034610270576020600319360112610270576001600160a01b0360406020926004358152600d8452205416604051908152f35b5034610270576020600319360112610270576001600160a01b0361140c6124b6565b61141b82600154163314612747565b16801561147d577fffffffffffffffffffffffff0000000000000000000000000000000000000000600254826001600160a01b0382167fd1d694172dd00fdffa107a26fb808bd53e3a5e17d874d5984acfd5aa788278e18680a3161760025580f35b606460405162461bcd60e51b815260206004820152601a60248201527f41444c563a20496e76616c696420627269646765206167656e740000000000006044820152fd5b5034610270576040600319360112610270576114db6124b6565b90602435916001600160a01b038316830361151c576001600160a01b039182604092168152600f6020522091165f52602052602060405f2054604051908152f35b5080fd5b503461027057602060031936011261027057602061153f60043561279f565b604051908152f35b503461027057806003193601126102705760206001600160a01b0360015416604051908152f35b5034610270576020600319360112610270576004356115996001600160a01b03600154163314612747565b6103e881116115e35780600355806127100390612710821161106757604682029082820460461490612710141715611067579060646115dd92049081600455612792565b60055580f35b606460405162461bcd60e51b815260206004820152601260248201527f41444c563a2046656520746f6f206869676800000000000000000000000000006044820152fd5b5034610270576040600319360112610270576004356116526001600160a01b036002541633146126b9565b808252600e60205260036040832001805460ff8116156117125760ff8160081c166116ce577fffffffffffffffffffffffffffffffffffffffffffffffffffffffffffff00ff61010091161790557e783e0a8ef4edc4b202998228f802a3e054048e65f3b4b06f88048f7c90836360206040516024358152a280f35b606460405162461bcd60e51b815260206004820152601760248201527f41444c563a20416c726561647920636f6e6669726d65640000000000000000006044820152fd5b606460405162461bcd60e51b815260206004820152601560248201527f41444c563a204e6f742079657420636c61696d656400000000000000000000006044820152fd5b503461027057608060031936011261027057602061153f606435604435602435600435612717565b5034610270576020600319360112610270576004356117a96001600160a01b036002541633146126b9565b808252600e6020526040822060018101918254801561188b57600383019081549160ff83166118475786809392819392600160ff198495161790556001600160a01b036002541682f1156103e6577f427f65001359494ff5b9dd4021b12948577c7b0c0194caefc99e0c21249d3dc660406001600160a01b03600254169360026001600160a01b03825416965491015482519182526020820152a480f35b606460405162461bcd60e51b815260206004820152601560248201527f41444c563a20416c726561647920636c61696d656400000000000000000000006044820152fd5b606460405162461bcd60e51b815260206004820152601760248201527f41444c563a204e6f2070656e64696e67206272696467650000000000000000006044820152fd5b5034610270576020600319360112610270576001600160a01b036118f16124b6565b168152600960205260016040822001549060206001600160a01b03825416926024604051809581937f4d32d69100000000000000000000000000000000000000000000000000000000835260048301525afa908115610e48579061195e575b6020906040519060011c8152f35b506020813d602011611989575b81611978602093836125bb565b810103126109665760209051611950565b3d915061196b565b506060600319360112610966576119a66124b6565b60243567ffffffffffffffff811161096657366023820112156109665780600401359167ffffffffffffffff8311610966573660248484010111610966576001600160a01b0316805f526009602052611a0860ff600a60405f20015416612637565b3415611c0f575f81815260096020526040902060018101546003549093919061271090611a359034612704565b0490612710611a4660045434612704565b0491611a5b83611a568334612792565b612792565b6001600160a01b035f5416803b15610966575f80916044604051809481937f12149e420000000000000000000000000000000000000000000000000000000083528d60048401528760248401525af18015611c0457611be9575b508291899493916007869301611acc82825461286e565b905560038401611add82825461286e565b9055611aee6004850191825461286e565b90558015908115611bb8575b5050508115908115611b85575b505050507fb95b9670f342744ee734fb423b9c01db040b4a0aad1b1a3c2704d8a42478d3f990846024604051923484526040602085015282604085015201606083013785606086830101526060817fffffffffffffffffffffffffffffffffffffffffffffffffffffffffffffffe0601f339801168101030190a480f35b839283926001600160a01b0360028594015416908390611baf575bf11561127b57845f8080611b07565b506108fc611ba0565b8280929181926001600160a01b0360015416908390611be0575bf115610a8857825f80611afa565b506108fc611bd2565b611bf99194939299505f906125bb565b5f979091925f611ab5565b6040513d5f823e3d90fd5b606460405162461bcd60e51b815260206004820152601360248201527f41444c563a20496e76616c6964207072696365000000000000000000000000006044820152fd5b34610966576020600319360112610966575f610180604051611c748161259e565b8281528260208201528260408201528260608201528260808201528260a08201528260c08201528260e08201528261010082015282610120820152826101408201528261016082015201526004355f52600a60205260405f2060405190611cda8261259e565b80548252816001600160a01b0360018301541691602082019283526001600160a01b0360028201541660408301908152600382015460608401908152600483015460808501908152600584015460a0860190815260068501549060c0870191825260078601549260e0880193845260088701549461010089019586526009880154966101208a0197885260ff600c600a8b01549a6101408d019b8c52610160600b8201549d019c8d520154169a6101808d019b6005811015611e0c578c526040519c518d52516001600160a01b031660208d0152516001600160a01b031660408c01525160608b01525160808a01525160a08901525160c08801525160e087015251610100860152516101208501525161014084015251610160830152516101808201611e0691612547565b6101a090f35b7f4e487b71000000000000000000000000000000000000000000000000000000005f52602160045260245ffd5b34610966576020600319360112610966576001600160a01b03611e5a6124b6565b165f52600b60205260405f206040519081602082549182815201915f5260205f20905f5b818110611e95576105e3856105d7818703826125bb565b8254845260209093019260019283019201611e7e565b34610966576020600319360112610966576004355f908152600e602090815260409182902080546001820154600283015460039093015485516001600160a01b039093168352938201529283015260ff8082161515606084015260089190911c161515608082015260a090f35b34610966575f600319360112610966576020600354604051908152f35b34610966575f600319360112610966576020600754604051908152f35b34610966575f600319360112610966576020600654604051908152f35b3461096657602060031936011261096657600435805f52600d6020526001600160a01b0360405f20541661221357602460206001600160a01b035f5416604051928380927f4d32d6910000000000000000000000000000000000000000000000000000000082528660048301525afa908115611c04575f916121e1575b506008549160405160208101904282523360601b6040820152826054820152846074820152607481526120206094826125bb565b5190206001600160a01b031692612036906125fc565b60085560405161204581612554565b8381526020810182815260408201338152606083015f8152608084015f815260a085015f815260c08601905f825260e08701925f84526101008801945f86526101208901964288526101408a019860018a528d5f52600960205260405f209a516001600160a01b03166001600160a01b03168b547fffffffffffffffffffffffff000000000000000000000000000000000000000016178b555160018b0155516001600160a01b031660028a01906001600160a01b031681547fffffffffffffffffffffffff00000000000000000000000000000000000000001617905551600389015551600488015551600587015551600686015551600785015551600884015551600983015551151590600a019061216b919060ff60ff1983541691151516179055565b805f52600d60205260405f206001600160a01b03841681547fffffffffffffffffffffffff00000000000000000000000000000000000000001617905560405191825282339260207fb1df0c72509178f65ecefcf11e5c46f18b71416215d3199b946f98f318a85f2f91a4604051908152602090f35b90506020813d60201161220b575b816121fc602093836125bb565b81010312610966575182611fec565b3d91506121ef565b606460405162461bcd60e51b815260206004820152601a60248201527f41444c563a205661756c7420616c7265616479206578697374730000000000006044820152fd5b34610966576040600319360112610966576122706124b6565b6001600160a01b0360243591165f52600b60205260405f20805482101561096657602091610645916124cc565b34610966575f6003193601126109665760206001600160a01b035f5416604051908152f35b34610966576020600319360112610966576001600160a01b036122e36124b6565b5f6101406040516122f381612554565b8281528260208201528260408201528260608201528260808201528260a08201528260c08201528260e082015282610100820152826101208201520152165f52600960205261016060405f2060405161234b81612554565b80806001600160a01b03845416938482526001810154602083019081526001600160a01b0360028301541660408401908152600383015460608501908152600484015490608086019182526001600160a01b0360058601549360a0880194855260068701549560c0890196875261014060ff600a60078b01549a60e08d019b8c5261010060088201549d019c8d5261012060098201549e019d8e520154169b019a15158b526040519b8c525160208c0152511660408a01525160608901525160808801525160a08701525160c08601525160e08501525161010084015251610120830152511515610140820152f35b34610966576020600319360112610966576004355f52600e602052806105e360405f206001600160a01b03815416600182015491600360028201549101549260ff808560081c16941692869390959491926080936001600160a01b0360a087019816865260208601526040850152151560608401521515910152565b600435906001600160a01b038216820361096657565b80548210156124e1575f5260205f2001905f90565b7f4e487b71000000000000000000000000000000000000000000000000000000005f52603260045260245ffd5b60206040818301928281528451809452019201905f5b8181106125315750505090565b8251845260209384019390920191600101612524565b906005821015611e0c5752565b610160810190811067ffffffffffffffff82111761257157604052565b7f4e487b71000000000000000000000000000000000000000000000000000000005f52604160045260245ffd5b6101a0810190811067ffffffffffffffff82111761257157604052565b90601f7fffffffffffffffffffffffffffffffffffffffffffffffffffffffffffffffe0910116810190811067ffffffffffffffff82111761257157604052565b5f19811461260a5760010190565b7f4e487b71000000000000000000000000000000000000000000000000000000005f52601160045260245ffd5b1561263e57565b606460405162461bcd60e51b815260206004820152601a60248201527f41444c563a205661756c7420646f6573206e6f742065786973740000000000006044820152fd5b811561268c570490565b7f4e487b71000000000000000000000000000000000000000000000000000000005f52601260045260245ffd5b156126c057565b606460405162461bcd60e51b815260206004820152601760248201527f41444c563a204f6e6c7920627269646765206167656e740000000000000000006044820152fd5b8181029291811591840414171561260a57565b61272a929161272591612704565b612704565b9080612710029061271082040361260a5761274491612682565b90565b1561274e57565b606460405162461bcd60e51b815260206004820152601060248201527f41444c563a204f6e6c79206f776e6572000000000000000000000000000000006044820152fd5b9190820391821161260a57565b60649004806107d0115f146127cf576107d0036107d0811161260a575b6101f481106127c85790565b506101f490565b506101f46127bc565b156127df57565b606460405162461bcd60e51b815260206004820152601560248201527f41444c563a204c6f616e206e6f742061637469766500000000000000000000006044820152fd5b1561282a57565b606460405162461bcd60e51b815260206004820152601460248201527f41444c563a20496e76616c696420616d6f756e740000000000000000000000006044820152fd5b9190820180921161260a57565b1561288257565b606460405162461bcd60e51b815260206004820152601c60248201527f41444c563a20496e73756666696369656e74206c6971756964697479000000006044820152fd5b805468010000000000000000811015612571576128e8916001820181556124cc565b5f19829392549160031b92831b921b191617905556fea26469706673582212204ea8e34a9b8a6dfec079f81fcc14bd4bd7edd84fcd7629d390d88d9a4950638f64736f6c634300081e0033","linkReferences":{}},"methodIdentifiers":{"MIN_CVS_RATIO()":"f77e69ce","borrowerLoans(address,uint256)":"e3ed1902","bridgeAgent()":"c41c3ac5","calculateInterest(uint256,uint256,uint256,uint256)":"724dfc92","calculateInterestRate(uint256)":"90d3b379","calculateMaxLoanAmount(address)":"70687166","claimForBridge(uint256)":"717a14b6","confirmBridge(uint256,bytes32)":"74bf20dd","createVault(bytes32)":"17799f36","creatorShareBps()":"b1a25c94","defaultCollateralRatio()":"1cfe28dd","deposit(address)":"f340fa01","depositorShares(address,address)":"9403b07c","getBorrowerLoans(address)":"eee8b7ff","getLoan(uint256)":"504006ca","getPendingBridge(uint256)":"377a91ce","getVault(address)":"0eb9af38","getVaultLoans(address)":"4f7d2694","idoContract()":"116f71ac","ipToVault(bytes32)":"98a51855","issueLoan(address,uint256,uint256,uint256)":"acbd44ad","liquidateLoan(uint256)":"ccdd9f5d","loanCounter()":"34d9289e","loans(uint256)":"e1ec3c68","owner()":"8da5cb5b","pendingBridges(uint256)":"022dda40","protocolFeeBps()":"35659fb8","repayLoan(uint256)":"ab7b1c89","sellLicense(address,string,uint256)":"5ffd9b52","setBridgeAgent(address)":"94a0bec5","setIDOContract(address)":"ff2c682c","setProtocolFee(uint256)":"787dce3d","totalShares(address)":"bf6b874e","updateIPCVS(bytes32,uint256)":"c7477223","vaultCounter()":"ac958041","vaultLoans(address,uint256)":"1518405e","vaultShareBps()":"f2f85c06","vaults(address)":"a622ee7c","withdraw(address,uint256)":"f3fef3a3"},"id":49}