{
  "abi": [
    {
      "type": "constructor",
      "inputs": [
        {
          "name": "_idoContract",
          "type": "address",
          "internalType": "address"
        },
        {
          "name": "_storySPG",
          "type": "address",
          "internalType": "address"
        },
        {
          "name": "_storyIPAssetRegistry",
          "type": "address",
          "internalType": "address"
        },
        {
          "name": "_storyLicenseRegistry",
          "type": "address",
          "internalType": "address"
        },
        {
          "name": "_loanNFT",
          "type": "address",
          "internalType": "address"
        },
        {
          "name": "_lendingModule",
          "type": "address",
          "internalType": "address"
        }
      ],
      "stateMutability": "nonpayable"
    },
    {
      "type": "function",
      "name": "LIQUIDATION_THRESHOLD",
      "inputs": [],
      "outputs": [
        {
          "name": "",
          "type": "uint256",
          "internalType": "uint256"
        }
      ],
      "stateMutability": "view"
    },
    {
      "type": "function",
      "name": "MIN_CVS_RATIO",
      "inputs": [],
      "outputs": [
        {
          "name": "",
          "type": "uint256",
          "internalType": "uint256"
        }
      ],
      "stateMutability": "view"
    },
    {
      "type": "function",
      "name": "MIN_HEALTH_FACTOR",
      "inputs": [],
      "outputs": [
        {
          "name": "",
          "type": "uint256",
          "internalType": "uint256"
        }
      ],
      "stateMutability": "view"
    },
    {
      "type": "function",
      "name": "borrowerLoans",
      "inputs": [
        {
          "name": "",
          "type": "address",
          "internalType": "address"
        },
        {
          "name": "",
          "type": "uint256",
          "internalType": "uint256"
        }
      ],
      "outputs": [
        {
          "name": "",
          "type": "uint256",
          "internalType": "uint256"
        }
      ],
      "stateMutability": "view"
    },
    {
      "type": "function",
      "name": "calculateAccruedInterest",
      "inputs": [
        {
          "name": "loanId",
          "type": "uint256",
          "internalType": "uint256"
        }
      ],
      "outputs": [
        {
          "name": "interest",
          "type": "uint256",
          "internalType": "uint256"
        }
      ],
      "stateMutability": "view"
    },
    {
      "type": "function",
      "name": "calculateInterest",
      "inputs": [
        {
          "name": "principal",
          "type": "uint256",
          "internalType": "uint256"
        },
        {
          "name": "rate",
          "type": "uint256",
          "internalType": "uint256"
        },
        {
          "name": "elapsedTime",
          "type": "uint256",
          "internalType": "uint256"
        },
        {
          "name": "duration",
          "type": "uint256",
          "internalType": "uint256"
        }
      ],
      "outputs": [
        {
          "name": "",
          "type": "uint256",
          "internalType": "uint256"
        }
      ],
      "stateMutability": "pure"
    },
    {
      "type": "function",
      "name": "calculateInterestRate",
      "inputs": [
        {
          "name": "cvs",
          "type": "uint256",
          "internalType": "uint256"
        }
      ],
      "outputs": [
        {
          "name": "",
          "type": "uint256",
          "internalType": "uint256"
        }
      ],
      "stateMutability": "pure"
    },
    {
      "type": "function",
      "name": "calculateMaxLoanAmount",
      "inputs": [
        {
          "name": "vaultAddress",
          "type": "address",
          "internalType": "address"
        }
      ],
      "outputs": [
        {
          "name": "",
          "type": "uint256",
          "internalType": "uint256"
        }
      ],
      "stateMutability": "view"
    },
    {
      "type": "function",
      "name": "claimRoyalties",
      "inputs": [
        {
          "name": "vaultAddress",
          "type": "address",
          "internalType": "address"
        }
      ],
      "outputs": [
        {
          "name": "claimedAmount",
          "type": "uint256",
          "internalType": "uint256"
        }
      ],
      "stateMutability": "nonpayable"
    },
    {
      "type": "function",
      "name": "createVault",
      "inputs": [
        {
          "name": "ipId",
          "type": "bytes32",
          "internalType": "bytes32"
        }
      ],
      "outputs": [
        {
          "name": "vaultAddress",
          "type": "address",
          "internalType": "address"
        }
      ],
      "stateMutability": "nonpayable"
    },
    {
      "type": "function",
      "name": "creatorShareBps",
      "inputs": [],
      "outputs": [
        {
          "name": "",
          "type": "uint256",
          "internalType": "uint256"
        }
      ],
      "stateMutability": "view"
    },
    {
      "type": "function",
      "name": "defaultCollateralRatio",
      "inputs": [],
      "outputs": [
        {
          "name": "",
          "type": "uint256",
          "internalType": "uint256"
        }
      ],
      "stateMutability": "view"
    },
    {
      "type": "function",
      "name": "defaultLoanTerms",
      "inputs": [],
      "outputs": [
        {
          "name": "minLoanAmount",
          "type": "uint256",
          "internalType": "uint256"
        },
        {
          "name": "maxLoanAmount",
          "type": "uint256",
          "internalType": "uint256"
        },
        {
          "name": "minDuration",
          "type": "uint256",
          "internalType": "uint256"
        },
        {
          "name": "maxDuration",
          "type": "uint256",
          "internalType": "uint256"
        },
        {
          "name": "minCollateralRatio",
          "type": "uint256",
          "internalType": "uint256"
        },
        {
          "name": "liquidationPenalty",
          "type": "uint256",
          "internalType": "uint256"
        },
        {
          "name": "baseInterestRate",
          "type": "uint256",
          "internalType": "uint256"
        },
        {
          "name": "allowIPCollateral",
          "type": "bool",
          "internalType": "bool"
        }
      ],
      "stateMutability": "view"
    },
    {
      "type": "function",
      "name": "deposit",
      "inputs": [
        {
          "name": "vaultAddress",
          "type": "address",
          "internalType": "address"
        }
      ],
      "outputs": [
        {
          "name": "shares",
          "type": "uint256",
          "internalType": "uint256"
        }
      ],
      "stateMutability": "payable"
    },
    {
      "type": "function",
      "name": "depositorShares",
      "inputs": [
        {
          "name": "",
          "type": "address",
          "internalType": "address"
        },
        {
          "name": "",
          "type": "address",
          "internalType": "address"
        }
      ],
      "outputs": [
        {
          "name": "",
          "type": "uint256",
          "internalType": "uint256"
        }
      ],
      "stateMutability": "view"
    },
    {
      "type": "function",
      "name": "derivativeToParentVault",
      "inputs": [
        {
          "name": "",
          "type": "address",
          "internalType": "address"
        }
      ],
      "outputs": [
        {
          "name": "",
          "type": "address",
          "internalType": "address"
        }
      ],
      "stateMutability": "view"
    },
    {
      "type": "function",
      "name": "getBorrowerLoans",
      "inputs": [
        {
          "name": "borrower",
          "type": "address",
          "internalType": "address"
        }
      ],
      "outputs": [
        {
          "name": "",
          "type": "uint256[]",
          "internalType": "uint256[]"
        }
      ],
      "stateMutability": "view"
    },
    {
      "type": "function",
      "name": "getDerivativeVaults",
      "inputs": [
        {
          "name": "parentVaultAddress",
          "type": "address",
          "internalType": "address"
        }
      ],
      "outputs": [
        {
          "name": "derivatives",
          "type": "address[]",
          "internalType": "address[]"
        }
      ],
      "stateMutability": "view"
    },
    {
      "type": "function",
      "name": "getIPAccountByStoryIPId",
      "inputs": [
        {
          "name": "storyIPId",
          "type": "string",
          "internalType": "string"
        }
      ],
      "outputs": [
        {
          "name": "ipAccount",
          "type": "address",
          "internalType": "address"
        }
      ],
      "stateMutability": "view"
    },
    {
      "type": "function",
      "name": "getLicenseInfo",
      "inputs": [
        {
          "name": "licenseId",
          "type": "string",
          "internalType": "string"
        }
      ],
      "outputs": [
        {
          "name": "ipId",
          "type": "string",
          "internalType": "string"
        },
        {
          "name": "licenseType",
          "type": "string",
          "internalType": "string"
        },
        {
          "name": "licensee",
          "type": "address",
          "internalType": "address"
        },
        {
          "name": "licensor",
          "type": "address",
          "internalType": "address"
        },
        {
          "name": "price",
          "type": "uint256",
          "internalType": "uint256"
        },
        {
          "name": "registeredAt",
          "type": "uint256",
          "internalType": "uint256"
        }
      ],
      "stateMutability": "view"
    },
    {
      "type": "function",
      "name": "getLoan",
      "inputs": [
        {
          "name": "loanId",
          "type": "uint256",
          "internalType": "uint256"
        }
      ],
      "outputs": [
        {
          "name": "",
          "type": "tuple",
          "internalType": "struct ADLVWithStory.Loan",
          "components": [
            {
              "name": "loanId",
              "type": "uint256",
              "internalType": "uint256"
            },
            {
              "name": "vaultAddress",
              "type": "address",
              "internalType": "address"
            },
            {
              "name": "borrower",
              "type": "address",
              "internalType": "address"
            },
            {
              "name": "loanAmount",
              "type": "uint256",
              "internalType": "uint256"
            },
            {
              "name": "collateralAmount",
              "type": "uint256",
              "internalType": "uint256"
            },
            {
              "name": "ipCollateral",
              "type": "address",
              "internalType": "address"
            },
            {
              "name": "ipCollateralValue",
              "type": "uint256",
              "internalType": "uint256"
            },
            {
              "name": "interestRate",
              "type": "uint256",
              "internalType": "uint256"
            },
            {
              "name": "duration",
              "type": "uint256",
              "internalType": "uint256"
            },
            {
              "name": "cvsAtIssuance",
              "type": "uint256",
              "internalType": "uint256"
            },
            {
              "name": "startTime",
              "type": "uint256",
              "internalType": "uint256"
            },
            {
              "name": "endTime",
              "type": "uint256",
              "internalType": "uint256"
            },
            {
              "name": "repaidAmount",
              "type": "uint256",
              "internalType": "uint256"
            },
            {
              "name": "outstandingAmount",
              "type": "uint256",
              "internalType": "uint256"
            },
            {
              "name": "accruedInterest",
              "type": "uint256",
              "internalType": "uint256"
            },
            {
              "name": "healthFactor",
              "type": "uint256",
              "internalType": "uint256"
            },
            {
              "name": "liquidationThreshold",
              "type": "uint256",
              "internalType": "uint256"
            },
            {
              "name": "status",
              "type": "uint8",
              "internalType": "enum ADLVWithStory.LoanStatus"
            }
          ]
        }
      ],
      "stateMutability": "view"
    },
    {
      "type": "function",
      "name": "getLoanDetails",
      "inputs": [
        {
          "name": "loanId",
          "type": "uint256",
          "internalType": "uint256"
        }
      ],
      "outputs": [
        {
          "name": "loan",
          "type": "tuple",
          "internalType": "struct ADLVWithStory.Loan",
          "components": [
            {
              "name": "loanId",
              "type": "uint256",
              "internalType": "uint256"
            },
            {
              "name": "vaultAddress",
              "type": "address",
              "internalType": "address"
            },
            {
              "name": "borrower",
              "type": "address",
              "internalType": "address"
            },
            {
              "name": "loanAmount",
              "type": "uint256",
              "internalType": "uint256"
            },
            {
              "name": "collateralAmount",
              "type": "uint256",
              "internalType": "uint256"
            },
            {
              "name": "ipCollateral",
              "type": "address",
              "internalType": "address"
            },
            {
              "name": "ipCollateralValue",
              "type": "uint256",
              "internalType": "uint256"
            },
            {
              "name": "interestRate",
              "type": "uint256",
              "internalType": "uint256"
            },
            {
              "name": "duration",
              "type": "uint256",
              "internalType": "uint256"
            },
            {
              "name": "cvsAtIssuance",
              "type": "uint256",
              "internalType": "uint256"
            },
            {
              "name": "startTime",
              "type": "uint256",
              "internalType": "uint256"
            },
            {
              "name": "endTime",
              "type": "uint256",
              "internalType": "uint256"
            },
            {
              "name": "repaidAmount",
              "type": "uint256",
              "internalType": "uint256"
            },
            {
              "name": "outstandingAmount",
              "type": "uint256",
              "internalType": "uint256"
            },
            {
              "name": "accruedInterest",
              "type": "uint256",
              "internalType": "uint256"
            },
            {
              "name": "healthFactor",
              "type": "uint256",
              "internalType": "uint256"
            },
            {
              "name": "liquidationThreshold",
              "type": "uint256",
              "internalType": "uint256"
            },
            {
              "name": "status",
              "type": "uint8",
              "internalType": "enum ADLVWithStory.LoanStatus"
            }
          ]
        },
        {
          "name": "currentHealth",
          "type": "uint256",
          "internalType": "uint256"
        },
        {
          "name": "currentDebt",
          "type": "uint256",
          "internalType": "uint256"
        }
      ],
      "stateMutability": "view"
    },
    {
      "type": "function",
      "name": "getLoansByIPCollateral",
      "inputs": [
        {
          "name": "ipAsset",
          "type": "address",
          "internalType": "address"
        }
      ],
      "outputs": [
        {
          "name": "",
          "type": "uint256[]",
          "internalType": "uint256[]"
        }
      ],
      "stateMutability": "view"
    },
    {
      "type": "function",
      "name": "getParentVault",
      "inputs": [
        {
          "name": "derivativeVaultAddress",
          "type": "address",
          "internalType": "address"
        }
      ],
      "outputs": [
        {
          "name": "parentVaultAddress",
          "type": "address",
          "internalType": "address"
        }
      ],
      "stateMutability": "view"
    },
    {
      "type": "function",
      "name": "getPendingRevenue",
      "inputs": [
        {
          "name": "vaultAddress",
          "type": "address",
          "internalType": "address"
        }
      ],
      "outputs": [
        {
          "name": "pendingAmount",
          "type": "uint256",
          "internalType": "uint256"
        }
      ],
      "stateMutability": "view"
    },
    {
      "type": "function",
      "name": "getStoryIPId",
      "inputs": [
        {
          "name": "vaultAddress",
          "type": "address",
          "internalType": "address"
        }
      ],
      "outputs": [
        {
          "name": "storyIPId",
          "type": "string",
          "internalType": "string"
        }
      ],
      "stateMutability": "view"
    },
    {
      "type": "function",
      "name": "getVault",
      "inputs": [
        {
          "name": "vaultAddress",
          "type": "address",
          "internalType": "address"
        }
      ],
      "outputs": [
        {
          "name": "",
          "type": "tuple",
          "internalType": "struct ADLVWithStory.Vault",
          "components": [
            {
              "name": "vaultAddress",
              "type": "address",
              "internalType": "address"
            },
            {
              "name": "ipId",
              "type": "bytes32",
              "internalType": "bytes32"
            },
            {
              "name": "storyIPId",
              "type": "string",
              "internalType": "string"
            },
            {
              "name": "creator",
              "type": "address",
              "internalType": "address"
            },
            {
              "name": "totalLiquidity",
              "type": "uint256",
              "internalType": "uint256"
            },
            {
              "name": "availableLiquidity",
              "type": "uint256",
              "internalType": "uint256"
            },
            {
              "name": "totalLoansIssued",
              "type": "uint256",
              "internalType": "uint256"
            },
            {
              "name": "activeLoansCount",
              "type": "uint256",
              "internalType": "uint256"
            },
            {
              "name": "totalLicenseRevenue",
              "type": "uint256",
              "internalType": "uint256"
            },
            {
              "name": "totalLoanRepayments",
              "type": "uint256",
              "internalType": "uint256"
            },
            {
              "name": "createdAt",
              "type": "uint256",
              "internalType": "uint256"
            },
            {
              "name": "exists",
              "type": "bool",
              "internalType": "bool"
            },
            {
              "name": "registeredOnStory",
              "type": "bool",
              "internalType": "bool"
            }
          ]
        }
      ],
      "stateMutability": "view"
    },
    {
      "type": "function",
      "name": "getVaultByStoryIPId",
      "inputs": [
        {
          "name": "storyIPId",
          "type": "string",
          "internalType": "string"
        }
      ],
      "outputs": [
        {
          "name": "",
          "type": "address",
          "internalType": "address"
        }
      ],
      "stateMutability": "view"
    },
    {
      "type": "function",
      "name": "getVaultIPAccount",
      "inputs": [
        {
          "name": "vaultAddress",
          "type": "address",
          "internalType": "address"
        }
      ],
      "outputs": [
        {
          "name": "ipAccount",
          "type": "address",
          "internalType": "address"
        }
      ],
      "stateMutability": "view"
    },
    {
      "type": "function",
      "name": "getVaultLicenses",
      "inputs": [
        {
          "name": "vaultAddress",
          "type": "address",
          "internalType": "address"
        }
      ],
      "outputs": [
        {
          "name": "",
          "type": "string[]",
          "internalType": "string[]"
        }
      ],
      "stateMutability": "view"
    },
    {
      "type": "function",
      "name": "getVaultLoans",
      "inputs": [
        {
          "name": "vaultAddress",
          "type": "address",
          "internalType": "address"
        }
      ],
      "outputs": [
        {
          "name": "",
          "type": "uint256[]",
          "internalType": "uint256[]"
        }
      ],
      "stateMutability": "view"
    },
    {
      "type": "function",
      "name": "hasStoryIPId",
      "inputs": [
        {
          "name": "vaultAddress",
          "type": "address",
          "internalType": "address"
        }
      ],
      "outputs": [
        {
          "name": "isRegistered",
          "type": "bool",
          "internalType": "bool"
        }
      ],
      "stateMutability": "view"
    },
    {
      "type": "function",
      "name": "idoContract",
      "inputs": [],
      "outputs": [
        {
          "name": "",
          "type": "address",
          "internalType": "contract IDO"
        }
      ],
      "stateMutability": "view"
    },
    {
      "type": "function",
      "name": "interestRateModel",
      "inputs": [],
      "outputs": [
        {
          "name": "",
          "type": "uint8",
          "internalType": "enum ADLVWithStory.InterestRateModel"
        }
      ],
      "stateMutability": "view"
    },
    {
      "type": "function",
      "name": "ipCollateralLoans",
      "inputs": [
        {
          "name": "",
          "type": "address",
          "internalType": "address"
        },
        {
          "name": "",
          "type": "uint256",
          "internalType": "uint256"
        }
      ],
      "outputs": [
        {
          "name": "",
          "type": "uint256",
          "internalType": "uint256"
        }
      ],
      "stateMutability": "view"
    },
    {
      "type": "function",
      "name": "ipCollateralValue",
      "inputs": [
        {
          "name": "",
          "type": "address",
          "internalType": "address"
        }
      ],
      "outputs": [
        {
          "name": "",
          "type": "uint256",
          "internalType": "uint256"
        }
      ],
      "stateMutability": "view"
    },
    {
      "type": "function",
      "name": "ipToVault",
      "inputs": [
        {
          "name": "",
          "type": "bytes32",
          "internalType": "bytes32"
        }
      ],
      "outputs": [
        {
          "name": "",
          "type": "address",
          "internalType": "address"
        }
      ],
      "stateMutability": "view"
    },
    {
      "type": "function",
      "name": "isDerivativeVault",
      "inputs": [
        {
          "name": "vaultAddress",
          "type": "address",
          "internalType": "address"
        }
      ],
      "outputs": [
        {
          "name": "isDerivative",
          "type": "bool",
          "internalType": "bool"
        }
      ],
      "stateMutability": "view"
    },
    {
      "type": "function",
      "name": "isLoanLiquidatable",
      "inputs": [
        {
          "name": "loanId",
          "type": "uint256",
          "internalType": "uint256"
        }
      ],
      "outputs": [
        {
          "name": "isLiquidatable",
          "type": "bool",
          "internalType": "bool"
        },
        {
          "name": "reason",
          "type": "string",
          "internalType": "string"
        }
      ],
      "stateMutability": "view"
    },
    {
      "type": "function",
      "name": "issueLoan",
      "inputs": [
        {
          "name": "vaultAddress",
          "type": "address",
          "internalType": "address"
        },
        {
          "name": "loanAmount",
          "type": "uint256",
          "internalType": "uint256"
        },
        {
          "name": "duration",
          "type": "uint256",
          "internalType": "uint256"
        }
      ],
      "outputs": [
        {
          "name": "loanId",
          "type": "uint256",
          "internalType": "uint256"
        }
      ],
      "stateMutability": "payable"
    },
    {
      "type": "function",
      "name": "issueLoanWithIPCollateral",
      "inputs": [
        {
          "name": "vaultAddress",
          "type": "address",
          "internalType": "address"
        },
        {
          "name": "loanAmount",
          "type": "uint256",
          "internalType": "uint256"
        },
        {
          "name": "duration",
          "type": "uint256",
          "internalType": "uint256"
        },
        {
          "name": "ipCollateral",
          "type": "address",
          "internalType": "address"
        }
      ],
      "outputs": [
        {
          "name": "loanId",
          "type": "uint256",
          "internalType": "uint256"
        }
      ],
      "stateMutability": "payable"
    },
    {
      "type": "function",
      "name": "lendingModule",
      "inputs": [],
      "outputs": [
        {
          "name": "",
          "type": "address",
          "internalType": "address"
        }
      ],
      "stateMutability": "view"
    },
    {
      "type": "function",
      "name": "liquidateLoan",
      "inputs": [
        {
          "name": "loanId",
          "type": "uint256",
          "internalType": "uint256"
        }
      ],
      "outputs": [],
      "stateMutability": "nonpayable"
    },
    {
      "type": "function",
      "name": "liquidationFeeBps",
      "inputs": [],
      "outputs": [
        {
          "name": "",
          "type": "uint256",
          "internalType": "uint256"
        }
      ],
      "stateMutability": "view"
    },
    {
      "type": "function",
      "name": "loanCounter",
      "inputs": [],
      "outputs": [
        {
          "name": "",
          "type": "uint256",
          "internalType": "uint256"
        }
      ],
      "stateMutability": "view"
    },
    {
      "type": "function",
      "name": "loanNFT",
      "inputs": [],
      "outputs": [
        {
          "name": "",
          "type": "address",
          "internalType": "address"
        }
      ],
      "stateMutability": "view"
    },
    {
      "type": "function",
      "name": "loanToIPCollateral",
      "inputs": [
        {
          "name": "",
          "type": "uint256",
          "internalType": "uint256"
        }
      ],
      "outputs": [
        {
          "name": "",
          "type": "address",
          "internalType": "address"
        }
      ],
      "stateMutability": "view"
    },
    {
      "type": "function",
      "name": "loans",
      "inputs": [
        {
          "name": "",
          "type": "uint256",
          "internalType": "uint256"
        }
      ],
      "outputs": [
        {
          "name": "loanId",
          "type": "uint256",
          "internalType": "uint256"
        },
        {
          "name": "vaultAddress",
          "type": "address",
          "internalType": "address"
        },
        {
          "name": "borrower",
          "type": "address",
          "internalType": "address"
        },
        {
          "name": "loanAmount",
          "type": "uint256",
          "internalType": "uint256"
        },
        {
          "name": "collateralAmount",
          "type": "uint256",
          "internalType": "uint256"
        },
        {
          "name": "ipCollateral",
          "type": "address",
          "internalType": "address"
        },
        {
          "name": "ipCollateralValue",
          "type": "uint256",
          "internalType": "uint256"
        },
        {
          "name": "interestRate",
          "type": "uint256",
          "internalType": "uint256"
        },
        {
          "name": "duration",
          "type": "uint256",
          "internalType": "uint256"
        },
        {
          "name": "cvsAtIssuance",
          "type": "uint256",
          "internalType": "uint256"
        },
        {
          "name": "startTime",
          "type": "uint256",
          "internalType": "uint256"
        },
        {
          "name": "endTime",
          "type": "uint256",
          "internalType": "uint256"
        },
        {
          "name": "repaidAmount",
          "type": "uint256",
          "internalType": "uint256"
        },
        {
          "name": "outstandingAmount",
          "type": "uint256",
          "internalType": "uint256"
        },
        {
          "name": "accruedInterest",
          "type": "uint256",
          "internalType": "uint256"
        },
        {
          "name": "healthFactor",
          "type": "uint256",
          "internalType": "uint256"
        },
        {
          "name": "liquidationThreshold",
          "type": "uint256",
          "internalType": "uint256"
        },
        {
          "name": "status",
          "type": "uint8",
          "internalType": "enum ADLVWithStory.LoanStatus"
        }
      ],
      "stateMutability": "view"
    },
    {
      "type": "function",
      "name": "owner",
      "inputs": [],
      "outputs": [
        {
          "name": "",
          "type": "address",
          "internalType": "address"
        }
      ],
      "stateMutability": "view"
    },
    {
      "type": "function",
      "name": "protocolFeeBps",
      "inputs": [],
      "outputs": [
        {
          "name": "",
          "type": "uint256",
          "internalType": "uint256"
        }
      ],
      "stateMutability": "view"
    },
    {
      "type": "function",
      "name": "registerDerivativeIP",
      "inputs": [
        {
          "name": "parentVaultAddress",
          "type": "address",
          "internalType": "address"
        },
        {
          "name": "licenseId",
          "type": "uint256",
          "internalType": "uint256"
        },
        {
          "name": "name",
          "type": "string",
          "internalType": "string"
        },
        {
          "name": "contentHash",
          "type": "bytes32",
          "internalType": "bytes32"
        }
      ],
      "outputs": [
        {
          "name": "derivativeVaultAddress",
          "type": "address",
          "internalType": "address"
        },
        {
          "name": "derivativeIpId",
          "type": "address",
          "internalType": "address"
        }
      ],
      "stateMutability": "nonpayable"
    },
    {
      "type": "function",
      "name": "registerIPAndCreateVault",
      "inputs": [
        {
          "name": "ipId",
          "type": "bytes32",
          "internalType": "bytes32"
        },
        {
          "name": "ipAssetType",
          "type": "uint8",
          "internalType": "uint8"
        },
        {
          "name": "name",
          "type": "string",
          "internalType": "string"
        },
        {
          "name": "hash",
          "type": "bytes32",
          "internalType": "bytes32"
        },
        {
          "name": "registrationData",
          "type": "bytes",
          "internalType": "bytes"
        }
      ],
      "outputs": [
        {
          "name": "vaultAddress",
          "type": "address",
          "internalType": "address"
        },
        {
          "name": "storyIPId",
          "type": "string",
          "internalType": "string"
        }
      ],
      "stateMutability": "nonpayable"
    },
    {
      "type": "function",
      "name": "repayLoan",
      "inputs": [
        {
          "name": "loanId",
          "type": "uint256",
          "internalType": "uint256"
        }
      ],
      "outputs": [],
      "stateMutability": "payable"
    },
    {
      "type": "function",
      "name": "sellLicense",
      "inputs": [
        {
          "name": "vaultAddress",
          "type": "address",
          "internalType": "address"
        },
        {
          "name": "licenseType",
          "type": "string",
          "internalType": "string"
        },
        {
          "name": "",
          "type": "uint256",
          "internalType": "uint256"
        }
      ],
      "outputs": [
        {
          "name": "licenseId",
          "type": "string",
          "internalType": "string"
        }
      ],
      "stateMutability": "payable"
    },
    {
      "type": "function",
      "name": "sellLicenseWithSharing",
      "inputs": [
        {
          "name": "vaultAddress",
          "type": "address",
          "internalType": "address"
        },
        {
          "name": "licenseType",
          "type": "string",
          "internalType": "string"
        },
        {
          "name": "duration",
          "type": "uint256",
          "internalType": "uint256"
        }
      ],
      "outputs": [
        {
          "name": "licenseId",
          "type": "string",
          "internalType": "string"
        }
      ],
      "stateMutability": "payable"
    },
    {
      "type": "function",
      "name": "setIDOContract",
      "inputs": [
        {
          "name": "_idoContract",
          "type": "address",
          "internalType": "address"
        }
      ],
      "outputs": [],
      "stateMutability": "nonpayable"
    },
    {
      "type": "function",
      "name": "setProtocolFee",
      "inputs": [
        {
          "name": "_protocolFeeBps",
          "type": "uint256",
          "internalType": "uint256"
        }
      ],
      "outputs": [],
      "stateMutability": "nonpayable"
    },
    {
      "type": "function",
      "name": "setRoyaltyPolicy",
      "inputs": [
        {
          "name": "vaultAddress",
          "type": "address",
          "internalType": "address"
        },
        {
          "name": "beneficiary",
          "type": "address",
          "internalType": "address"
        },
        {
          "name": "royaltyPercentage",
          "type": "uint256",
          "internalType": "uint256"
        }
      ],
      "outputs": [],
      "stateMutability": "nonpayable"
    },
    {
      "type": "function",
      "name": "setStoryIPAssetRegistry",
      "inputs": [
        {
          "name": "_storyIPAssetRegistry",
          "type": "address",
          "internalType": "address"
        }
      ],
      "outputs": [],
      "stateMutability": "nonpayable"
    },
    {
      "type": "function",
      "name": "setStoryLicenseRegistry",
      "inputs": [
        {
          "name": "_storyLicenseRegistry",
          "type": "address",
          "internalType": "address"
        }
      ],
      "outputs": [],
      "stateMutability": "nonpayable"
    },
    {
      "type": "function",
      "name": "setStorySPG",
      "inputs": [
        {
          "name": "_storySPG",
          "type": "address",
          "internalType": "address"
        }
      ],
      "outputs": [],
      "stateMutability": "nonpayable"
    },
    {
      "type": "function",
      "name": "setVaultLoanTerms",
      "inputs": [
        {
          "name": "vaultAddress",
          "type": "address",
          "internalType": "address"
        },
        {
          "name": "terms",
          "type": "tuple",
          "internalType": "struct ADLVWithStory.LoanTerms",
          "components": [
            {
              "name": "minLoanAmount",
              "type": "uint256",
              "internalType": "uint256"
            },
            {
              "name": "maxLoanAmount",
              "type": "uint256",
              "internalType": "uint256"
            },
            {
              "name": "minDuration",
              "type": "uint256",
              "internalType": "uint256"
            },
            {
              "name": "maxDuration",
              "type": "uint256",
              "internalType": "uint256"
            },
            {
              "name": "minCollateralRatio",
              "type": "uint256",
              "internalType": "uint256"
            },
            {
              "name": "liquidationPenalty",
              "type": "uint256",
              "internalType": "uint256"
            },
            {
              "name": "baseInterestRate",
              "type": "uint256",
              "internalType": "uint256"
            },
            {
              "name": "allowIPCollateral",
              "type": "bool",
              "internalType": "bool"
            }
          ]
        }
      ],
      "outputs": [],
      "stateMutability": "nonpayable"
    },
    {
      "type": "function",
      "name": "storyIPAssetRegistry",
      "inputs": [],
      "outputs": [
        {
          "name": "",
          "type": "address",
          "internalType": "contract IStoryProtocolIPAssetRegistry"
        }
      ],
      "stateMutability": "view"
    },
    {
      "type": "function",
      "name": "storyIPIdToVault",
      "inputs": [
        {
          "name": "",
          "type": "string",
          "internalType": "string"
        }
      ],
      "outputs": [
        {
          "name": "",
          "type": "address",
          "internalType": "address"
        }
      ],
      "stateMutability": "view"
    },
    {
      "type": "function",
      "name": "storyLicenseRegistry",
      "inputs": [],
      "outputs": [
        {
          "name": "",
          "type": "address",
          "internalType": "contract IStoryProtocolLicenseRegistry"
        }
      ],
      "stateMutability": "view"
    },
    {
      "type": "function",
      "name": "storySPG",
      "inputs": [],
      "outputs": [
        {
          "name": "",
          "type": "address",
          "internalType": "contract IStoryProtocolSPG"
        }
      ],
      "stateMutability": "view"
    },
    {
      "type": "function",
      "name": "totalShares",
      "inputs": [
        {
          "name": "",
          "type": "address",
          "internalType": "address"
        }
      ],
      "outputs": [
        {
          "name": "",
          "type": "uint256",
          "internalType": "uint256"
        }
      ],
      "stateMutability": "view"
    },
    {
      "type": "function",
      "name": "updateCVS",
      "inputs": [
        {
          "name": "ipId",
          "type": "bytes32",
          "internalType": "bytes32"
        },
        {
          "name": "newCVS",
          "type": "uint256",
          "internalType": "uint256"
        }
      ],
      "outputs": [],
      "stateMutability": "nonpayable"
    },
    {
      "type": "function",
      "name": "updateLoanHealth",
      "inputs": [
        {
          "name": "loanId",
          "type": "uint256",
          "internalType": "uint256"
        }
      ],
      "outputs": [
        {
          "name": "healthFactor",
          "type": "uint256",
          "internalType": "uint256"
        }
      ],
      "stateMutability": "nonpayable"
    },
    {
      "type": "function",
      "name": "updateStoryIPId",
      "inputs": [
        {
          "name": "vaultAddress",
          "type": "address",
          "internalType": "address"
        },
        {
          "name": "storyIPId",
          "type": "string",
          "internalType": "string"
        }
      ],
      "outputs": [],
      "stateMutability": "nonpayable"
    },
    {
      "type": "function",
      "name": "vaultCounter",
      "inputs": [],
      "outputs": [
        {
          "name": "",
          "type": "uint256",
          "internalType": "uint256"
        }
      ],
      "stateMutability": "view"
    },
    {
      "type": "function",
      "name": "vaultDerivatives",
      "inputs": [
        {
          "name": "",
          "type": "address",
          "internalType": "address"
        },
        {
          "name": "",
          "type": "uint256",
          "internalType": "uint256"
        }
      ],
      "outputs": [
        {
          "name": "",
          "type": "address",
          "internalType": "address"
        }
      ],
      "stateMutability": "view"
    },
    {
      "type": "function",
      "name": "vaultLicenses",
      "inputs": [
        {
          "name": "",
          "type": "address",
          "internalType": "address"
        },
        {
          "name": "",
          "type": "uint256",
          "internalType": "uint256"
        }
      ],
      "outputs": [
        {
          "name": "",
          "type": "string",
          "internalType": "string"
        }
      ],
      "stateMutability": "view"
    },
    {
      "type": "function",
      "name": "vaultLoanTerms",
      "inputs": [
        {
          "name": "",
          "type": "address",
          "internalType": "address"
        }
      ],
      "outputs": [
        {
          "name": "minLoanAmount",
          "type": "uint256",
          "internalType": "uint256"
        },
        {
          "name": "maxLoanAmount",
          "type": "uint256",
          "internalType": "uint256"
        },
        {
          "name": "minDuration",
          "type": "uint256",
          "internalType": "uint256"
        },
        {
          "name": "maxDuration",
          "type": "uint256",
          "internalType": "uint256"
        },
        {
          "name": "minCollateralRatio",
          "type": "uint256",
          "internalType": "uint256"
        },
        {
          "name": "liquidationPenalty",
          "type": "uint256",
          "internalType": "uint256"
        },
        {
          "name": "baseInterestRate",
          "type": "uint256",
          "internalType": "uint256"
        },
        {
          "name": "allowIPCollateral",
          "type": "bool",
          "internalType": "bool"
        }
      ],
      "stateMutability": "view"
    },
    {
      "type": "function",
      "name": "vaultLoans",
      "inputs": [
        {
          "name": "",
          "type": "address",
          "internalType": "address"
        },
        {
          "name": "",
          "type": "uint256",
          "internalType": "uint256"
        }
      ],
      "outputs": [
        {
          "name": "",
          "type": "uint256",
          "internalType": "uint256"
        }
      ],
      "stateMutability": "view"
    },
    {
      "type": "function",
      "name": "vaultShareBps",
      "inputs": [],
      "outputs": [
        {
          "name": "",
          "type": "uint256",
          "internalType": "uint256"
        }
      ],
      "stateMutability": "view"
    },
    {
      "type": "function",
      "name": "vaults",
      "inputs": [
        {
          "name": "",
          "type": "address",
          "internalType": "address"
        }
      ],
      "outputs": [
        {
          "name": "vaultAddress",
          "type": "address",
          "internalType": "address"
        },
        {
          "name": "ipId",
          "type": "bytes32",
          "internalType": "bytes32"
        },
        {
          "name": "storyIPId",
          "type": "string",
          "internalType": "string"
        },
        {
          "name": "creator",
          "type": "address",
          "internalType": "address"
        },
        {
          "name": "totalLiquidity",
          "type": "uint256",
          "internalType": "uint256"
        },
        {
          "name": "availableLiquidity",
          "type": "uint256",
          "internalType": "uint256"
        },
        {
          "name": "totalLoansIssued",
          "type": "uint256",
          "internalType": "uint256"
        },
        {
          "name": "activeLoansCount",
          "type": "uint256",
          "internalType": "uint256"
        },
        {
          "name": "totalLicenseRevenue",
          "type": "uint256",
          "internalType": "uint256"
        },
        {
          "name": "totalLoanRepayments",
          "type": "uint256",
          "internalType": "uint256"
        },
        {
          "name": "createdAt",
          "type": "uint256",
          "internalType": "uint256"
        },
        {
          "name": "exists",
          "type": "bool",
          "internalType": "bool"
        },
        {
          "name": "registeredOnStory",
          "type": "bool",
          "internalType": "bool"
        }
      ],
      "stateMutability": "view"
    },
    {
      "type": "function",
      "name": "verifyIPAsset",
      "inputs": [
        {
          "name": "storyIPId",
          "type": "string",
          "internalType": "string"
        }
      ],
      "outputs": [
        {
          "name": "exists",
          "type": "bool",
          "internalType": "bool"
        },
        {
          "name": "ipOwner",
          "type": "address",
          "internalType": "address"
        }
      ],
      "stateMutability": "view"
    },
    {
      "type": "function",
      "name": "withdraw",
      "inputs": [
        {
          "name": "vaultAddress",
          "type": "address",
          "internalType": "address"
        },
        {
          "name": "shares",
          "type": "uint256",
          "internalType": "uint256"
        }
      ],
      "outputs": [],
      "stateMutability": "nonpayable"
    },
    {
      "type": "event",
      "name": "Deposited",
      "inputs": [
        {
          "name": "vaultAddress",
          "type": "address",
          "indexed": true,
          "internalType": "address"
        },
        {
          "name": "depositor",
          "type": "address",
          "indexed": true,
          "internalType": "address"
        },
        {
          "name": "amount",
          "type": "uint256",
          "indexed": false,
          "internalType": "uint256"
        },
        {
          "name": "shares",
          "type": "uint256",
          "indexed": false,
          "internalType": "uint256"
        }
      ],
      "anonymous": false
    },
    {
      "type": "event",
      "name": "DerivativeVaultCreated",
      "inputs": [
        {
          "name": "derivativeVaultAddress",
          "type": "address",
          "indexed": true,
          "internalType": "address"
        },
        {
          "name": "parentVaultAddress",
          "type": "address",
          "indexed": true,
          "internalType": "address"
        },
        {
          "name": "derivativeIpId",
          "type": "address",
          "indexed": true,
          "internalType": "address"
        },
        {
          "name": "creator",
          "type": "address",
          "indexed": false,
          "internalType": "address"
        }
      ],
      "anonymous": false
    },
    {
      "type": "event",
      "name": "IPCollateralAdded",
      "inputs": [
        {
          "name": "loanId",
          "type": "uint256",
          "indexed": true,
          "internalType": "uint256"
        },
        {
          "name": "ipAsset",
          "type": "address",
          "indexed": true,
          "internalType": "address"
        },
        {
          "name": "cvsValue",
          "type": "uint256",
          "indexed": false,
          "internalType": "uint256"
        }
      ],
      "anonymous": false
    },
    {
      "type": "event",
      "name": "IPRegisteredOnStory",
      "inputs": [
        {
          "name": "vaultAddress",
          "type": "address",
          "indexed": true,
          "internalType": "address"
        },
        {
          "name": "ipId",
          "type": "bytes32",
          "indexed": true,
          "internalType": "bytes32"
        },
        {
          "name": "storyIPId",
          "type": "string",
          "indexed": false,
          "internalType": "string"
        }
      ],
      "anonymous": false
    },
    {
      "type": "event",
      "name": "InterestAccrued",
      "inputs": [
        {
          "name": "loanId",
          "type": "uint256",
          "indexed": true,
          "internalType": "uint256"
        },
        {
          "name": "interestAmount",
          "type": "uint256",
          "indexed": false,
          "internalType": "uint256"
        },
        {
          "name": "totalDebt",
          "type": "uint256",
          "indexed": false,
          "internalType": "uint256"
        }
      ],
      "anonymous": false
    },
    {
      "type": "event",
      "name": "LicenseRegistered",
      "inputs": [
        {
          "name": "vaultAddress",
          "type": "address",
          "indexed": true,
          "internalType": "address"
        },
        {
          "name": "ipId",
          "type": "bytes32",
          "indexed": true,
          "internalType": "bytes32"
        },
        {
          "name": "licenseId",
          "type": "string",
          "indexed": true,
          "internalType": "string"
        },
        {
          "name": "licensee",
          "type": "address",
          "indexed": false,
          "internalType": "address"
        },
        {
          "name": "licenseType",
          "type": "string",
          "indexed": false,
          "internalType": "string"
        },
        {
          "name": "price",
          "type": "uint256",
          "indexed": false,
          "internalType": "uint256"
        }
      ],
      "anonymous": false
    },
    {
      "type": "event",
      "name": "LicenseSold",
      "inputs": [
        {
          "name": "vaultAddress",
          "type": "address",
          "indexed": true,
          "internalType": "address"
        },
        {
          "name": "ipId",
          "type": "bytes32",
          "indexed": true,
          "internalType": "bytes32"
        },
        {
          "name": "licensee",
          "type": "address",
          "indexed": true,
          "internalType": "address"
        },
        {
          "name": "price",
          "type": "uint256",
          "indexed": false,
          "internalType": "uint256"
        },
        {
          "name": "licenseType",
          "type": "string",
          "indexed": false,
          "internalType": "string"
        }
      ],
      "anonymous": false
    },
    {
      "type": "event",
      "name": "LoanHealthUpdated",
      "inputs": [
        {
          "name": "loanId",
          "type": "uint256",
          "indexed": true,
          "internalType": "uint256"
        },
        {
          "name": "healthFactor",
          "type": "uint256",
          "indexed": false,
          "internalType": "uint256"
        },
        {
          "name": "currentCVS",
          "type": "uint256",
          "indexed": false,
          "internalType": "uint256"
        }
      ],
      "anonymous": false
    },
    {
      "type": "event",
      "name": "LoanIssued",
      "inputs": [
        {
          "name": "vaultAddress",
          "type": "address",
          "indexed": true,
          "internalType": "address"
        },
        {
          "name": "borrower",
          "type": "address",
          "indexed": true,
          "internalType": "address"
        },
        {
          "name": "loanId",
          "type": "uint256",
          "indexed": true,
          "internalType": "uint256"
        },
        {
          "name": "amount",
          "type": "uint256",
          "indexed": false,
          "internalType": "uint256"
        },
        {
          "name": "collateral",
          "type": "uint256",
          "indexed": false,
          "internalType": "uint256"
        },
        {
          "name": "interestRate",
          "type": "uint256",
          "indexed": false,
          "internalType": "uint256"
        },
        {
          "name": "duration",
          "type": "uint256",
          "indexed": false,
          "internalType": "uint256"
        }
      ],
      "anonymous": false
    },
    {
      "type": "event",
      "name": "LoanLiquidated",
      "inputs": [
        {
          "name": "vaultAddress",
          "type": "address",
          "indexed": true,
          "internalType": "address"
        },
        {
          "name": "borrower",
          "type": "address",
          "indexed": true,
          "internalType": "address"
        },
        {
          "name": "loanId",
          "type": "uint256",
          "indexed": true,
          "internalType": "uint256"
        }
      ],
      "anonymous": false
    },
    {
      "type": "event",
      "name": "LoanNFTMinted",
      "inputs": [
        {
          "name": "loanId",
          "type": "uint256",
          "indexed": true,
          "internalType": "uint256"
        },
        {
          "name": "nftTokenId",
          "type": "uint256",
          "indexed": true,
          "internalType": "uint256"
        },
        {
          "name": "borrower",
          "type": "address",
          "indexed": true,
          "internalType": "address"
        }
      ],
      "anonymous": false
    },
    {
      "type": "event",
      "name": "LoanRepaid",
      "inputs": [
        {
          "name": "vaultAddress",
          "type": "address",
          "indexed": true,
          "internalType": "address"
        },
        {
          "name": "borrower",
          "type": "address",
          "indexed": true,
          "internalType": "address"
        },
        {
          "name": "loanId",
          "type": "uint256",
          "indexed": true,
          "internalType": "uint256"
        },
        {
          "name": "amount",
          "type": "uint256",
          "indexed": false,
          "internalType": "uint256"
        }
      ],
      "anonymous": false
    },
    {
      "type": "event",
      "name": "LoanTermsUpdated",
      "inputs": [
        {
          "name": "vaultAddress",
          "type": "address",
          "indexed": true,
          "internalType": "address"
        },
        {
          "name": "minLoanAmount",
          "type": "uint256",
          "indexed": false,
          "internalType": "uint256"
        },
        {
          "name": "maxLoanAmount",
          "type": "uint256",
          "indexed": false,
          "internalType": "uint256"
        },
        {
          "name": "minCollateralRatio",
          "type": "uint256",
          "indexed": false,
          "internalType": "uint256"
        }
      ],
      "anonymous": false
    },
    {
      "type": "event",
      "name": "RoyaltiesClaimed",
      "inputs": [
        {
          "name": "vaultAddress",
          "type": "address",
          "indexed": true,
          "internalType": "address"
        },
        {
          "name": "claimer",
          "type": "address",
          "indexed": true,
          "internalType": "address"
        },
        {
          "name": "amount",
          "type": "uint256",
          "indexed": false,
          "internalType": "uint256"
        }
      ],
      "anonymous": false
    },
    {
      "type": "event",
      "name": "VaultCreated",
      "inputs": [
        {
          "name": "vaultAddress",
          "type": "address",
          "indexed": true,
          "internalType": "address"
        },
        {
          "name": "ipId",
          "type": "bytes32",
          "indexed": true,
          "internalType": "bytes32"
        },
        {
          "name": "creator",
          "type": "address",
          "indexed": true,
          "internalType": "address"
        },
        {
          "name": "initialCVS",
          "type": "uint256",
          "indexed": false,
          "internalType": "uint256"
        }
      ],
      "anonymous": false
    },
    {
      "type": "event",
      "name": "Withdrawn",
      "inputs": [
        {
          "name": "vaultAddress",
          "type": "address",
          "indexed": true,
          "internalType": "address"
        },
        {
          "name": "withdrawer",
          "type": "address",
          "indexed": true,
          "internalType": "address"
        },
        {
          "name": "amount",
          "type": "uint256",
          "indexed": false,
          "internalType": "uint256"
        },
        {
          "name": "shares",
          "type": "uint256",
          "indexed": false,
          "internalType": "uint256"
        }
      ],
      "anonymous": false
    }
  ],
  "bytecode": {
    "object": "0x60806040523461031b57604051601f61759938819003918201601f19168301916001600160401b0383118484101761021e5780849260c09460405283398101031261031b5761004d8161031f565b9061005a6020820161031f565b6100666040830161031f565b906100736060840161031f565b9161008c60a06100856080870161031f565b950161031f565b6101f46005819055611b586006556109c4600755613a98600855601655946001600160a01b03169182156102d6576001600160a01b0316908115610291576001600160a01b031691821561024c575f80546001600160a01b031990811692909217905560018054821692909217909155600280549091169190911790556001600160a01b031680610232575b50600b80546001600160a01b03199081166001600160a01b0393841617909155600c8054821693909216929092179055600480549091163317905560405161010081016001600160401b0381118282101761021e5760019160e091604052662386f26fc100008152683635c9adc5dea00000602082015262093a8060408201526301e133806060820152613a9860808201526103e860a08201526103e860c08201520152662386f26fc10000600d55683635c9adc5dea00000600e5562093a80600f556301e13380601055613a986011556103e86012556103e8601355600160ff196014541617601455600260ff19601554161760155560405161726590816103348239f35b634e487b7160e01b5f52604160045260245ffd5b600380546001600160a01b0319169190911790555f610118565b60405162461bcd60e51b815260206004820152601e60248201527f41444c563a20496e76616c6964207265676973747279206164647265737300006044820152606490fd5b60405162461bcd60e51b815260206004820152601960248201527f41444c563a20496e76616c6964205350472061646472657373000000000000006044820152606490fd5b60405162461bcd60e51b815260206004820152601960248201527f41444c563a20496e76616c69642049444f2061646472657373000000000000006044820152606490fd5b5f80fd5b51906001600160a01b038216820361031b5756fe6101006040526004361015610012575f80fd5b5f5f3560e01c80624709b914614cd6578063030a994514614cb85780630eb9af3814614ab9578063116f71ac14614a9457806311deb6f3146149b35780631518405e1461496d57806316174abf146149475780631cfe28dd1461492a578063220cadbe146148e457806327bc08a8146146d05780632c35ceae146146345780633303b87b146143b457806334a411771461438e57806334d9289e1461437157806335659fb814614354578063363500cf146142ae578063386da5a71461424e5780633c082984146141f1578063484abe68146141815780634f7a1e3d1461411c5780634f7d2694146140aa578063504006ca14613f8757806352c32d6114613e5857806357c61d6714613df9578063599aae4014613db95780635bf2560214613c375780635e27820d14613a385780635ffd9b521461356757806366877b8d146132bb578063669113e314613294578063678d750c146132615780636d500ca4146131ef5780637044dda7146131c85780637068716614613106578063712eac121461288c578063724dfc9214612864578063787dce3d146127975780637c82e8091461203b578063854b5e1914611f9e57806386b58b7314611ef65780638c4b3bcd14611d9c5780638da5cb5b14611d7557806390a8ae9b14611d5857806390d3b37914611d395780639403b07c14611ceb57806398a5185514611cb8578063a622ee7c14611bb2578063ab7b1c8914611985578063ac95804114611967578063b1a25c9414611949578063b475c03814611826578063b5627e4214611809578063b912f13e146116e3578063bb7d0bcf146116bc578063bf6b874e14611684578063c162c91614611522578063c1ee3270146113f6578063cba7efbc14611100578063ccdd9f5d14610dd7578063db10a6b514610d8f578063db5d0aa914610d15578063e015fdc614610cd6578063e031a82414610cb8578063e1ec3c6814610b6c578063e3ed190214610b15578063ee458b1f14610a8a578063eee8b7ff14610a0c578063ef4f2abb146109cc578063f2f85c06146109ae578063f340fa0114610890578063f3fdb15a14610850578063f3fef3a3146106a0578063f53de3d91461063f578063f77e69ce14610623578063f845211a146104dd578063f9b329771461047b578063fa6f409714610443578063fb938ce11461041c5763ff2c682c1461037f575f80fd5b34610419576020600319360112610419576001600160a01b036103a0614d73565b6103af82600454163314615129565b1680156103d55773ffffffffffffffffffffffffffffffffffffffff1982541617815580f35b606460405162461bcd60e51b815260206004820152601560248201527f41444c563a20496e76616c6964206164647265737300000000000000000000006044820152fd5b80fd5b503461041957806003193601126104195760206001600160a01b0360035416604051908152f35b50346104195760206003193601126104195760406020916001600160a01b0361046a614d73565b168152602383522054604051908152f35b5034610419576020600319360112610419576004359067ffffffffffffffff82116104195760206104cc6104c76104b53660048701614ded565b6104c0811515616204565b3691614eb1565b6168a9565b6001600160a01b0360405191168152f35b5034610419576060600319360112610419576106066104fa614d73565b6001600160a01b0361050a614d89565b9116808452601760205261052760ff600b60408720015416615442565b8352601760205260026040842061054c6001600160a01b0360038301541633146155e3565b60ff600b82015460081c168061060a575b61056690615bc9565b016001600160a01b036105a561058c6105a06105936040516104c78161058c818a6150a7565b0382614e72565b94604051928380926150a7565b616a75565b9281604051947ff845211a0000000000000000000000000000000000000000000000000000000060208701521660248501521660448301526044356064830152606482526105f4608483614e72565b6001600160a01b036001541690616df3565b5080f35b5061056661061a8383015461506f565b1515905061055d565b5034610419578060031936011261041957602060405160028152f35b50346104195760206003193601126104195760043567ffffffffffffffff811161069c576020918261067d6001600160a01b03933690600401614ded565b92508260405193849283378101601e8152030190205416604051908152f35b5080fd5b5034610419576040600319360112610419576106ba614d73565b6001600160a01b03602435911680835260176020526106e260ff600b60408620015416615442565b808352601c602052604083206001600160a01b0333165f526020528160405f20541061080c578083526017602052604083209160048301600561073c6107298354856151e0565b858852601d6020526040882054906151f3565b94019061074c85835410156161b9565b838652601c602052604086206001600160a01b0333165f5260205260405f206107768482546159dc565b9055838652601d6020526040862061078f8482546159dc565b905561079c8582546159dc565b90556107a98482546159dc565b90558380848015610802575b8280929181923390f1156107f75760405192835260208301527f91fb9d98b786c57d74c099ccd2beca1739e9f6a81fb49001ca465c4b7591bbe260403393a380f35b6040513d85823e3d90fd5b6108fc91506107b5565b606460405162461bcd60e51b815260206004820152601960248201527f41444c563a20496e73756666696369656e7420736861726573000000000000006044820152fd5b503461041957806003193601126104195760ff6015541660405190600381101561087c57602092508152f35b602483634e487b7160e01b81526021600452fd5b506020600319360112610419576020906001600160a01b036108b0614d73565b16808252601783526108cb60ff600b60408520015416615442565b6108d6341515615a22565b8082526017835260056040832060048101805480155f146109895750604034955b858152601c88528181206001600160a01b0333165f528852815f2061091d8882546151bf565b9055858152601d8852206109328682546151bf565b905561093f3482546151bf565b90550161094d3482546151bf565b90556040519034825282848301527ff5681f9d0db1b911ac18ee83d515a1cf1051853a9eae418316a2fdf7dea427c560403393a3604051908152f35b6109a8604091868852601d89526109a383892054346151e0565b6151f3565b956108f7565b50346104195780600319360112610419576020600754604051908152f35b5034610419576020600319360112610419576109e9600435615e82565b90610a0860405192839215158352604060208401526040830190614d9f565b0390f35b5034610419576020600319360112610419576001600160a01b03610a2e614d73565b168152601a60205260408120604051918260208354918281520192825260208220915b818110610a7457610a0885610a6881870382614e72565b60405191829182614ee7565b8254845260209093019260019283019201610a51565b503461041957604060031936011261041957610aa4614d73565b6001600160a01b03168152601f60205260408120805460243590811015610b1157610ace91614dc4565b919091610afe57604051610a0890610aea8161058c81876150a7565b604051918291602083526020830190614d9f565b80634e487b7160e01b6024925280600452fd5b8280fd5b503461041957604060031936011261041957610b2f614d73565b6001600160a01b03168152601a6020526040812080546024359290831015610419576020610b5d8484614dc4565b90549060031b1c604051908152f35b50346104195760206003193601126104195760043581526018602052604090208080805460018201546001600160a01b031660e05260028201546001600160a01b03166003830154600484015460058501546001600160a01b03166006860154600787015490600888015492600989015494600a8a015496600b8b015498600c8c01549a600d8d01549c600e01549d600f01549e60108101546080526011015460ff1660c05260405160a05260a0515260e05160a0516020015260a0516040015260a0516060015260a0516080015260a05160a0015260a05160c0015260a05160e0015260a051610100015260a051610120015260a051610140015260a051610160015260a051610180015260a0516101a0015260a0516101c0015260a0516101e0015260805160a051610200015260a0516102200160c05190610caf91614f20565b60a05161024090f35b50346104195780600319360112610419576020601654604051908152f35b610a08610aea60ff846040600b610d10610cef36615027565b979294919590966001600160a01b0386168152601760205220015416615442565b615c14565b5034610419576020600319360112610419576001600160a01b03610d37614d73565b610d4682600454163314615129565b168015610d6e5773ffffffffffffffffffffffffffffffffffffffff19600354161760035580f35b5073ffffffffffffffffffffffffffffffffffffffff196003541660035580f35b503461041957604060031936011261041957610da9614d73565b6001600160a01b0316815260256020526040812080546024359290831015610419576020610b5d8484614dc4565b5034610419576020600319360112610419576004358082526018602052604082206011810160ff81541660058110156110ec576001610e169114615174565b612710610e2284615211565b1080156110df575b1561109b57600460ff19825416179055600181016001600160a01b038154168452601760205260408420600781018054905f19820191821161108757908692915581612710610e8e610e85600d880154600e890154906151bf565b601254906151e0565b0491600486015490610ed06005610eb5612710610ead601654876151e0565b0480956159dc565b9260048101610ec58582546151bf565b9055019182546151bf565b90558015908115611049575b50505080159081158061103f575b611019575b50506001600160a01b03600b541680610f3f575b505060026001600160a01b038092541692015416907fd4bfdcd3d7029abe0d70d4a6f1f560c5eac8d3cd6ecef801c6d3d67a49be60688480a480f35b6040517f14ff5ea3000000000000000000000000000000000000000000000000000000008152856004820152602081602481855afa9081156107f7578391610fe0575b50813b15610b115782916024839260405194859384927f42966c6800000000000000000000000000000000000000000000000000000000845260048401525af115610f035781610fd191614e72565b610fdc57835f610f03565b8380fd5b9250506020823d602011611011575b81610ffc60209383614e72565b8101031261100d578591515f610f82565b5f80fd5b3d9150610fef565b8280929181928290611036575b3390f1156107f757835f80610eef565b506108fc611026565b5080471015610eea565b8280929181926001600160a01b036004541690839061107e575bf11561107157815f80610edc565b50604051903d90823e3d90fd5b506108fc611063565b602487634e487b7160e01b81526011600452fd5b606460405162461bcd60e51b815260206004820152601b60248201527f41444c563a204c6f616e206e6f74206c6971756964617461626c6500000000006044820152fd5b50600b8201544211610e2a565b602485634e487b7160e01b81526021600452fd5b50346104195760806003193601126104195761111a614d73565b906044359167ffffffffffffffff831161069c576111446001600160a01b03933690600401614ded565b9390911690818352601760205261116460ff600b60408620015416615442565b8183526017602052604083209360ff600b86015460081c16806113e1575b1561139d57611231916105f46001600160a01b039261121b60028901936111c961058c6105a06111bc6040516104c78161058c818d6150a7565b97604051928380926150a7565b926040519687947fa95b0aa5000000000000000000000000000000000000000000000000000000006020870152166024850152602435604485015233606485015260a0608485015260c484019161567d565b60643560a483015203601f198101845283614e72565b604081805181010312610b115760406020820151910151936001600160a01b038516809503610fdc579060016112c1920154906040519060208201927f64657269766174697665000000000000000000000000000000000000000000008452602a830152604a82015242606a820152606a81526112af608a82614e72565b5190206112bb856166cf565b9061625d565b916001600160a01b0383169081815260208052604081208373ffffffffffffffffffffffffffffffffffffffff198254161790558281526021602052604081208054916801000000000000000083101561138957508161132991600188969594018155614dc4565b81549060031b906001600160a01b0384831b921b19161790557f1f74d7408d5752949edf1eb29254f357a1c408793640ab1dea049fd0292177d36020604051338152a4604080516001600160a01b03928316815292909116602083015290f35b80634e487b7160e01b602492526041600452fd5b606460405162461bcd60e51b815260206004820152601960248201527f41444c563a20506172656e74206e6f74206f6e2053746f7279000000000000006044820152fd5b506113ef600286015461506f565b1515611182565b5034610419576020600319360112610419576104cc60406020926001600160a01b03611420614d73565b168082526017855261143a60ff600b858520015416615442565b8152601784522061151161018060405161145381614e1b565b6001600160a01b038454168152600184015486820152604051906114858261147e81600289016150a7565b0383614e72565b60ff600b60408301968488526001600160a01b03600382015416606085015260048101546080850152600581015460a0850152600681015460c0850152600781015460e085015260088101546101008501526009810154610120850152600a8101546101408501520154818116151561016084015260081c161515928391015281611517575b50615bc9565b516168a9565b90505115155f61150b565b50346104195760206003193601126104195761161d61160f600260406001600160a01b0361154e614d73565b1694858152601760205261156a60ff600b848420015416615442565b85815260176020522061158b6001600160a01b0360038301541633146155e3565b60ff600b82015460081c168061166b575b6115a590615bc9565b016105f46115c661058c6105a06105936040516104c78161058c818a6150a7565b6040517f0beb75640000000000000000000000000000000000000000000000000000000060208201526001600160a01b0390911660248201523360448201529283906064820190565b03601f198101845283614e72565b906020825192818082019485920101031261100d576020915190604051908282527fae6218d0f0ec56ec1dea1bcf09002ee7480bf6a8b12807462bad103620c2693e843393a3604051908152f35b506115a561167b8383015461506f565b1515905061159c565b50346104195760206003193601126104195760406020916001600160a01b036116ab614d73565b168152601d83522054604051908152f35b50346104195760206003193601126104195760206116db600435615a86565b604051908152f35b5034610419576020600319360112610419576001600160a01b03611705614d73565b168152601f60205260408120805467ffffffffffffffff81116117f5576040519061173660208260051b0183614e72565b80825260208201809385526020852085915b8383106117d057868587604051928392602084019060208552518091526040840160408260051b8601019392905b82821061178557505050500390f35b919360206117c0827fffffffffffffffffffffffffffffffffffffffffffffffffffffffffffffffc060019597998495030186528851614d9f565b9601920192018594939192611776565b6001602081926040516117e78161058c81896150a7565b815201920192019190611748565b602483634e487b7160e01b81526041600452fd5b503461041957806003193601126104195760206040516127108152f35b50346104195760206003193601126104195761018060406020926001600160a01b03611850614d73565b168082526017855261186a60ff600b858520015416615442565b8152601784522060405161187d81614e1b565b6001600160a01b03825416815260018201548482015260ff600b604051936118b3856118ac81600285016150a7565b0386614e72565b8460408501526001600160a01b03600382015416606085015260048101546080850152600581015460a0850152600681015460c0850152600781015460e085015260088101546101008501526009810154610120850152600a8101546101408501520154818116151561016084015260081c16151592839101528161193e575b506040519015158152f35b90505115155f611933565b50346104195780600319360112610419576020600654604051908152f35b50346104195780600319360112610419576020600a54604051908152f35b506020600319360112610419576004358082526018602052604082206011810160ff81541660058110156110ec5760016119bf9114615174565b60028201916001600160a01b038354163303611b6e576119e0341515615a22565b611a106003820154611a0a60078401546119fe600a860154426159dc565b600886015491846159af565b906151bf565b600c82018054611a2081846159dc565b3410611b4957505584600d820155600260ff19835416178255848080806001600160a01b03875416600486015490828215611b40575bf115611b35576001905b01906001600160a01b038254168552601760205260ff604086209160098301611a8a3482546151bf565b905560058301611a9b3482546151bf565b905554166005811015611b2157600214611aee575b506001600160a01b0380915416915416907fa6f6d5e50bc84f153a0d6a9f9b37780433f92dc32d7e10f975ab3831c36898fa6020604051348152a480f35b6007018054905f198201918211611b0d57556001600160a01b03611ab0565b602486634e487b7160e01b81526011600452fd5b602486634e487b7160e01b81526021600452fd5b6040513d86823e3d90fd5b506108fc611a56565b9060019392611b5c611b649334906151bf565b8092556159dc565b600d820155611a60565b606460405162461bcd60e51b815260206004820152601260248201527f41444c563a204e6f7420626f72726f77657200000000000000000000000000006044820152fd5b503461041957602060031936011261041957611bcc614d73565b6001600160a01b0316815260176020526040902080546001600160a01b031660018201549160405180806002840190611c04916150a7565b03611c0f9082614e72565b60038201546001600160a01b031691600481015460058201546006830154600784015490600885015492600986015494600a87015496600b0154976040519b8c9b8c5260208c015260408b016101a090526101a08b01611c6e91614d9f565b9860608b015260808a015260a089015260c088015260e087015261010086015261012085015261014084015260ff8116151561016084015260081c60ff1615156101808301520390f35b5034610419576020600319360112610419576001600160a01b0360406020926004358152601b8452205416604051908152f35b5034610419576040600319360112610419576001600160a01b036040611d0f614d73565b9282611d19614d89565b94168152601c6020522091165f52602052602060405f2054604051908152f35b50346104195760206003193601126104195760206116db6004356159e9565b50346104195780600319360112610419576020604051611f408152f35b503461041957806003193601126104195760206001600160a01b0360045416604051908152f35b5034610419576040600319360112610419576004359060243567ffffffffffffffff811161069c57611dd2903690600401614ded565b9091838152601b602052611df36001600160a01b036040832054161561569d565b81611e0a575b60206104cc856112bb368688614eb1565b6001600160a01b0360029492945416602060405180927f261a323e0000000000000000000000000000000000000000000000000000000082528260048301528180611e59602482018b8b61567d565b03915afa918215611eea5791611ebb575b5015611e7757915f611df9565b606460405162461bcd60e51b815260206004820152601760248201527f41444c563a204950206e6f7420726567697374657265640000000000000000006044820152fd5b611edd915060203d602011611ee3575b611ed58183614e72565b81019061575e565b5f611e6a565b503d611ecb565b604051903d90823e3d90fd5b503461041957604060031936011261041957611f1e6001600160a01b03600454163314615129565b806001600160a01b03815416803b15611f9b578180916044604051809481937f86b58b73000000000000000000000000000000000000000000000000000000008352600435600484015260243560248401525af18015611f9057611f7f5750f35b81611f8991614e72565b6104195780f35b6040513d84823e3d90fd5b50fd5b5034610419576020600319360112610419576001600160a01b03611fc0614d73565b611fcf82600454163314615129565b168015611ff75773ffffffffffffffffffffffffffffffffffffffff19600254161760025580f35b606460405162461bcd60e51b815260206004820152601e60248201527f41444c563a20496e76616c6964207265676973747279206164647265737300006044820152fd5b50606060031936011261041957612050614d73565b90602435916001600160a01b03604435911690818352601760205261207e60ff600b60408620015416615442565b8183526017602052604083206001810154938381526022602052604081205415155f14612790578381526022602052604081205b6040516120be81614e55565b8154808252600183015460208301908152600284015491604084019283526003850154936060810194855260e060ff600760048901549860808501998a52600581015460a0860152600681015460c086015201541615159101528a1061274c57518911612708575185106126c4575184116126805760206001600160a01b03835416966024604051809981937f4d32d69100000000000000000000000000000000000000000000000000000000835260048301525afa958615611f9057829661264c575b508660011b908715918881046002148317156126385787106125f45760058401906127106121bf8354926121b88c8510156161b9565b518b6151e0565b0434106125b05760048501546121d591896170f3565b936127103402348104612710143415171561259c57896121f4916151f3565b9789611f40810204611f401484171561259c57600954986122148a61624f565b60095561222188426151bf565b6040519261222e84614e38565b8b84528a60208501523360408501528c60608501523460808501528760a08501528760c08501528860e08501528961010085015261012084015242610140840152610160830152856101808301528a6101a0830152856101c08301526101e0820152612710611f408b0204610200820152600161022082015288855260186020526102206040862091805183556001600160a01b036020820151166001600160a01b0360018501911673ffffffffffffffffffffffffffffffffffffffff198254161790556001600160a01b036040820151166001600160a01b0360028501911673ffffffffffffffffffffffffffffffffffffffff1982541617905560608101516003840155608081015160048401556001600160a01b0360a0820151166001600160a01b0360058501911673ffffffffffffffffffffffffffffffffffffffff1982541617905560c0810151600684015560e0810151600784015561010081015160088401556101208101516009840155610140810151600a840155610160810151600b840155610180810151600c8401556101a0810151600d8401556101c0810151600e8401556101e0810151600f84015561020081015160108401550151906005821015611b215760079291601161240a9201615a6d565b878552601960205261241f8960408720616826565b338552601a6020526124348960408720616826565b600681016124438b82546151bf565b9055018054906001820180921161259c579084939291556124658982546159dc565b9055816001600160a01b03600b5416806124e6575b508890916124dc575b8280929181923390f115611eea5750916020949184936040519384523487850152604084015260608301527f9a02a54d28aedabf1c3f226b73fdf6a9791805374efe9febef3ec6805248a02b60803393a4604051908152f35b6108fc9150612483565b6020906044604051809481937f40c10f190000000000000000000000000000000000000000000000000000000083523360048401528d60248401525af1839181612565575b50612538575b829061247a565b3390887f4f4e9039bb5a640045be245a150e8b62e69208885cb24ca519f44869900f2b898580a45f612531565b935090506020833d602011612594575b8161258260209383614e72565b8101031261100d57839251905f61252b565b3d9150612575565b602485634e487b7160e01b81526011600452fd5b606460405162461bcd60e51b815260206004820152601d60248201527f41444c563a20496e73756666696369656e7420636f6c6c61746572616c0000006044820152fd5b606460405162461bcd60e51b815260206004820152601660248201527f41444c563a20496e73756666696369656e7420435653000000000000000000006044820152fd5b602484634e487b7160e01b81526011600452fd5b9095506020813d602011612678575b8161266860209383614e72565b8101031261100d5751945f612182565b3d915061265b565b606460405162461bcd60e51b815260206004820152601760248201527f41444c563a204475726174696f6e20746f6f206c6f6e670000000000000000006044820152fd5b606460405162461bcd60e51b815260206004820152601860248201527f41444c563a204475726174696f6e20746f6f2073686f727400000000000000006044820152fd5b606460405162461bcd60e51b815260206004820152601b60248201527f41444c563a204c6f616e20616d6f756e7420746f6f206c6172676500000000006044820152fd5b606460405162461bcd60e51b815260206004820152601b60248201527f41444c563a204c6f616e20616d6f756e7420746f6f20736d616c6c00000000006044820152fd5b600d6120b2565b5034610419576020600319360112610419576004356127c26001600160a01b03600454163314615129565b6103e881116128205780600555806127100390612710821161280c5760468202908282046046149061271014171561280c57906064612806920490816006556159dc565b60075580f35b602483634e487b7160e01b81526011600452fd5b606460405162461bcd60e51b815260206004820152601260248201527f41444c563a2046656520746f6f206869676800000000000000000000000000006044820152fd5b50346104195760806003193601126104195760206116db6064356044356024356004356159af565b506080600319360112610419576128a1614d73565b90602435916064356001600160a01b03811691828203610fdc576001600160a01b03169182845260176020526128e060ff600b60408720015416615442565b80156130c25761293c60206001600160a01b0360025416612900856166cf565b9060405180809581947f920ffa260000000000000000000000000000000000000000000000000000000083528660048401526024830190614d9f565b03915afa90811561302d578591613084575b506001600160a01b033391160361304057828452601760205260408420936001850154948482526022602052604082205415155f1461303857848252602260205260408220925b6040516129a181614e55565b8454808252600186015460208301908152600287015490604084019182526003880154926060850193845260e060ff600760048c01549b608089019c8d52600581015460a08a0152600681015460c08a0152015416950194151585528c1061274c57518b116127085751604435106126c4575160443511612680576001600160a01b0384541695604051987f4d32d691000000000000000000000000000000000000000000000000000000008a5260048a01526020896024818a5afa98891561302d578599612ff9575b508960011b8a81046002148b151715611b0d5789106125f457600584015491612a968b8410156161b9565b5115612fb5576020906040517fffffffffffffffffffffffffffffffffffffffff0000000000000000000000008382019260601b16825260148152612adc603482614e72565b5190206024604051809981937f4d32d69100000000000000000000000000000000000000000000000000000000835260048301525afa958615611b35578496612f81575b50612710612b39612b3188346151bf565b96518b6151e0565b0485106125b0576004830154612b4f91896170f3565b946127108502858104612710148615171561259c5789612b6e916151f3565b9789611f40810204611f40148a15171561259c5760095498612b8f8a61624f565b600955612b9e604435426151bf565b60405192612bab84614e38565b8b84528a60208501523360408501528c60608501523460808501528560a08501528460c08501528960e085015260443561010085015261012084015242610140840152610160830152856101808301528a6101a0830152856101c08301526101e0820152612710611f408b0204610200820152600161022082015288855260186020526102206040862091805183556001600160a01b036020820151166001600160a01b0360018501911673ffffffffffffffffffffffffffffffffffffffff198254161790556001600160a01b036040820151166001600160a01b0360028501911673ffffffffffffffffffffffffffffffffffffffff1982541617905560608101516003840155608081015160048401556001600160a01b0360a0820151166001600160a01b0360058501911673ffffffffffffffffffffffffffffffffffffffff1982541617905560c0810151600684015560e0810151600784015561010081015160088401556101208101516009840155610140810151600a840155610160810151600b840155610180810151600c8401556101a0810151600d8401556101c0810151600e8401556101e0810151600f84015561020081015160108401550151906005821015611b21578992612dab7fe4923c153b9086d26c3a2dc5ac7865c800ad6a121fce34b179e24d4d9ff6f86893601160209401615a6d565b89875260198252612dbf8460408920616826565b338752601a8252612dd38460408920616826565b83875260248252604087208573ffffffffffffffffffffffffffffffffffffffff1982541617905584875260258252612e0f8460408920616826565b604051908152a360068101612e258882546151bf565b9055600781018054906001820180921161263857556005612e4988828401546159dc565b910155806001600160a01b03600b541680612ece575b5080878015612ec4575b8280929181923390f115611eea57509160209491849360405193845286840152604083015260443560608301527f9a02a54d28aedabf1c3f226b73fdf6a9791805374efe9febef3ec6805248a02b60803393a4604051908152f35b6108fc9150612e69565b6020906044604051809481937f40c10f190000000000000000000000000000000000000000000000000000000083523360048401528b60248401525af1829181612f4d575b50612f20575b8190612e5f565b3390867f4f4e9039bb5a640045be245a150e8b62e69208885cb24ca519f44869900f2b898480a45f612f19565b9091506020813d602011612f79575b81612f6960209383614e72565b8101031261100d5751905f612f13565b3d9150612f5c565b9095506020813d602011612fad575b81612f9d60209383614e72565b8101031261100d5751945f612b20565b3d9150612f90565b606460405162461bcd60e51b815260206004820152601f60248201527f41444c563a20495020636f6c6c61746572616c206e6f7420616c6c6f776564006044820152fd5b9098506020813d602011613025575b8161301560209383614e72565b8101031261100d5751975f612a6b565b3d9150613008565b6040513d87823e3d90fd5b600d92612995565b606460405162461bcd60e51b815260206004820152601260248201527f41444c563a204e6f74204950206f776e657200000000000000000000000000006044820152fd5b90506020813d6020116130ba575b8161309f60209383614e72565b810103126130b6576130b090615804565b5f61294e565b8480fd5b3d9150613092565b606460405162461bcd60e51b815260206004820152601b60248201527f41444c563a20496e76616c696420495020636f6c6c61746572616c00000000006044820152fd5b5034610419576020600319360112610419576001600160a01b03613128614d73565b168152601760205260016040822001549060206001600160a01b03825416926024604051809581937f4d32d69100000000000000000000000000000000000000000000000000000000835260048301525afa908115611eea5790613195575b6020906040519060011c8152f35b506020813d6020116131c0575b816131af60209383614e72565b8101031261100d5760209051613187565b3d91506131a2565b503461041957806003193601126104195760206001600160a01b03600c5416604051908152f35b5034610419576020600319360112610419576001600160a01b03613211614d73565b168152602560205260408120604051918260208354918281520192825260208220915b81811061324b57610a0885610a6881870382614e72565b8254845260209093019260019283019201613234565b5034610419576020600319360112610419576001600160a01b036040602092600435815260248452205416604051908152f35b503461041957806003193601126104195760206001600160a01b0360015416604051908152f35b503461041957602060031936011261041957600435906132d9615776565b50818152601860205260408120604051916132f383614e38565b815483526001600160a01b0360018301541660208401526001600160a01b03600283015416604084015260038201546060840152600482015491608084019283526001600160a01b036005820154169460a08501958652600682015460c0860152600782015460e086015260088201546101008601526009820154610120860152600a820154610140860152600b820154610160860152600c820154610180860152600d820154916101a08601928352600e810154906101c0870191825260ff6011600f830154926101e08a0193845260108101546102008b01520154166133e0610220890191826157f8565b516005811015611b21576001036135485750509061340061340792615a86565b90516151bf565b915193516001600160a01b03811661346d575b506127108402938085046127101490151715613459575061343e81610280946151f3565b61344b6040518094614f41565b610240830152610260820152f35b80634e487b7160e01b602492526011600452fd5b6040949194517fffffffffffffffffffffffffffffffffffffffff000000000000000000000000602082019260601b168252601481526134ae603482614e72565b5190209060206001600160a01b03865416926024604051809581937f4d32d69100000000000000000000000000000000000000000000000000000000835260048301525afa90811561302d578591613512575b61350b92506151bf565b925f61341a565b90506020823d602011613540575b8161352d60209383614e72565b8101031261100d5761350b915190613501565b3d9150613520565b51925190516102809750929450613561935090506151bf565b9061343e565b6001600160a01b038261357936615027565b509390911691825f52601760205261359a60ff600b60405f20015416615442565b6060926135a8341515615818565b805f52601760205260405f2091600183015492845f918860ff600b83015460081c1680613a23575b80613a0f575b61389a575b505050156137a5575b815f52601760205260405f206127106135ff600554346151e0565b0490612710613610600654346151e0565b04916136258361362083346159dc565b6159dc565b6001600160a01b035f5416803b1561100d575f80916044604051809481937f12149e420000000000000000000000000000000000000000000000000000000083528d60048401528760248401525af1801561379a57613783575b50908491600884016136928282546151bf565b9055600484016136a38282546151bf565b90556136b4600585019182546151bf565b90558015908115613752575b505050811590811561371f575b505050507fb95b9670f342744ee734fb423b9c01db040b4a0aad1b1a3c2704d8a42478d3f9613708610a089660405191829133973484615998565b0390a4604051918291602083526020830190614d9f565b83809381936001600160a01b0360038495015416908390613749575bf115611eea578080806136cd565b506108fc61373b565b8280929181926001600160a01b036004541690839061377a575bf115611f90578289806136c0565b506108fc61376c565b613791919295505f90614e72565b5f93908a61367f565b6040513d5f823e3d90fd5b6020945061388060016137b7426165c1565b81886137c2336166cf565b6028826137ce346165c1565b926040519d8e977f6c6963656e73652d000000000000000000000000000000000000000000000000828a0152805191829101858a015e8701907f2d0000000000000000000000000000000000000000000000000000000000000084830152805192839101602983015e0101907f2d0000000000000000000000000000000000000000000000000000000000000084830152805192839101600283015e01015f838201520301601f198101875286614e72565b61389585835f52601f60205260405f20615927565b6135e4565b5f9161392983604051928960208501524260408501528c808501526138d5846138c760808201888b61567d565b03601f198101865285614e72565b6139536001600160a01b03600354169461393b604051998a98899788967ffea1cda800000000000000000000000000000000000000000000000000000000885260a06004890152600260a4890191016150a7565b9160031987840301602488015261567d565b90336044850152600319848303016064850152614d9f565b34608483015203925af15f91816139eb575b50613973575b8590886135db565b80511561396b5795505084825f52601f6020526139938160405f20615927565b60405181516001928291908190602001835e81015f815203902084847f895be1248fd5bfa4357895e3b8eb2052b9f79c131c2a68b9723f706681570c09604051806139e28d34908d338561596c565b0390a48761396b565b613a089192503d805f833e613a008183614e72565b810190615738565b9089613965565b506001600160a01b036003541615156135d6565b50613a31600283015461506f565b15156135d0565b3461100d57602060031936011261100d5760043567ffffffffffffffff811161100d57613a69903690600401614ded565b6001600160a01b0360035416918215613bcd57613abf925f926040518095819482937fd6a7b97600000000000000000000000000000000000000000000000000000000845260206004850152602484019161567d565b03915afa90811561379a575f905f925f915f945f915f93613b2a575b50613b01956001600160a01b03613b0f8193604051998a9960c08b5260c08b0190614d9f565b9089820360208b0152614d9f565b95166040870152166060850152608084015260a08301520390f35b955050505050503d805f833e613b408183614e72565b81019060c08183031261100d57805167ffffffffffffffff811161100d5782613b6a91830161571e565b90602081015167ffffffffffffffff811161100d57613b0193613b8e91830161571e565b91613b9b60408301615804565b906001600160a01b03613bb060608501615804565b608085015160a09095015190969295939490939092909150613adb565b608460405162461bcd60e51b815260206004820152602560248201527f41444c563a204c6963656e7365205265676973747279206e6f7420636f6e666960448201527f67757265640000000000000000000000000000000000000000000000000000006064820152fd5b3461100d57602060031936011261100d5760043567ffffffffffffffff811161100d57613c68903690600401614ded565b905f6001600160a01b036002541691604051927f261a323e0000000000000000000000000000000000000000000000000000000084526020600485015260208480613cb760248201898761567d565b0381845afa93841561379a575f94613d98575b5083613ceb575b6040805185151581526001600160a01b0385166020820152f35b60209250613d2f946040518096819482937f920ffa26000000000000000000000000000000000000000000000000000000008452876004850152602484019161567d565b03915afa91821561379a575f92613d53575b506040916001600160a01b0384613cd1565b91506020823d602011613d90575b81613d6e60209383614e72565b8101031261100d576001600160a01b03613d89604093615804565b9250613d41565b3d9150613d61565b613db291945060203d602011611ee357611ed58183614e72565b9285613cca565b3461100d57602060031936011261100d576001600160a01b03613dda614d73565b165f526020805260206001600160a01b0360405f205416604051908152f35b3461100d57604060031936011261100d57613e12614d73565b6001600160a01b0360243591165f52602160205260405f2090815481101561100d57613e486001600160a01b0391602093614dc4565b90549060031b1c16604051908152f35b3461100d5761012060031936011261100d57613e72614d73565b6101007fffffffffffffffffffffffffffffffffffffffffffffffffffffffffffffffdc36011261100d576001600160a01b0316805f526017602052613ec160ff600b60405f20015416615442565b805f526017602052613ee46001600160a01b03600360405f2001541633146155e3565b805f52602260205260405f20602435808255604435908160018401556064356002840155608435600384015560a43580600485015560c435600585015560e43560068501556101043592831515840361100d57613f7460609460077f590c0971d2554bec16e9d19ff08d503b462ce770b14bedb5b4a78e18bd40c40097019060ff60ff1983541691151516179055565b60405192835260208301526040820152a2005b3461100d57602060031936011261100d57613fa0615776565b506004355f52601860205261024060405f2061409b60ff601160405193613fc685614e38565b805485526001600160a01b0360018201541660208601526001600160a01b03600282015416604086015260038101546060860152600481015460808601526001600160a01b0360058201541660a0860152600681015460c0860152600781015460e086015260088101546101008601526009810154610120860152600a810154610140860152600b810154610160860152600c810154610180860152600d8101546101a0860152600e8101546101c0860152600f8101546101e0860152601081015461020086015201541661022083016157f8565b6140a86040518092614f41565bf35b3461100d57602060031936011261100d576001600160a01b036140cb614d73565b165f52601960205260405f206040519081602082549182815201915f5260205f20905f5b81811061410657610a0885610a6881870382614e72565b82548452602090930192600192830192016140ef565b3461100d575f60031936011261100d57600d54600e54600f54601054601154601254601354601454604080519889526020890197909752958701949094526060860192909252608085015260a084015260c083015260ff16151560e082015261010090f35b3461100d57602060031936011261100d5760043567ffffffffffffffff811161100d573660238201121561100d576001600160a01b036020806141cf81943690602481600401359101614eb1565b604051928184925191829101835e8101601e8152030190205416604051908152f35b3461100d57602060031936011261100d576001600160a01b03614212614d73565b16805f52601760205261422e60ff600b60405f20015416615442565b5f526020805260206001600160a01b0360405f2054161515604051908152f35b3461100d57602060031936011261100d576001600160a01b0361426f614d73565b16805f52601760205261428b60ff600b60405f20015416615442565b5f526017602052610a0861058c610aea600260405f2001604051928380926150a7565b3461100d57602060031936011261100d576001600160a01b036142cf614d73565b16805f5260176020526142eb60ff600b60405f20015416615442565b5f52602080526001600160a01b0360405f205416801561431057602090604051908152f35b606460405162461bcd60e51b815260206004820152601660248201527f41444c563a204e6f7420612064657269766174697665000000000000000000006044820152fd5b3461100d575f60031936011261100d576020600554604051908152f35b3461100d575f60031936011261100d576020600954604051908152f35b3461100d575f60031936011261100d5760206001600160a01b03600b5416604051908152f35b3461100d5760a060031936011261100d5760043560243560ff811680910361100d5760443567ffffffffffffffff811161100d576143f6903690600401614ded565b9190926084359367ffffffffffffffff851161100d576144226001600160a01b03953690600401614ded565b9094606094845f52601b60205261443f8860405f2054161561569d565b87600154169283614475575b8887610a0861445a828a61625d565b91604051938493168352604060208401526040830190614d9f565b6144c69650906144e05f96988793604051998a98899788967f5fa91434000000000000000000000000000000000000000000000000000000008852600488015260806024880152608487019161567d565b91606435604486015260031985840301606486015261567d565b03925af15f9181614618575b506145165750610a0861445a604051614506602082614e72565b5f815280935b918193878061444b565b90818281935115158061460b575b614537575b5061445a90610a089261450c565b61457f9150602090856002541660405180809581947f261a323e0000000000000000000000000000000000000000000000000000000083528660048401526024830190614d9f565b03915afa5f91816145ea575b506145b557509050610a0861445a6040516145a7602082614e72565b5f815280935b925090614529565b156145c8575b61445a82610a08926145ad565b9050610a0861445a6040516145de602082614e72565b5f8152929150506145bb565b61460491925060203d602011611ee357611ed58183614e72565b908561458b565b5084600254161515614524565b61462d9192503d805f833e613a008183614e72565b90846144ec565b3461100d57602060031936011261100d576001600160a01b03614655614d73565b165f52602260205260405f208054610a086001830154926002810154906003810154600482015460058301549160ff60076006860154950154169460405198899889969390989794919260e0969361010089019a8952602089015260408801526060870152608086015260a085015260c08401521515910152565b3461100d57604060031936011261100d576146e9614d73565b6024359067ffffffffffffffff821161100d576147126001600160a01b03923690600401614ded565b9290911690815f52601760205261473260ff600b60405f20015416615442565b815f52601760205260405f20906147576001600160a01b0360038401541633146155e3565b6002820167ffffffffffffffff85116148d05761477e85614778835461506f565b8361562e565b5f85601f811160011461486f57806147a9925f91614864575b505f198260011b9260031b1c19161790565b90555b600b820180547fffffffffffffffffffffffffffffffffffffffffffffffffffffffffffff00ff1685151560081b61ff001617815560ff905460081c166147ef57005b60017f9f01b21447414b6b9f5b450c95348b92844d425026c5cd066ede5cd9aa721d649260405186848237602081888101601e8152030190208573ffffffffffffffffffffffffffffffffffffffff1982541617905501549361485f60405192839260208452602084019161567d565b0390a3005b905084013588614797565b601f191690825f528660205f20925f5b8181106148b557501061489c575b5050600185811b0190556147ac565b5f1960f88860031b161c1990840135169055858061488d565b8684013585556001909401936020938401938a93500161487f565b634e487b7160e01b5f52604160045260245ffd5b3461100d57602060031936011261100d5760206116db614902614d73565b6001600160a01b0381165f526017835261492560ff600b60405f20015416615442565b61548d565b3461100d575f60031936011261100d576020600854604051908152f35b3461100d575f60031936011261100d5760206001600160a01b0360025416604051908152f35b3461100d57604060031936011261100d57614986614d73565b6001600160a01b0360243591165f52601960205260405f20805482101561100d57602091610b5d91614dc4565b3461100d57602060031936011261100d576001600160a01b036149d4614d73565b16805f5260176020526149f060ff600b60405f20015416615442565b5f52602160205260405f20604051806020835491828152019081935f5260205f20905f5b818110614a755750505081614a2a910382614e72565b604051918291602083019060208452518091526040830191905f5b818110614a53575050500390f35b82516001600160a01b0316845285945060209384019390920191600101614a45565b82546001600160a01b0316845260209093019260019283019201614a14565b3461100d575f60031936011261100d5760206001600160a01b035f5416604051908152f35b3461100d57602060031936011261100d57614ad2614d73565b604051614ade81614e1b565b5f8152602081015f90526040810160609052606081015f9052608081015f905260a081015f905260c081015f905260e081015f905261010081015f905261012081015f905261014081015f905261016081015f9052610180015f90526001600160a01b03165f52601760205260405f20604051614b5a81614e1b565b81546001600160a01b03168152600182015460208201908152604051909281614b8681600284016150a7565b03614b919083614e72565b6040830191825260038101546001600160a01b0316916060840192835260048201549160808501928352600581015460a08601908152600682015460c08701908152600783015460e0880190815260088401549161010089019283526009850154936101208a01948552600a860154956101408b01968752600b0154976101608b019760ff8a16151589526101808c019960081c60ff1615158a526040519c8d809d60208252516001600160a01b031690602001525160408d01525160608c016101a090526101c08c01614c6491614d9f565b99516001600160a01b031660808c01525160a08b01525160c08a01525160e0890152516101008801525161012087015251610140860152516101608501525115156101808401525115156101a08301520390f35b3461100d57602060031936011261100d5760206116db600435615211565b3461100d57602060031936011261100d576001600160a01b03614cf7614d73565b614d0682600454163314615129565b168015614d2f5773ffffffffffffffffffffffffffffffffffffffff1960015416176001555f80f35b606460405162461bcd60e51b815260206004820152601960248201527f41444c563a20496e76616c6964205350472061646472657373000000000000006044820152fd5b600435906001600160a01b038216820361100d57565b602435906001600160a01b038216820361100d57565b90601f19601f602080948051918291828752018686015e5f8582860101520116010190565b8054821015614dd9575f5260205f2001905f90565b634e487b7160e01b5f52603260045260245ffd5b9181601f8401121561100d5782359167ffffffffffffffff831161100d576020838186019501011161100d57565b6101a0810190811067ffffffffffffffff8211176148d057604052565b610240810190811067ffffffffffffffff8211176148d057604052565b610100810190811067ffffffffffffffff8211176148d057604052565b90601f601f19910116810190811067ffffffffffffffff8211176148d057604052565b67ffffffffffffffff81116148d057601f01601f191660200190565b929192614ebd82614e95565b91614ecb6040519384614e72565b82948184528183011161100d578281602093845f960137010152565b60206040818301928281528451809452019201905f5b818110614f0a5750505090565b8251845260209384019390920191600101614efd565b906005821015614f2d5752565b634e487b7160e01b5f52602160045260245ffd5b906102208061502593805184526001600160a01b0360208201511660208501526001600160a01b03604082015116604085015260608101516060850152608081015160808501526001600160a01b0360a08201511660a085015260c081015160c085015260e081015160e08501526101008101516101008501526101208101516101208501526101408101516101408501526101608101516101608501526101808101516101808501526101a08101516101a08501526101c08101516101c08501526101e08101516101e08501526102008101516102008501520151910190614f20565b565b90606060031983011261100d576004356001600160a01b038116810361100d57916024359067ffffffffffffffff821161100d5761506791600401614ded565b909160443590565b90600182811c9216801561509d575b602083101461508957565b634e487b7160e01b5f52602260045260245ffd5b91607f169161507e565b5f92918154916150b68361506f565b808352926001811690811561510b57506001146150d257505050565b5f9081526020812093945091925b8383106150f1575060209250010190565b6001816020929493945483858701015201910191906150e0565b9050602094955060ff1991509291921683830152151560051b010190565b1561513057565b606460405162461bcd60e51b815260206004820152601060248201527f41444c563a204f6e6c79206f776e6572000000000000000000000000000000006044820152fd5b1561517b57565b606460405162461bcd60e51b815260206004820152601560248201527f41444c563a204c6f616e206e6f742061637469766500000000000000000000006044820152fd5b919082018092116151cc57565b634e487b7160e01b5f52601160045260245ffd5b818102929181159184041417156151cc57565b81156151fd570490565b634e487b7160e01b5f52601260045260245ffd5b805f52601860205260405f209060ff6011830154166005811015614f2d57600161523b9114615174565b600482015460058301546001600160a01b03811661536b575b5061525e82615a86565b9261526d84600d8301546151bf565b9061271083029280840461271014901517156151cc576152976001926001600160a01b03946151f3565b9485600f830155600e8201550154165f526017602052600160405f20015460206001600160a01b035f5416916024604051809481937f4d32d69100000000000000000000000000000000000000000000000000000000835260048301525afa90811561379a575f91615338575b5060407f73217bb0eb7117a1634a599e0732ddb9ed3240382f09e690e661aebeeb937d91918151908582526020820152a290565b90506020813d602011615363575b8161535360209383614e72565b8101031261100d57516040615304565b3d9150615346565b6040517fffffffffffffffffffffffffffffffffffffffff000000000000000000000000602082019260601b168252601481526153a9603482614e72565b5190209060206001600160a01b035f5416926024604051809581937f4d32d69100000000000000000000000000000000000000000000000000000000835260048301525afa90811561379a575f9161540c575b61540692506151bf565b5f615254565b90506020823d60201161543a575b8161542760209383614e72565b8101031261100d576154069151906153fc565b3d915061541a565b1561544957565b606460405162461bcd60e51b815260206004820152601a60248201527f41444c563a205661756c7420646f6573206e6f742065786973740000000000006044820152fd5b6001600160a01b03165f52601760205260405f206040516154ad81614e1b565b6001600160a01b038254168152600182015460208201526040516154d88161058c81600287016150a7565b604082015261018060ff600b6001600160a01b036003860154169485606086015260048101546080860152600581015460a0860152600681015460c0860152600781015460e086015260088101546101008601526009810154610120860152600a8101546101408601520154818116151561016085015260081c16151591015260206001600160a01b0360015416916024604051809481937f220cadbe00000000000000000000000000000000000000000000000000000000835260048301525afa5f91816155af575b506155ac57505f90565b90565b9091506020813d6020116155db575b816155cb60209383614e72565b8101031261100d5751905f6155a2565b3d91506155be565b156155ea57565b606460405162461bcd60e51b815260206004820152601260248201527f41444c563a204f6e6c792063726561746f7200000000000000000000000000006044820152fd5b601f821161563b57505050565b5f5260205f20906020601f840160051c83019310615673575b601f0160051c01905b818110615668575050565b5f815560010161565d565b9091508190615654565b601f8260209493601f1993818652868601375f8582860101520116010190565b156156a457565b606460405162461bcd60e51b815260206004820152601a60248201527f41444c563a205661756c7420616c7265616479206578697374730000000000006044820152fd5b9291926156f482614e95565b916157026040519384614e72565b82948184528183011161100d578281602093845f96015e010152565b9080601f8301121561100d5781516155ac926020016156e8565b9060208282031261100d57815167ffffffffffffffff811161100d576155ac920161571e565b9081602091031261100d5751801515810361100d5790565b6040519061578382614e38565b5f610220838281528260208201528260408201528260608201528260808201528260a08201528260c08201528260e08201528261010082015282610120820152826101408201528261016082015282610180820152826101a0820152826101c0820152826101e0820152826102008201520152565b6005821015614f2d5752565b51906001600160a01b038216820361100d57565b1561581f57565b606460405162461bcd60e51b815260206004820152601360248201527f41444c563a20496e76616c6964207072696365000000000000000000000000006044820152fd5b919091825167ffffffffffffffff81116148d05761588b81615885845461506f565b8461562e565b6020601f82116001146158c95781906158ba9394955f926158be575b50505f198260011b9260031b1c19161790565b9055565b015190505f806158a7565b601f19821690835f52805f20915f5b81811061590f575095836001959697106158f7575b505050811b019055565b01515f1960f88460031b161c191690555f80806158ed565b9192602060018192868b0151815501940192016158d8565b8054680100000000000000008110156148d05761594991600182018155614dc4565b9190916159595761502591615863565b634e487b7160e01b5f525f60045260245ffd5b949392916040926001600160a01b036159939316875260606020880152606087019161567d565b930152565b6040906155ac94928152816020820152019161567d565b6159c292916159bd916151e0565b6151e0565b908061271002906127108204036151cc576155ac916151f3565b919082039182116151cc57565b60649004806107d0115f14615a19576107d0036107d081116151cc575b6101f48110615a125790565b506101f490565b506101f4615a06565b15615a2957565b606460405162461bcd60e51b815260206004820152601460248201527f41444c563a20496e76616c696420616d6f756e740000000000000000000000006044820152fd5b906005811015614f2d5760ff60ff198354169116179055565b5f52601860205260405f2060405190615a9e82614e38565b805482526001600160a01b0360018201541660208301526001600160a01b03600282015416604083015260038101546060830152600481015460808301526001600160a01b0360058201541660a0830152600681015460c083015260078101549060e0830191825260088101546101008401526009810154610120840152600a810154906101408401918252600b810154610160850152600c810154610180850152600d810154936101a08101948552615b8861022060ff6011600e860154956101c08601968752600f8101546101e08701526010810154610200870152015416920191826157f8565b516005811015614f2d575f1901615bc15750916159bd615bbd92615bb364496cebb8009551426159dc565b92519051906151e0565b0490565b925050505190565b15615bd057565b606460405162461bcd60e51b815260206004820152602060248201527f41444c563a204950206e6f742072656769737465726564206f6e2053746f72796044820152fd5b919091615c22341515615818565b6001600160a01b03811690815f52601760205260405f2094825f52602080526001600160a01b0360405f205416151580615e71575b80615e5c575b15615df25750507fb95b9670f342744ee734fb423b9c01db040b4a0aad1b1a3c2704d8a42478d3f9615dec600186615d2d600260209901615d0c615d1a615cc461058c6105a0615cb76040516104c78161058c818b6150a7565b95604051928380926150a7565b6040517f5f87df72000000000000000000000000000000000000000000000000000000008e8201526001600160a01b0390911660248201523360448201529182906064820190565b03601f198101835282614e72565b34916001600160a01b0386541690617020565b50615dc582615d3b426165c1565b60288b615d47336166cf565b6040519d8e947f6c6963656e73652d000000000000000000000000000000000000000000000000828701528051918291018587015e8401907f2d0000000000000000000000000000000000000000000000000000000000000084830152805192839101602983015e01015f838201520301601f1981018a5289614e72565b845f52601f602052615dda8860405f20615927565b01549360405191829133973484615998565b0390a490565b5f94939550615e3191925060405195869485947f5ffd9b520000000000000000000000000000000000000000000000000000000086526004860161596c565b038134305af190811561379a575f91615e48575090565b6155ac91503d805f833e613a008183614e72565b50615e6a600287015461506f565b1515615c5d565b5060ff600b87015460081c16615c57565b606090805f52601860205260405f2060405192615e9e84614e38565b815484526001600160a01b0360018301541660208501526001600160a01b036002830154166040850152600382015490840152600481015491608084019283526001600160a01b036005830154169160a08501928352600681015460c0860152600781015460e086015260088101546101008601526009810154610120860152600a810154610140860152600b810154946101608101958652600c820154610180820152615f8761022060ff6011600d860154956101a08601968752600e8101546101c0870152600f8101546101e08701526010810154610200870152015416920191826157f8565b516005811015614f2d575f190161617757613400615fa492615a86565b915190516001600160a01b0381166160a0575b5061271081029080820461271014901517156151cc5761271091615fda916151f3565b1061606157514211616023575f90604051615ff6604082614e72565b600c81527f4c6f616e206865616c7468790000000000000000000000000000000000000000602082015290565b600190604051616034604082614e72565b600c81527f4c6f616e20657870697265640000000000000000000000000000000000000000602082015290565b50600190604051616073604082614e72565b601381527f556e646572636f6c6c61746572616c697a656400000000000000000000000000602082015290565b6040517fffffffffffffffffffffffffffffffffffffffff000000000000000000000000602082019260601b168252601481526160de603482614e72565b5190209060206001600160a01b035f5416926024604051809581937f4d32d69100000000000000000000000000000000000000000000000000000000835260048301525afa90811561379a575f91616141575b61613b92506151bf565b5f615fb7565b90506020823d60201161616f575b8161615c60209383614e72565b8101031261100d5761613b915190616131565b3d915061614f565b50505050505f9060405161618c604082614e72565b600f81527f4c6f616e206e6f74206163746976650000000000000000000000000000000000602082015290565b156161c057565b606460405162461bcd60e51b815260206004820152601c60248201527f41444c563a20496e73756666696369656e74206c6971756964697479000000006044820152fd5b1561620b57565b606460405162461bcd60e51b815260206004820152601760248201527f41444c563a20456d7074792053746f72792049502049440000000000000000006044820152fd5b5f1981146151cc5760010190565b60249160206001600160a01b035f5416604051948580927f4d32d6910000000000000000000000000000000000000000000000000000000082528660048301525afa92831561379a575f9361657c575b50600a549060405160208101904282523360601b6040820152846054820152836074820152607481526162e1609482614e72565b5190206001600160a01b0316936162f8859361624f565b600a558151151590838260405161630e81614e1b565b828152602081018881526040820187815260608301338152608084015f815260a085015f815260c08601905f825260e08701925f84526101008801945f86526101208901965f88526101408a0198428a526101608b019c60018e526101808c019c8d525f52601760205260405f209a516001600160a01b03166001600160a01b03168b5473ffffffffffffffffffffffffffffffffffffffff1916178b555160018b01555160028a01906163c191615863565b516001600160a01b031660038901906001600160a01b0316815473ffffffffffffffffffffffffffffffffffffffff191617905551600488015551600587015551600686015551600785015551600884015551600983015551600a820155600b019151151561643d90839060ff60ff1983541691151516179055565b5181547fffffffffffffffffffffffffffffffffffffffffffffffffffffffffffff00ff1690151560081b61ff0016179055845f52601b6020528160405f206001600160a01b038616815473ffffffffffffffffffffffffffffffffffffffff1916179055616539575b84847f2e9bbce39fdf6738113ce626319548571f9fdeaf646c3d5e5776f4cc1a7e9d17604051604081526164de6040820188614d9f565b9460208201528033950390a46164f5575b50505090565b61652e7f9f01b21447414b6b9f5b450c95348b92844d425026c5cd066ede5cd9aa721d6491604051918291602083526020830190614d9f565b0390a35f81816164ef565b604051602081855180838801835e8101601e8152030190206001600160a01b03851673ffffffffffffffffffffffffffffffffffffffff198254161790556164a7565b9092506020813d6020116165a8575b8161659860209383614e72565b8101031261100d5751915f6162ad565b3d915061658b565b908151811015614dd9570160200190565b80156166935780815f925b61667f5750806165db83614e95565b926165e96040519485614e72565b808452601f196165f882614e95565b01366020860137915b61660a57505090565b5f1982019182116151cc5781600a820491600a830290838204600a14841517156151cc5760ff9161663a916159dc565b1660300160ff81116151cc577fff000000000000000000000000000000000000000000000000000000000000006166789160f81b165f1a91856165b0565b5380616601565b9161668b600a9161624f565b9204806165cc565b506040516166a2604082614e72565b600181527f3000000000000000000000000000000000000000000000000000000000000000602082015290565b6001600160a01b03166040516166e6604082614e72565b601081527f303132333435363738396162636465660000000000000000000000000000000060208201526040519161671f606084614e72565b602a8352602083016040368237835115614dd95760309053825160011015614dd957607860218401535f5b601481106167585750505090565b600c81018082116151cc576020811015614dd95782901a907fff000000000000000000000000000000000000000000000000000000000000006167a2600484901c600f16866165b0565b5116918160011b92828404600214831517156151cc578360020190816002116151cc577fff0000000000000000000000000000000000000000000000000000000000000092616802926167fa600f935f1a918b6165b0565b5316866165b0565b511691600301806003116151cc5761681f6001935f1a91876165b0565b530161674a565b8054680100000000000000008110156148d05761684891600182018155614dc4565b5f19829392549160031b92831b921b1916179055565b1561686557565b606460405162461bcd60e51b815260206004820152601960248201527f41444c563a2049504163636f756e74206e6f7420666f756e64000000000000006044820152fd5b6168b581511515616204565b6001600160a01b0360025416906040517f461a447800000000000000000000000000000000000000000000000000000000815260206004820152602081806169006024820186614d9f565b0381865afa5f9181616a39575b50616a2257506001600160a01b036024616928602093616a75565b60405194859384927f55ea6c470000000000000000000000000000000000000000000000000000000084521660048301525afa5f91816169e6575b506169d257608460405162461bcd60e51b815260206004820152602160248201527f41444c563a204661696c656420746f207265736f6c76652049504163636f756e60448201527f74000000000000000000000000000000000000000000000000000000000000006064820152fd5b6155ac6001600160a01b038216151561685e565b9091506020813d602011616a1a575b81616a0260209383614e72565b8101031261100d57616a1390615804565b905f616963565b3d91506169f5565b9150506155ac6001600160a01b038216151561685e565b9091506020813d602011616a6d575b81616a5560209383614e72565b8101031261100d57616a6690615804565b905f61690d565b3d9150616a48565b8051602a81149081616d29575b5080616cd0575b616ac9576001600160a01b0390604051616ac26020828180820195805191829101875e81015f838201520301601f198101835282614e72565b5190201690565b602a815103616c8c575f6002915b602a8310616aee57506001600160a01b0391501690565b90616af983836165b0565b5160f81c603081101580616c81575b15616b89577fffffffffffffffffffffffffffffffffffffffffffffffffffffffffffffffd00160ff81116151cc575b73fffffffffffffffffffffffffffffffffffffff06001600160a01b0383169260041b1691808304601014901517156151cc5760ff16016001600160a01b0381116151cc5760019092019190616ad7565b604181101580616c76575b15616bd8577fffffffffffffffffffffffffffffffffffffffffffffffffffffffffffffffc90160ff811115616b3857634e487b7160e01b5f52601160045260245ffd5b606181101580616c6b575b15616c27577fffffffffffffffffffffffffffffffffffffffffffffffffffffffffffffffa90160ff811115616b3857634e487b7160e01b5f52601160045260245ffd5b606460405162461bcd60e51b815260206004820152601560248201527f496e76616c6964206865782063686172616374657200000000000000000000006044820152fd5b506066811115616be3565b506046811115616b94565b506039811115616b08565b606460405162461bcd60e51b815260206004820152601660248201527f496e76616c69642061646472657373206c656e677468000000000000000000006044820152fd5b50805160011015614dd9577f78000000000000000000000000000000000000000000000000000000000000007fff0000000000000000000000000000000000000000000000000000000000000060218301511614616a89565b905015614dd9577f30000000000000000000000000000000000000000000000000000000000000007fff00000000000000000000000000000000000000000000000000000000000000602083015116145f616a82565b5f60443d106155ac576040516003193d016004823e8051913d602484011167ffffffffffffffff841117616ded578282019283519167ffffffffffffffff8311616de5576003193d85010160208487010111616de557506155ac92910160200190614e72565b949350505050565b92915050565b6001600160a01b0316918215616fdc57616e56926001600160a01b035f8094604051968795869485937fa04a0908000000000000000000000000000000000000000000000000000000008552166004840152606060248401526064830190614d9f565b82604483015203925af15f9181616f89575b506155ac575f60033d11616f79575b6308c379a014616ec6575b606460405162461bcd60e51b815260206004820152602060248201527f41444c563a2049504163636f756e7420657865637574696f6e206661696c65646044820152fd5b616ece616d7f565b80616ed95750616e82565b6020616f556042616f75936040519384917f41444c563a2049504163636f756e7420657865637574696f6e206661696c6564828401527f3a2000000000000000000000000000000000000000000000000000000000000060408401528051918291018484015e81015f838201520301601f198101835282614e72565b60405191829162461bcd60e51b8352602060048401526024830190614d9f565b0390fd5b5060045f803e5f5160e01c616e77565b9091503d805f833e616f9b8183614e72565b81019060208183031261100d5780519067ffffffffffffffff821161100d57019080601f8301121561100d578151616fd5926020016156e8565b905f616e68565b606460405162461bcd60e51b815260206004820152601760248201527f41444c563a20496e76616c69642049504163636f756e740000000000000000006044820152fd5b909291906001600160a01b03168015616fdc576001600160a01b035f617086958195604051978896879586947fa04a0908000000000000000000000000000000000000000000000000000000008652166004850152606060248501526064840190614d9f565b90604483015203925af15f9181616f8957506155ac575f60033d11616f79576308c379a014616ec657606460405162461bcd60e51b815260206004820152602060248201527f41444c563a2049504163636f756e7420657865637574696f6e206661696c65646044820152fd5b919060ff60155416926003841015614f2d578315617225576013549360010361719a575081156171955761712790826159dc565b9061271082029180830461271014901517156151cc57617146916151f3565b908060011b91818304600214821517156151cc5761716a61271091617171946151e0565b04906151bf565b6064811061718d575b61271081116171865790565b5061271090565b50606461717a565b505090565b919081156164ef576171ac90826159dc565b61271081029080820461271014901517156151cc5769d3c21bcecceda1000000916171d6916151f3565b9104906101f4821161721b575b6127106171f36171fa92856151e0565b04836151bf565b818111156172115761720c92506159dc565b617171565b505060011c617171565b6101f491506171e3565b505050506013549056fea264697066735822122017908a5d9a93a9a2a866814a5df01357ee8a0c888188e2094a5b68a85fd351d264736f6c634300081e0033",
    "linkReferences": {}
  },
  "methodIdentifiers": {
    "LIQUIDATION_THRESHOLD()": "90a8ae9b",
    "MIN_CVS_RATIO()": "f77e69ce",
    "MIN_HEALTH_FACTOR()": "b5627e42",
    "borrowerLoans(address,uint256)": "e3ed1902",
    "calculateAccruedInterest(uint256)": "bb7d0bcf",
    "calculateInterest(uint256,uint256,uint256,uint256)": "724dfc92",
    "calculateInterestRate(uint256)": "90d3b379",
    "calculateMaxLoanAmount(address)": "70687166",
    "claimRoyalties(address)": "c162c916",
    "createVault(bytes32,string)": "8c4b3bcd",
    "creatorShareBps()": "b1a25c94",
    "defaultCollateralRatio()": "1cfe28dd",
    "defaultLoanTerms()": "4f7a1e3d",
    "deposit(address)": "f340fa01",
    "depositorShares(address,address)": "9403b07c",
    "derivativeToParentVault(address)": "599aae40",
    "getBorrowerLoans(address)": "eee8b7ff",
    "getDerivativeVaults(address)": "11deb6f3",
    "getIPAccountByStoryIPId(string)": "f9b32977",
    "getLicenseInfo(string)": "5e27820d",
    "getLoan(uint256)": "504006ca",
    "getLoanDetails(uint256)": "66877b8d",
    "getLoansByIPCollateral(address)": "6d500ca4",
    "getParentVault(address)": "363500cf",
    "getPendingRevenue(address)": "220cadbe",
    "getStoryIPId(address)": "386da5a7",
    "getVault(address)": "0eb9af38",
    "getVaultByStoryIPId(string)": "f53de3d9",
    "getVaultIPAccount(address)": "c1ee3270",
    "getVaultLicenses(address)": "b912f13e",
    "getVaultLoans(address)": "4f7d2694",
    "hasStoryIPId(address)": "b475c038",
    "idoContract()": "116f71ac",
    "interestRateModel()": "f3fdb15a",
    "ipCollateralLoans(address,uint256)": "db10a6b5",
    "ipCollateralValue(address)": "fa6f4097",
    "ipToVault(bytes32)": "98a51855",
    "isDerivativeVault(address)": "3c082984",
    "isLoanLiquidatable(uint256)": "ef4f2abb",
    "issueLoan(address,uint256,uint256)": "7c82e809",
    "issueLoanWithIPCollateral(address,uint256,uint256,address)": "712eac12",
    "lendingModule()": "7044dda7",
    "liquidateLoan(uint256)": "ccdd9f5d",
    "liquidationFeeBps()": "e031a824",
    "loanCounter()": "34d9289e",
    "loanNFT()": "34a41177",
    "loanToIPCollateral(uint256)": "678d750c",
    "loans(uint256)": "e1ec3c68",
    "owner()": "8da5cb5b",
    "protocolFeeBps()": "35659fb8",
    "registerDerivativeIP(address,uint256,string,bytes32)": "cba7efbc",
    "registerIPAndCreateVault(bytes32,uint8,string,bytes32,bytes)": "3303b87b",
    "repayLoan(uint256)": "ab7b1c89",
    "sellLicense(address,string,uint256)": "5ffd9b52",
    "sellLicenseWithSharing(address,string,uint256)": "e015fdc6",
    "setIDOContract(address)": "ff2c682c",
    "setProtocolFee(uint256)": "787dce3d",
    "setRoyaltyPolicy(address,address,uint256)": "f845211a",
    "setStoryIPAssetRegistry(address)": "854b5e19",
    "setStoryLicenseRegistry(address)": "db5d0aa9",
    "setStorySPG(address)": "004709b9",
    "setVaultLoanTerms(address,(uint256,uint256,uint256,uint256,uint256,uint256,uint256,bool))": "52c32d61",
    "storyIPAssetRegistry()": "16174abf",
    "storyIPIdToVault(string)": "484abe68",
    "storyLicenseRegistry()": "fb938ce1",
    "storySPG()": "669113e3",
    "totalShares(address)": "bf6b874e",
    "updateCVS(bytes32,uint256)": "86b58b73",
    "updateLoanHealth(uint256)": "030a9945",
    "updateStoryIPId(address,string)": "27bc08a8",
    "vaultCounter()": "ac958041",
    "vaultDerivatives(address,uint256)": "57c61d67",
    "vaultLicenses(address,uint256)": "ee458b1f",
    "vaultLoanTerms(address)": "2c35ceae",
    "vaultLoans(address,uint256)": "1518405e",
    "vaultShareBps()": "f2f85c06",
    "vaults(address)": "a622ee7c",
    "verifyIPAsset(string)": "5bf25602",
    "withdraw(address,uint256)": "f3fef3a3"
  },
  "id": 56
}