{"abi":[{"type":"constructor","inputs":[{"name":"initialOwner","type":"address","internalType":"address"}],"stateMutability":"nonpayable"},{"type":"function","name":"getCVS","inputs":[{"name":"ipId","type":"bytes32","internalType":"bytes32"}],"outputs":[{"name":"","type":"uint256","internalType":"uint256"}],"stateMutability":"view"},{"type":"function","name":"ipAssetCVS","inputs":[{"name":"","type":"bytes32","internalType":"bytes32"}],"outputs":[{"name":"","type":"uint256","internalType":"uint256"}],"stateMutability":"view"},{"type":"function","name":"owner","inputs":[],"outputs":[{"name":"","type":"address","internalType":"address"}],"stateMutability":"view"},{"type":"function","name":"recordRevenue","inputs":[{"name":"ipId","type":"bytes32","internalType":"bytes32"},{"name":"amount","type":"uint256","internalType":"uint256"}],"outputs":[],"stateMutability":"nonpayable"},{"type":"function","name":"renounceOwnership","inputs":[],"outputs":[],"stateMutability":"nonpayable"},{"type":"function","name":"totalLicenseRevenue","inputs":[{"name":"","type":"bytes32","internalType":"bytes32"}],"outputs":[{"name":"","type":"uint256","internalType":"uint256"}],"stateMutability":"view"},{"type":"function","name":"transferOwnership","inputs":[{"name":"newOwner","type":"address","internalType":"address"}],"outputs":[],"stateMutability":"nonpayable"},{"type":"function","name":"updateCVS","inputs":[{"name":"ipId","type":"bytes32","internalType":"bytes32"},{"name":"newCVS","type":"uint256","internalType":"uint256"}],"outputs":[],"stateMutability":"nonpayable"},{"type":"event","name":"CVSUpdated","inputs":[{"name":"ipId","type":"bytes32","indexed":true,"internalType":"bytes32"},{"name":"newCVS","type":"uint256","indexed":false,"internalType":"uint256"},{"name":"oldCVS","type":"uint256","indexed":false,"internalType":"uint256"}],"anonymous":false},{"type":"event","name":"OwnershipTransferred","inputs":[{"name":"previousOwner","type":"address","indexed":true,"internalType":"address"},{"name":"newOwner","type":"address","indexed":true,"internalType":"address"}],"anonymous":false},{"type":"event","name":"RevenueCollected","inputs":[{"name":"ipId","type":"bytes32","indexed":true,"internalType":"bytes32"},{"name":"amount","type":"uint256","indexed":false,"internalType":"uint256"}],"anonymous":false},{"type":"error","name":"OwnableInvalidOwner","inputs":[{"name":"owner","type":"address","internalType":"address"}]},{"type":"error","name":"OwnableUnauthorizedAccount","inputs":[{"name":"account","type":"address","internalType":"address"}]}],"bytecode":{"object":"0x60803460b857601f6103e238819003918201601f19168301916001600160401b0383118484101760bc5780849260209460405283398101031260b857516001600160a01b0381169081900360b857801560a5575f80546001600160a01b031981168317825560405192916001600160a01b03909116907f8be0079c531659141344cd1fd0a4f28419497f9722a3daafe3b4186f6b6457e09080a361031190816100d18239f35b631e4fbdf760e01b5f525f60045260245ffd5b5f80fd5b634e487b7160e01b5f52604160045260245ffdfe60806040526004361015610011575f80fd5b5f3560e01c806312149e421461022d5780634d32d6911461020357806356d9af1f14610203578063715018a6146101ac57806386b58b731461014f5780638da5cb5b14610128578063d7614b02146100fe5763f2fde38b14610071575f80fd5b346100fa5760203660031901126100fa576004356001600160a01b038116908190036100fa5761009f6102b5565b80156100e7575f80546001600160a01b03198116831782556001600160a01b0316907f8be0079c531659141344cd1fd0a4f28419497f9722a3daafe3b4186f6b6457e09080a3005b631e4fbdf760e01b5f525f60045260245ffd5b5f80fd5b346100fa5760203660031901126100fa576004355f526002602052602060405f2054604051908152f35b346100fa575f3660031901126100fa575f546040516001600160a01b039091168152602090f35b346100fa5760407f0e7b7490cd4d8f8719b8ad695658024a7b1d1ed7707d37840be9940c1ba5cd756101803661029f565b61018b9391936102b5565b5f8481526001602090815290839020805490839055835192835290820152a2005b346100fa575f3660031901126100fa576101c46102b5565b5f80546001600160a01b0319811682556001600160a01b03167f8be0079c531659141344cd1fd0a4f28419497f9722a3daafe3b4186f6b6457e08280a3005b346100fa5760203660031901126100fa576004355f526001602052602060405f2054604051908152f35b346100fa5761023b3661029f565b6102436102b5565b815f52600260205260405f2080549180830180931161028b577f98f448e7f283d230d866add7dbaed15cfec1a6750fd88683ee4af351a01d7dbd9260209255604051908152a2005b634e487b7160e01b5f52601160045260245ffd5b60409060031901126100fa576004359060243590565b5f546001600160a01b031633036102c857565b63118cdaa760e01b5f523360045260245ffdfea2646970667358221220e4a8c2ac3f84657014c74b549e33c08234a5e88a4561b6ddf59fa20e2e70e67764736f6c634300081e0033","linkReferences":{}},"methodIdentifiers":{"getCVS(bytes32)":"4d32d691","ipAssetCVS(bytes32)":"56d9af1f","owner()":"8da5cb5b","recordRevenue(bytes32,uint256)":"12149e42","renounceOwnership()":"715018a6","totalLicenseRevenue(bytes32)":"d7614b02","transferOwnership(address)":"f2fde38b","updateCVS(bytes32,uint256)":"86b58b73"},"id":3}