{"abi":[{"type":"constructor","inputs":[{"name":"_idoContract","type":"address","internalType":"address"}],"stateMutability":"nonpayable"},{"type":"function","name":"MIN_CVS_RATIO","inputs":[],"outputs":[{"name":"","type":"uint256","internalType":"uint256"}],"stateMutability":"view"},{"type":"function","name":"borrowerLoans","inputs":[{"name":"","type":"address","internalType":"address"},{"name":"","type":"uint256","internalType":"uint256"}],"outputs":[{"name":"","type":"uint256","internalType":"uint256"}],"stateMutability":"view"},{"type":"function","name":"calculateInterest","inputs":[{"name":"principal","type":"uint256","internalType":"uint256"},{"name":"rate","type":"uint256","internalType":"uint256"},{"name":"elapsedTime","type":"uint256","internalType":"uint256"},{"name":"duration","type":"uint256","internalType":"uint256"}],"outputs":[{"name":"","type":"uint256","internalType":"uint256"}],"stateMutability":"pure"},{"type":"function","name":"calculateInterestRate","inputs":[{"name":"cvs","type":"uint256","internalType":"uint256"}],"outputs":[{"name":"","type":"uint256","internalType":"uint256"}],"stateMutability":"pure"},{"type":"function","name":"calculateMaxLoanAmount","inputs":[{"name":"vaultAddress","type":"address","internalType":"address"}],"outputs":[{"name":"","type":"uint256","internalType":"uint256"}],"stateMutability":"view"},{"type":"function","name":"createVault","inputs":[{"name":"ipId","type":"bytes32","internalType":"bytes32"}],"outputs":[{"name":"vaultAddress","type":"address","internalType":"address"}],"stateMutability":"nonpayable"},{"type":"function","name":"creatorShareBps","inputs":[],"outputs":[{"name":"","type":"uint256","internalType":"uint256"}],"stateMutability":"view"},{"type":"function","name":"defaultCollateralRatio","inputs":[],"outputs":[{"name":"","type":"uint256","internalType":"uint256"}],"stateMutability":"view"},{"type":"function","name":"deposit","inputs":[{"name":"vaultAddress","type":"address","internalType":"address"}],"outputs":[{"name":"shares","type":"uint256","internalType":"uint256"}],"stateMutability":"payable"},{"type":"function","name":"depositorShares","inputs":[{"name":"","type":"address","internalType":"address"},{"name":"","type":"address","internalType":"address"}],"outputs":[{"name":"","type":"uint256","internalType":"uint256"}],"stateMutability":"view"},{"type":"function","name":"getBorrowerLoans","inputs":[{"name":"borrower","type":"address","internalType":"address"}],"outputs":[{"name":"","type":"uint256[]","internalType":"uint256[]"}],"stateMutability":"view"},{"type":"function","name":"getLoan","inputs":[{"name":"loanId","type":"uint256","internalType":"uint256"}],"outputs":[{"name":"","type":"tuple","internalType":"struct ADLV.Loan","components":[{"name":"loanId","type":"uint256","internalType":"uint256"},{"name":"vaultAddress","type":"address","internalType":"address"},{"name":"borrower","type":"address","internalType":"address"},{"name":"loanAmount","type":"uint256","internalType":"uint256"},{"name":"collateralAmount","type":"uint256","internalType":"uint256"},{"name":"interestRate","type":"uint256","internalType":"uint256"},{"name":"duration","type":"uint256","internalType":"uint256"},{"name":"cvsAtIssuance","type":"uint256","internalType":"uint256"},{"name":"startTime","type":"uint256","internalType":"uint256"},{"name":"endTime","type":"uint256","internalType":"uint256"},{"name":"repaidAmount","type":"uint256","internalType":"uint256"},{"name":"outstandingAmount","type":"uint256","internalType":"uint256"},{"name":"status","type":"uint8","internalType":"enum ADLV.LoanStatus"}]}],"stateMutability":"view"},{"type":"function","name":"getVault","inputs":[{"name":"vaultAddress","type":"address","internalType":"address"}],"outputs":[{"name":"","type":"tuple","internalType":"struct ADLV.Vault","components":[{"name":"vaultAddress","type":"address","internalType":"address"},{"name":"ipId","type":"bytes32","internalType":"bytes32"},{"name":"creator","type":"address","internalType":"address"},{"name":"totalLiquidity","type":"uint256","internalType":"uint256"},{"name":"availableLiquidity","type":"uint256","internalType":"uint256"},{"name":"totalLoansIssued","type":"uint256","internalType":"uint256"},{"name":"activeLoansCount","type":"uint256","internalType":"uint256"},{"name":"totalLicenseRevenue","type":"uint256","internalType":"uint256"},{"name":"totalLoanRepayments","type":"uint256","internalType":"uint256"},{"name":"createdAt","type":"uint256","internalType":"uint256"},{"name":"exists","type":"bool","internalType":"bool"}]}],"stateMutability":"view"},{"type":"function","name":"getVaultLoans","inputs":[{"name":"vaultAddress","type":"address","internalType":"address"}],"outputs":[{"name":"","type":"uint256[]","internalType":"uint256[]"}],"stateMutability":"view"},{"type":"function","name":"idoContract","inputs":[],"outputs":[{"name":"","type":"address","internalType":"contract IDO"}],"stateMutability":"view"},{"type":"function","name":"ipToVault","inputs":[{"name":"","type":"bytes32","internalType":"bytes32"}],"outputs":[{"name":"","type":"address","internalType":"address"}],"stateMutability":"view"},{"type":"function","name":"issueLoan","inputs":[{"name":"vaultAddress","type":"address","internalType":"address"},{"name":"loanAmount","type":"uint256","internalType":"uint256"},{"name":"duration","type":"uint256","internalType":"uint256"}],"outputs":[{"name":"loanId","type":"uint256","internalType":"uint256"}],"stateMutability":"payable"},{"type":"function","name":"liquidateLoan","inputs":[{"name":"loanId","type":"uint256","internalType":"uint256"}],"outputs":[],"stateMutability":"nonpayable"},{"type":"function","name":"loanCounter","inputs":[],"outputs":[{"name":"","type":"uint256","internalType":"uint256"}],"stateMutability":"view"},{"type":"function","name":"loans","inputs":[{"name":"","type":"uint256","internalType":"uint256"}],"outputs":[{"name":"loanId","type":"uint256","internalType":"uint256"},{"name":"vaultAddress","type":"address","internalType":"address"},{"name":"borrower","type":"address","internalType":"address"},{"name":"loanAmount","type":"uint256","internalType":"uint256"},{"name":"collateralAmount","type":"uint256","internalType":"uint256"},{"name":"interestRate","type":"uint256","internalType":"uint256"},{"name":"duration","type":"uint256","internalType":"uint256"},{"name":"cvsAtIssuance","type":"uint256","internalType":"uint256"},{"name":"startTime","type":"uint256","internalType":"uint256"},{"name":"endTime","type":"uint256","internalType":"uint256"},{"name":"repaidAmount","type":"uint256","internalType":"uint256"},{"name":"outstandingAmount","type":"uint256","internalType":"uint256"},{"name":"status","type":"uint8","internalType":"enum ADLV.LoanStatus"}],"stateMutability":"view"},{"type":"function","name":"owner","inputs":[],"outputs":[{"name":"","type":"address","internalType":"address"}],"stateMutability":"view"},{"type":"function","name":"protocolFeeBps","inputs":[],"outputs":[{"name":"","type":"uint256","internalType":"uint256"}],"stateMutability":"view"},{"type":"function","name":"repayLoan","inputs":[{"name":"loanId","type":"uint256","internalType":"uint256"}],"outputs":[],"stateMutability":"payable"},{"type":"function","name":"sellLicense","inputs":[{"name":"vaultAddress","type":"address","internalType":"address"},{"name":"licenseType","type":"string","internalType":"string"},{"name":"","type":"uint256","internalType":"uint256"}],"outputs":[],"stateMutability":"payable"},{"type":"function","name":"setIDOContract","inputs":[{"name":"_idoContract","type":"address","internalType":"address"}],"outputs":[],"stateMutability":"nonpayable"},{"type":"function","name":"setProtocolFee","inputs":[{"name":"_protocolFeeBps","type":"uint256","internalType":"uint256"}],"outputs":[],"stateMutability":"nonpayable"},{"type":"function","name":"totalShares","inputs":[{"name":"","type":"address","internalType":"address"}],"outputs":[{"name":"","type":"uint256","internalType":"uint256"}],"stateMutability":"view"},{"type":"function","name":"vaultCounter","inputs":[],"outputs":[{"name":"","type":"uint256","internalType":"uint256"}],"stateMutability":"view"},{"type":"function","name":"vaultLoans","inputs":[{"name":"","type":"address","internalType":"address"},{"name":"","type":"uint256","internalType":"uint256"}],"outputs":[{"name":"","type":"uint256","internalType":"uint256"}],"stateMutability":"view"},{"type":"function","name":"vaultShareBps","inputs":[],"outputs":[{"name":"","type":"uint256","internalType":"uint256"}],"stateMutability":"view"},{"type":"function","name":"vaults","inputs":[{"name":"","type":"address","internalType":"address"}],"outputs":[{"name":"vaultAddress","type":"address","internalType":"address"},{"name":"ipId","type":"bytes32","internalType":"bytes32"},{"name":"creator","type":"address","internalType":"address"},{"name":"totalLiquidity","type":"uint256","internalType":"uint256"},{"name":"availableLiquidity","type":"uint256","internalType":"uint256"},{"name":"totalLoansIssued","type":"uint256","internalType":"uint256"},{"name":"activeLoansCount","type":"uint256","internalType":"uint256"},{"name":"totalLicenseRevenue","type":"uint256","internalType":"uint256"},{"name":"totalLoanRepayments","type":"uint256","internalType":"uint256"},{"name":"createdAt","type":"uint256","internalType":"uint256"},{"name":"exists","type":"bool","internalType":"bool"}],"stateMutability":"view"},{"type":"function","name":"withdraw","inputs":[{"name":"vaultAddress","type":"address","internalType":"address"},{"name":"shares","type":"uint256","internalType":"uint256"}],"outputs":[],"stateMutability":"nonpayable"},{"type":"event","name":"CVSUpdated","inputs":[{"name":"vaultAddress","type":"address","indexed":true,"internalType":"address"},{"name":"oldCVS","type":"uint256","indexed":false,"internalType":"uint256"},{"name":"newCVS","type":"uint256","indexed":false,"internalType":"uint256"}],"anonymous":false},{"type":"event","name":"Deposited","inputs":[{"name":"vaultAddress","type":"address","indexed":true,"internalType":"address"},{"name":"depositor","type":"address","indexed":true,"internalType":"address"},{"name":"amount","type":"uint256","indexed":false,"internalType":"uint256"},{"name":"shares","type":"uint256","indexed":false,"internalType":"uint256"}],"anonymous":false},{"type":"event","name":"LicenseSold","inputs":[{"name":"vaultAddress","type":"address","indexed":true,"internalType":"address"},{"name":"ipId","type":"bytes32","indexed":true,"internalType":"bytes32"},{"name":"licensee","type":"address","indexed":true,"internalType":"address"},{"name":"price","type":"uint256","indexed":false,"internalType":"uint256"},{"name":"licenseType","type":"string","indexed":false,"internalType":"string"}],"anonymous":false},{"type":"event","name":"LoanDefaulted","inputs":[{"name":"vaultAddress","type":"address","indexed":true,"internalType":"address"},{"name":"borrower","type":"address","indexed":true,"internalType":"address"},{"name":"loanId","type":"uint256","indexed":true,"internalType":"uint256"}],"anonymous":false},{"type":"event","name":"LoanIssued","inputs":[{"name":"vaultAddress","type":"address","indexed":true,"internalType":"address"},{"name":"borrower","type":"address","indexed":true,"internalType":"address"},{"name":"loanId","type":"uint256","indexed":true,"internalType":"uint256"},{"name":"amount","type":"uint256","indexed":false,"internalType":"uint256"},{"name":"collateral","type":"uint256","indexed":false,"internalType":"uint256"},{"name":"interestRate","type":"uint256","indexed":false,"internalType":"uint256"},{"name":"duration","type":"uint256","indexed":false,"internalType":"uint256"}],"anonymous":false},{"type":"event","name":"LoanLiquidated","inputs":[{"name":"vaultAddress","type":"address","indexed":true,"internalType":"address"},{"name":"borrower","type":"address","indexed":true,"internalType":"address"},{"name":"loanId","type":"uint256","indexed":true,"internalType":"uint256"}],"anonymous":false},{"type":"event","name":"LoanRepaid","inputs":[{"name":"vaultAddress","type":"address","indexed":true,"internalType":"address"},{"name":"borrower","type":"address","indexed":true,"internalType":"address"},{"name":"loanId","type":"uint256","indexed":true,"internalType":"uint256"},{"name":"amount","type":"uint256","indexed":false,"internalType":"uint256"}],"anonymous":false},{"type":"event","name":"VaultCreated","inputs":[{"name":"vaultAddress","type":"address","indexed":true,"internalType":"address"},{"name":"ipId","type":"bytes32","indexed":true,"internalType":"bytes32"},{"name":"creator","type":"address","indexed":true,"internalType":"address"},{"name":"initialCVS","type":"uint256","indexed":false,"internalType":"uint256"}],"anonymous":false},{"type":"event","name":"Withdrawn","inputs":[{"name":"vaultAddress","type":"address","indexed":true,"internalType":"address"},{"name":"withdrawer","type":"address","indexed":true,"internalType":"address"},{"name":"amount","type":"uint256","indexed":false,"internalType":"uint256"},{"name":"shares","type":"uint256","indexed":false,"internalType":"uint256"}],"anonymous":false}],"bytecode":{"object":"0x6080346100e357601f6120b338819003918201601f19168301916001600160401b038311848410176100e7578084926020946040528339810103126100e357516001600160a01b038116908190036100e3576101f4600255611b586003556109c4600455613a98600555801561009e575f80546001600160a01b03199081169290921790556001805490911633179055604051611fb790816100fc8239f35b60405162461bcd60e51b815260206004820152601960248201527f41444c563a20496e76616c69642049444f2061646472657373000000000000006044820152606490fd5b5f80fd5b634e487b7160e01b5f52604160045260245ffdfe6080806040526004361015610012575f80fd5b5f905f3560e01c9081630eb9af3814611aad57508063116f71ac14611a865780631518405e14611a3d57806317799f36146117bc5780631cfe28dd1461179f57806334d9289e1461178257806335659fb8146117655780634f7d2694146116f3578063504006ca146115275780635ffd9b521461129957806370687166146111f1578063724dfc92146111c9578063787dce3d1461111b5780637c82e80914610d3a5780638da5cb5b14610d1157806390d3b37914610cea5780639403b07c14610c8657806398a5185514610c53578063a622ee7c14610b95578063ab7b1c8914610988578063ac9580411461096a578063b1a25c941461094c578063bf6b874e14610913578063ccdd9f5d146106b2578063e1ec3c68146105e5578063e3ed19021461058e578063eee8b7ff1461050c578063f2f85c06146104ee578063f340fa01146103d4578063f3fef3a314610229578063f77e69ce1461020d5763ff2c682c1461017e575f80fd5b3461020a57602036600319011261020a57610197611c1f565b6101ac60018060a01b03600154163314611de3565b6001600160a01b031680156101cd5781546001600160a01b03191617815580f35b60405162461bcd60e51b815260206004820152601560248201527441444c563a20496e76616c6964206164647265737360581b6044820152606490fd5b80fd5b503461020a578060031936011261020a57602060405160028152f35b503461020a57604036600319011261020a57610243611c1f565b6001600160a01b0316808252600860205260408220600a0154602435919061026d9060ff16611d36565b808352600d60209081526040808520335f9081529252902054821161038f57808352600860205260408320916003830160046102c06102ad835485611da0565b858852600e602052604088205490611d82565b9401906102d08583541015611e2f565b838652600d6020526040862060018060a01b0333165f5260205260405f206102f9848254611e22565b9055838652600e60205260408620610312848254611e22565b905561031f858254611e22565b905561032c848254611e22565b90558380848015610385575b8280929181923390f11561037a5760405192835260208301527f91fb9d98b786c57d74c099ccd2beca1739e9f6a81fb49001ca465c4b7591bbe260403393a380f35b6040513d85823e3d90fd5b6108fc9150610338565b60405162461bcd60e51b815260206004820152601960248201527f41444c563a20496e73756666696369656e7420736861726573000000000000006044820152606490fd5b50602036600319011261020a576020906001600160a01b036103f4611c1f565b168082526008835261040f60ff600a60408520015416611d36565b61041a341515611f3e565b8082526008835260046040832060038101805480155f146104c95750604034955b858152600d8852818120335f908152908952829020805461045d908990611e7b565b9055858152600e885220610472868254611e7b565b905561047f348254611e7b565b90550161048d348254611e7b565b90556040519034825282848301527ff5681f9d0db1b911ac18ee83d515a1cf1051853a9eae418316a2fdf7dea427c560403393a3604051908152f35b6104e8604091868852600e89526104e38389205434611da0565b611d82565b9561043b565b503461020a578060031936011261020a576020600454604051908152f35b503461020a57602036600319011261020a576001600160a01b0361052e611c1f565b168152600b60205260408120604051918260208354918281520192825260208220915b818110610578576105748561056881870382611cf2565b60405191829182611c5e565b0390f35b8254845260209093019260019283019201610551565b503461020a57604036600319011261020a576105a8611c1f565b6001600160a01b03168152600b602052604081208054602435929083101561020a5760206105d68484611c35565b90549060031b1c604051908152f35b503461020a57602036600319011261020a5760406101a09160043581526009602052206106b081549160018060a01b036001820154169060018060a01b036002820154166003820154600483015460058401546006850154600786015491600887015493600988015495600a8901549760ff600c600b8c01549b0154169a60206040519e8f908152015260408d015260608c015260808b015260a08a015260c089015260e0880152610100870152610120860152610140850152610160840152610180830190611c97565bf35b503461020a57602036600319011261020a57600435808252600960205260408220600c810160ff81541660058110156108ff5760016106f19114611efa565b600982015442119081156108c157600183019160018060a01b03835416865260086020526001604087200154602060018060a01b0388541691602460405180948193634d32d69160e01b835260048301525afa9081156108b6578791610880575b506003850154908160011b918083046002149015171561086c5710908115610864575b501561081f57805460ff1916600417905580546001600160a01b0316845260086020526040842060060180545f1981019190821161080b5755838080806004860154818115610802575b3390f11561037a57546002909101546001600160a01b0390811691167fd4bfdcd3d7029abe0d70d4a6f1f560c5eac8d3cd6ecef801c6d3d67a49be60688480a480f35b506108fc6107bf565b634e487b7160e01b86526011600452602486fd5b60405162461bcd60e51b815260206004820152601b60248201527f41444c563a204c6f616e206e6f74206c6971756964617461626c6500000000006044820152606490fd5b90505f610775565b634e487b7160e01b88526011600452602488fd5b90506020813d6020116108ae575b8161089b60209383611cf2565b810103126108aa57515f610752565b5f80fd5b3d915061088e565b6040513d89823e3d90fd5b60405162461bcd60e51b8152602060048201526016602482015275105113158e88131bd85b881b9bdd08195e1c1a5c995960521b6044820152606490fd5b634e487b7160e01b85526021600452602485fd5b503461020a57602036600319011261020a576020906040906001600160a01b0361093b611c1f565b168152600e83522054604051908152f35b503461020a578060031936011261020a576020600354604051908152f35b503461020a578060031936011261020a576020600754604051908152f35b50602036600319011261020a57600435808252600960205260408220600c810160ff81541660058110156108ff5760016109c29114611efa565b6002820180549092906001600160a01b03163303610b5b576109e5341515611f3e565b610a156003820154610a0f6005840154610a03600886015442611e22565b60068601549184611db3565b90611e7b565b600a82018054610a258184611e22565b3410610b3657505584600b820155600260ff198354161782558480808060018060a01b03875416600486015490828215610b2d575bf115610b22576001905b019060018060a01b038254168552600860205260ff604086209160088301610a8d348254611e7b565b905560048301610a9e348254611e7b565b905554166005811015610b0e57600214610af6575b505490546040513481526001600160a01b0391821692909116907fa6f6d5e50bc84f153a0d6a9f9b37780433f92dc32d7e10f975ab3831c36898fa90602090a480f35b60060180545f1981019190821161080b57555f610ab3565b634e487b7160e01b86526021600452602486fd5b6040513d86823e3d90fd5b506108fc610a5a565b9060019392610b49610b51933490611e7b565b809255611e22565b600b820155610a64565b60405162461bcd60e51b815260206004820152601260248201527120a2262b1d102737ba103137b93937bbb2b960711b6044820152606490fd5b503461020a57602036600319011261020a57610160906040906001600160a01b03610bbe611c1f565b16815260086020522060018060a01b038154169060018101549060018060a01b0360028201541660038201546004830154600584015460068501549160078601549360088701549560ff600a60098a015499015416986040519a8b5260208b015260408a01526060890152608088015260a087015260c086015260e08501526101008401526101208301521515610140820152f35b503461020a57602036600319011261020a576020906004358152600c8252604060018060a01b0391205416604051908152f35b503461020a57604036600319011261020a57610ca0611c1f565b60243591906001600160a01b0383168303610ce6579060409160018060a01b03168152600d602052209060018060a01b03165f52602052602060405f2054604051908152f35b5080fd5b503461020a57602036600319011261020a576020610d09600435611ec1565b604051908152f35b503461020a578060031936011261020a576001546040516001600160a01b039091168152602090f35b50606036600319011261020a57610d4f611c1f565b6001600160a01b0316808252600860205260408220600a015460243592919060443590610d7e9060ff16611d36565b818352600860205260408320600181015493602060018060a01b0382541695602460405180988193634d32d69160e01b835260048301525afa94851561110e5781956110da575b508560011b8615908781046002148217156110c65786106110885760048301610df18882541015611e2f565b610dfa87611ec1565b93612710610e0a6005548b611da0565b043410611043576006548098610e1f82611d14565b6006558a86610e2e8a42611e7b565b60405193610e3b85611cd5565b85855260208501908d82528c8c604088013381526060890188815260808a019134835260a08b0193845260c08b0194855260e08b019586526101008b01964288526101208c019889526101408c0199808b526101608d019b8c526101808d019d60018f5281526009602052604090209b518c55600160a01b6001900390511660018c0190600160a01b60019003166001600160601b0360a01b825416179055600160a01b6001900390511660028b0190600160a01b60019003166001600160601b0360a01b8254161790555160038a015551600489015551600588015551600687015551600786015551600885015551600984015551600a83015551600b820155600c0190516005811015610b0e57906006929160ff80198354169116179055878552600a602052610f708960408720611e88565b338552600b602052610f858960408720611e88565b60058101610f948b8254611e7b565b9055018054906001820180921161102f57908493929155610fb6898254611e22565b9055878291611025575b8280929181923390f1156110195750916020949184936040519384523487850152604084015260608301527f9a02a54d28aedabf1c3f226b73fdf6a9791805374efe9febef3ec6805248a02b60803393a4604051908152f35b604051903d90823e3d90fd5b6108fc9150610fc0565b634e487b7160e01b85526011600452602485fd5b60405162461bcd60e51b815260206004820152601d60248201527f41444c563a20496e73756666696369656e7420636f6c6c61746572616c0000006044820152606490fd5b60405162461bcd60e51b815260206004820152601660248201527541444c563a20496e73756666696369656e742043565360501b6044820152606490fd5b634e487b7160e01b83526011600452602483fd5b9094506020813d602011611106575b816110f660209383611cf2565b810103126108aa5751935f610dc5565b3d91506110e9565b50604051903d90823e3d90fd5b503461020a57602036600319011261020a5760043561114560018060a01b03600154163314611de3565b6103e8811161118f578060025580612710039061271082116110c6576046820290828204604614906127101417156110c65790606461118992049081600355611e22565b60045580f35b60405162461bcd60e51b81526020600482015260126024820152710828898ac74408ccaca40e8dede40d0d2ced60731b6044820152606490fd5b503461020a57608036600319011261020a576020610d09606435604435602435600435611db3565b503461020a57602036600319011261020a576001600160a01b03611213611c1f565b1681526008602052600160408220015490602060018060a01b0382541692602460405180958193634d32d69160e01b835260048301525afa9081156110195790611266575b6020906040519060011c8152f35b506020813d602011611291575b8161128060209383611cf2565b810103126108aa5760209051611258565b3d9150611273565b5060603660031901126108aa576112ae611c1f565b60243567ffffffffffffffff81116108aa57366023820112156108aa5780600401359167ffffffffffffffff83116108aa5736602484840101116108aa576001600160a01b03165f818152600860205260409020600a01546113129060ff16611d36565b34156114ec575f8181526008602052604090206001810154600254909391906127109061133f9034611da0565b049061271061135060035434611da0565b0491611365836113608334611e22565b611e22565b5f546001600160a01b0316803b156108aa575f809160446040518094819363090a4f2160e11b83528d60048401528760248401525af180156114e1576114c6575b5082918994939160078693016113bd828254611e7b565b9055600384016113ce828254611e7b565b90556113df60048501918254611e7b565b9055801590811561148b575b5050508115908115611458575b505050507fb95b9670f342744ee734fb423b9c01db040b4a0aad1b1a3c2704d8a42478d3f990846024604051923484526040602085015282604085015201606083013785606086830101526060813396601f80199101168101030190a480f35b600201548392839283926001600160a01b0316908390611482575bf115610b2257845f80806113f8565b506108fc611473565b82809291819260018060a01b03600154169083906114bd575bf1156114b257825f806113eb565b6040513d84823e3d90fd5b506108fc6114a4565b6114d69194939299505f90611cf2565b5f979091925f6113a6565b6040513d5f823e3d90fd5b60405162461bcd60e51b815260206004820152601360248201527241444c563a20496e76616c696420707269636560681b6044820152606490fd5b346108aa5760203660031901126108aa575f61018060405161154881611cd5565b8281528260208201528260408201528260608201528260808201528260a08201528260c08201528260e08201528261010082015282610120820152826101408201528261016082015201526004355f52600960205260405f20604051906115ae82611cd5565b8054825260018060a01b03600182015416906020830191825260018060a01b03600282015416604084019081528360038301549260608201938452600481015460808301908152600582015460a08401908152600683015460c0850190815260078401549060e086019182526008850154926101008701938452600986015494610120880195865260ff600c600a890154986101408b01998a52610160600b8201549b019a8b52015416996101808d019960058c10156116df576101a09d6106b09c8c5260206040519e8f9251835260018060a01b0390511691015260018060a01b0390511660408d01525160608c01525160808b01525160a08a01525160c08901525160e08801525161010087015251610120860152516101408501525161016084015251610180830190611c97565b634e487b7160e01b5f52602160045260245ffd5b346108aa5760203660031901126108aa576001600160a01b03611714611c1f565b165f52600a60205260405f206040519081602082549182815201915f5260205f20905f5b81811061174f576105748561056881870382611cf2565b8254845260209093019260019283019201611738565b346108aa575f3660031901126108aa576020600254604051908152f35b346108aa575f3660031901126108aa576020600654604051908152f35b346108aa575f3660031901126108aa576020600554604051908152f35b346108aa5760203660031901126108aa576004355f818152600c60205260409020546001600160a01b03166119f8575f54604051634d32d69160e01b8152600481018390529190602090839060249082906001600160a01b03165afa80156114e1575f906119c5575b60209250600754916118706040518581014281523360601b60408301528360548301528560748301526074825261185d609483611cf2565b905190206001600160a01b031693611d14565b60075582600a60405161188281611ca4565b82815286810184815260408201338152606083015f8152608084015f815260a085015f815260c08601915f835260e08701935f85526101008801955f87526101208901974289526101408a019b60018d525f528f6008905260405f209960018060a01b039060018060a01b03905116166001600160601b0360a01b8b5416178a555160018a015560018060a01b03905116600289019060018060a01b03166001600160601b0360a01b825416179055516003880155516004870155516005860155516006850155516007840155516008830155516009820155019051151560ff80198354169116179055805f52600c845260405f2060018060a01b0384166001600160601b0360a01b825416179055604051918252827fb1df0c72509178f65ecefcf11e5c46f18b71416215d3199b946f98f318a85f2f853394a4604051908152f35b506020823d6020116119f0575b816119df60209383611cf2565b810103126108aa5760209151611825565b3d91506119d2565b60405162461bcd60e51b815260206004820152601a60248201527f41444c563a205661756c7420616c7265616479206578697374730000000000006044820152606490fd5b346108aa5760403660031901126108aa57611a56611c1f565b6001600160a01b03165f908152600a60205260409020805460243591908210156108aa576020916105d691611c35565b346108aa575f3660031901126108aa575f546040516001600160a01b039091168152602090f35b346108aa5760203660031901126108aa575f610140611aca611c1f565b92611ad481611ca4565b8281528260208201528260408201528260608201528260808201528260a08201528260c08201528260e08201528261010082015282610120820152015260018060a01b03165f52600860205261016060405f20604051611b3381611ca4565b8060018060a01b038354169283825260018101546020830190815260018060a01b036002830154166040840190815260038301546060850190815260048401546080860190815260058501549160a0870192835260068601549360c0880194855260078701549560e0890196875261014060ff600a60088b01549a6101008d019b8c5261012060098201549d019c8d520154169a019915158a526040519a8b525160208b015260018060a01b0390511660408a01525160608901525160808801525160a08701525160c08601525160e08501525161010084015251610120830152511515610140820152f35b600435906001600160a01b03821682036108aa57565b8054821015611c4a575f5260205f2001905f90565b634e487b7160e01b5f52603260045260245ffd5b60206040818301928281528451809452019201905f5b818110611c815750505090565b8251845260209384019390920191600101611c74565b9060058210156116df5752565b610160810190811067ffffffffffffffff821117611cc157604052565b634e487b7160e01b5f52604160045260245ffd5b6101a0810190811067ffffffffffffffff821117611cc157604052565b90601f8019910116810190811067ffffffffffffffff821117611cc157604052565b5f198114611d225760010190565b634e487b7160e01b5f52601160045260245ffd5b15611d3d57565b60405162461bcd60e51b815260206004820152601a60248201527f41444c563a205661756c7420646f6573206e6f742065786973740000000000006044820152606490fd5b8115611d8c570490565b634e487b7160e01b5f52601260045260245ffd5b81810292918115918404141715611d2257565b611dc69291611dc191611da0565b611da0565b90806127100290612710820403611d2257611de091611d82565b90565b15611dea57565b60405162461bcd60e51b815260206004820152601060248201526f20a2262b1d1027b7363c9037bbb732b960811b6044820152606490fd5b91908203918211611d2257565b15611e3657565b60405162461bcd60e51b815260206004820152601c60248201527f41444c563a20496e73756666696369656e74206c6971756964697479000000006044820152606490fd5b91908201809211611d2257565b805468010000000000000000811015611cc157611eaa91600182018155611c35565b819291549060031b91821b915f19901b1916179055565b60649004806107d0115f14611ef1576107d0036107d08111611d22575b6101f48110611eea5790565b506101f490565b506101f4611ede565b15611f0157565b60405162461bcd60e51b815260206004820152601560248201527441444c563a204c6f616e206e6f742061637469766560581b6044820152606490fd5b15611f4557565b60405162461bcd60e51b8152602060048201526014602482015273105113158e88125b9d985b1a5908185b5bdd5b9d60621b6044820152606490fdfea26469706673582212208b09d07892f5caa93d261873b172cc26a4af114c2c1ee52deb4dad51001c453d64736f6c634300081e0033","linkReferences":{}},"methodIdentifiers":{"MIN_CVS_RATIO()":"f77e69ce","borrowerLoans(address,uint256)":"e3ed1902","calculateInterest(uint256,uint256,uint256,uint256)":"724dfc92","calculateInterestRate(uint256)":"90d3b379","calculateMaxLoanAmount(address)":"70687166","createVault(bytes32)":"17799f36","creatorShareBps()":"b1a25c94","defaultCollateralRatio()":"1cfe28dd","deposit(address)":"f340fa01","depositorShares(address,address)":"9403b07c","getBorrowerLoans(address)":"eee8b7ff","getLoan(uint256)":"504006ca","getVault(address)":"0eb9af38","getVaultLoans(address)":"4f7d2694","idoContract()":"116f71ac","ipToVault(bytes32)":"98a51855","issueLoan(address,uint256,uint256)":"7c82e809","liquidateLoan(uint256)":"ccdd9f5d","loanCounter()":"34d9289e","loans(uint256)":"e1ec3c68","owner()":"8da5cb5b","protocolFeeBps()":"35659fb8","repayLoan(uint256)":"ab7b1c89","sellLicense(address,string,uint256)":"5ffd9b52","setIDOContract(address)":"ff2c682c","setProtocolFee(uint256)":"787dce3d","totalShares(address)":"bf6b874e","vaultCounter()":"ac958041","vaultLoans(address,uint256)":"1518405e","vaultShareBps()":"f2f85c06","vaults(address)":"a622ee7c","withdraw(address,uint256)":"f3fef3a3"},"id":2}