{"abi":[{"type":"constructor","inputs":[{"name":"_idoContract","type":"address","internalType":"address"},{"name":"_loanNFT","type":"address","internalType":"address"}],"stateMutability":"nonpayable"},{"type":"function","name":"LIQUIDATION_THRESHOLD","inputs":[],"outputs":[{"name":"","type":"uint256","internalType":"uint256"}],"stateMutability":"view"},{"type":"function","name":"MIN_CVS_RATIO","inputs":[],"outputs":[{"name":"","type":"uint256","internalType":"uint256"}],"stateMutability":"view"},{"type":"function","name":"MIN_HEALTH_FACTOR","inputs":[],"outputs":[{"name":"","type":"uint256","internalType":"uint256"}],"stateMutability":"view"},{"type":"function","name":"adlvContract","inputs":[],"outputs":[{"name":"","type":"address","internalType":"address"}],"stateMutability":"view"},{"type":"function","name":"borrowerLoans","inputs":[{"name":"","type":"address","internalType":"address"},{"name":"","type":"uint256","internalType":"uint256"}],"outputs":[{"name":"","type":"uint256","internalType":"uint256"}],"stateMutability":"view"},{"type":"function","name":"calculateAccruedInterest","inputs":[{"name":"loanId","type":"uint256","internalType":"uint256"}],"outputs":[{"name":"interest","type":"uint256","internalType":"uint256"}],"stateMutability":"view"},{"type":"function","name":"defaultLoanTerms","inputs":[],"outputs":[{"name":"minLoanAmount","type":"uint256","internalType":"uint256"},{"name":"maxLoanAmount","type":"uint256","internalType":"uint256"},{"name":"minDuration","type":"uint256","internalType":"uint256"},{"name":"maxDuration","type":"uint256","internalType":"uint256"},{"name":"minCollateralRatio","type":"uint256","internalType":"uint256"},{"name":"liquidationPenalty","type":"uint256","internalType":"uint256"},{"name":"baseInterestRate","type":"uint256","internalType":"uint256"},{"name":"allowIPCollateral","type":"bool","internalType":"bool"}],"stateMutability":"view"},{"type":"function","name":"getBorrowerLoans","inputs":[{"name":"borrower","type":"address","internalType":"address"}],"outputs":[{"name":"","type":"uint256[]","internalType":"uint256[]"}],"stateMutability":"view"},{"type":"function","name":"getLoan","inputs":[{"name":"loanId","type":"uint256","internalType":"uint256"}],"outputs":[{"name":"","type":"tuple","internalType":"struct LendingModule.Loan","components":[{"name":"loanId","type":"uint256","internalType":"uint256"},{"name":"vaultAddress","type":"address","internalType":"address"},{"name":"borrower","type":"address","internalType":"address"},{"name":"loanAmount","type":"uint256","internalType":"uint256"},{"name":"collateralAmount","type":"uint256","internalType":"uint256"},{"name":"ipCollateral","type":"address","internalType":"address"},{"name":"ipCollateralValue","type":"uint256","internalType":"uint256"},{"name":"interestRate","type":"uint256","internalType":"uint256"},{"name":"duration","type":"uint256","internalType":"uint256"},{"name":"cvsAtIssuance","type":"uint256","internalType":"uint256"},{"name":"startTime","type":"uint256","internalType":"uint256"},{"name":"endTime","type":"uint256","internalType":"uint256"},{"name":"repaidAmount","type":"uint256","internalType":"uint256"},{"name":"outstandingAmount","type":"uint256","internalType":"uint256"},{"name":"accruedInterest","type":"uint256","internalType":"uint256"},{"name":"healthFactor","type":"uint256","internalType":"uint256"},{"name":"liquidationThreshold","type":"uint256","internalType":"uint256"},{"name":"status","type":"uint8","internalType":"enum LendingModule.LoanStatus"}]}],"stateMutability":"view"},{"type":"function","name":"getLoanDetails","inputs":[{"name":"loanId","type":"uint256","internalType":"uint256"}],"outputs":[{"name":"loan","type":"tuple","internalType":"struct LendingModule.Loan","components":[{"name":"loanId","type":"uint256","internalType":"uint256"},{"name":"vaultAddress","type":"address","internalType":"address"},{"name":"borrower","type":"address","internalType":"address"},{"name":"loanAmount","type":"uint256","internalType":"uint256"},{"name":"collateralAmount","type":"uint256","internalType":"uint256"},{"name":"ipCollateral","type":"address","internalType":"address"},{"name":"ipCollateralValue","type":"uint256","internalType":"uint256"},{"name":"interestRate","type":"uint256","internalType":"uint256"},{"name":"duration","type":"uint256","internalType":"uint256"},{"name":"cvsAtIssuance","type":"uint256","internalType":"uint256"},{"name":"startTime","type":"uint256","internalType":"uint256"},{"name":"endTime","type":"uint256","internalType":"uint256"},{"name":"repaidAmount","type":"uint256","internalType":"uint256"},{"name":"outstandingAmount","type":"uint256","internalType":"uint256"},{"name":"accruedInterest","type":"uint256","internalType":"uint256"},{"name":"healthFactor","type":"uint256","internalType":"uint256"},{"name":"liquidationThreshold","type":"uint256","internalType":"uint256"},{"name":"status","type":"uint8","internalType":"enum LendingModule.LoanStatus"}]},{"name":"currentHealth","type":"uint256","internalType":"uint256"},{"name":"currentDebt","type":"uint256","internalType":"uint256"}],"stateMutability":"view"},{"type":"function","name":"getLoansByIPCollateral","inputs":[{"name":"ipAsset","type":"address","internalType":"address"}],"outputs":[{"name":"","type":"uint256[]","internalType":"uint256[]"}],"stateMutability":"view"},{"type":"function","name":"getVaultLoans","inputs":[{"name":"vaultAddress","type":"address","internalType":"address"}],"outputs":[{"name":"","type":"uint256[]","internalType":"uint256[]"}],"stateMutability":"view"},{"type":"function","name":"idoContract","inputs":[],"outputs":[{"name":"","type":"address","internalType":"contract IDO"}],"stateMutability":"view"},{"type":"function","name":"interestRateModel","inputs":[],"outputs":[{"name":"","type":"uint8","internalType":"enum LendingModule.InterestRateModel"}],"stateMutability":"view"},{"type":"function","name":"ipCollateralLoans","inputs":[{"name":"","type":"address","internalType":"address"},{"name":"","type":"uint256","internalType":"uint256"}],"outputs":[{"name":"","type":"uint256","internalType":"uint256"}],"stateMutability":"view"},{"type":"function","name":"isLoanLiquidatable","inputs":[{"name":"loanId","type":"uint256","internalType":"uint256"}],"outputs":[{"name":"isLiquidatable","type":"bool","internalType":"bool"},{"name":"reason","type":"string","internalType":"string"}],"stateMutability":"view"},{"type":"function","name":"issueLoan","inputs":[{"name":"vaultAddress","type":"address","internalType":"address"},{"name":"borrower","type":"address","internalType":"address"},{"name":"loanAmount","type":"uint256","internalType":"uint256"},{"name":"duration","type":"uint256","internalType":"uint256"},{"name":"ipCollateral","type":"address","internalType":"address"},{"name":"ethCollateral","type":"uint256","internalType":"uint256"},{"name":"currentCVS","type":"uint256","internalType":"uint256"},{"name":"availableLiquidity","type":"uint256","internalType":"uint256"},{"name":"totalLiquidity","type":"uint256","internalType":"uint256"}],"outputs":[{"name":"loanId","type":"uint256","internalType":"uint256"}],"stateMutability":"payable"},{"type":"function","name":"liquidateLoan","inputs":[{"name":"loanId","type":"uint256","internalType":"uint256"}],"outputs":[{"name":"collateralAmount","type":"uint256","internalType":"uint256"},{"name":"protocolFee","type":"uint256","internalType":"uint256"},{"name":"liquidationReward","type":"uint256","internalType":"uint256"}],"stateMutability":"nonpayable"},{"type":"function","name":"liquidationFeeBps","inputs":[],"outputs":[{"name":"","type":"uint256","internalType":"uint256"}],"stateMutability":"view"},{"type":"function","name":"loanCounter","inputs":[],"outputs":[{"name":"","type":"uint256","internalType":"uint256"}],"stateMutability":"view"},{"type":"function","name":"loanNFT","inputs":[],"outputs":[{"name":"","type":"address","internalType":"address"}],"stateMutability":"view"},{"type":"function","name":"loanToIPCollateral","inputs":[{"name":"","type":"uint256","internalType":"uint256"}],"outputs":[{"name":"","type":"address","internalType":"address"}],"stateMutability":"view"},{"type":"function","name":"loans","inputs":[{"name":"","type":"uint256","internalType":"uint256"}],"outputs":[{"name":"loanId","type":"uint256","internalType":"uint256"},{"name":"vaultAddress","type":"address","internalType":"address"},{"name":"borrower","type":"address","internalType":"address"},{"name":"loanAmount","type":"uint256","internalType":"uint256"},{"name":"collateralAmount","type":"uint256","internalType":"uint256"},{"name":"ipCollateral","type":"address","internalType":"address"},{"name":"ipCollateralValue","type":"uint256","internalType":"uint256"},{"name":"interestRate","type":"uint256","internalType":"uint256"},{"name":"duration","type":"uint256","internalType":"uint256"},{"name":"cvsAtIssuance","type":"uint256","internalType":"uint256"},{"name":"startTime","type":"uint256","internalType":"uint256"},{"name":"endTime","type":"uint256","internalType":"uint256"},{"name":"repaidAmount","type":"uint256","internalType":"uint256"},{"name":"outstandingAmount","type":"uint256","internalType":"uint256"},{"name":"accruedInterest","type":"uint256","internalType":"uint256"},{"name":"healthFactor","type":"uint256","internalType":"uint256"},{"name":"liquidationThreshold","type":"uint256","internalType":"uint256"},{"name":"status","type":"uint8","internalType":"enum LendingModule.LoanStatus"}],"stateMutability":"view"},{"type":"function","name":"owner","inputs":[],"outputs":[{"name":"","type":"address","internalType":"address"}],"stateMutability":"view"},{"type":"function","name":"repayLoan","inputs":[{"name":"loanId","type":"uint256","internalType":"uint256"},{"name":"repaymentAmount","type":"uint256","internalType":"uint256"}],"outputs":[{"name":"totalRepaid","type":"uint256","internalType":"uint256"},{"name":"collateralReturned","type":"uint256","internalType":"uint256"},{"name":"fullyRepaid","type":"bool","internalType":"bool"}],"stateMutability":"nonpayable"},{"type":"function","name":"setADLVContract","inputs":[{"name":"_adlvContract","type":"address","internalType":"address"}],"outputs":[],"stateMutability":"nonpayable"},{"type":"function","name":"updateLoanHealth","inputs":[{"name":"loanId","type":"uint256","internalType":"uint256"}],"outputs":[{"name":"healthFactor","type":"uint256","internalType":"uint256"}],"stateMutability":"nonpayable"},{"type":"function","name":"vaultLoanTerms","inputs":[{"name":"","type":"address","internalType":"address"}],"outputs":[{"name":"minLoanAmount","type":"uint256","internalType":"uint256"},{"name":"maxLoanAmount","type":"uint256","internalType":"uint256"},{"name":"minDuration","type":"uint256","internalType":"uint256"},{"name":"maxDuration","type":"uint256","internalType":"uint256"},{"name":"minCollateralRatio","type":"uint256","internalType":"uint256"},{"name":"liquidationPenalty","type":"uint256","internalType":"uint256"},{"name":"baseInterestRate","type":"uint256","internalType":"uint256"},{"name":"allowIPCollateral","type":"bool","internalType":"bool"}],"stateMutability":"view"},{"type":"function","name":"vaultLoans","inputs":[{"name":"","type":"address","internalType":"address"},{"name":"","type":"uint256","internalType":"uint256"}],"outputs":[{"name":"","type":"uint256","internalType":"uint256"}],"stateMutability":"view"},{"type":"event","name":"IPCollateralAdded","inputs":[{"name":"loanId","type":"uint256","indexed":true,"internalType":"uint256"},{"name":"ipAsset","type":"address","indexed":true,"internalType":"address"},{"name":"cvsValue","type":"uint256","indexed":false,"internalType":"uint256"}],"anonymous":false},{"type":"event","name":"LoanHealthUpdated","inputs":[{"name":"loanId","type":"uint256","indexed":true,"internalType":"uint256"},{"name":"healthFactor","type":"uint256","indexed":false,"internalType":"uint256"},{"name":"currentCVS","type":"uint256","indexed":false,"internalType":"uint256"}],"anonymous":false},{"type":"event","name":"LoanIssued","inputs":[{"name":"vaultAddress","type":"address","indexed":true,"internalType":"address"},{"name":"borrower","type":"address","indexed":true,"internalType":"address"},{"name":"loanId","type":"uint256","indexed":true,"internalType":"uint256"},{"name":"amount","type":"uint256","indexed":false,"internalType":"uint256"},{"name":"collateral","type":"uint256","indexed":false,"internalType":"uint256"},{"name":"interestRate","type":"uint256","indexed":false,"internalType":"uint256"},{"name":"duration","type":"uint256","indexed":false,"internalType":"uint256"}],"anonymous":false},{"type":"event","name":"LoanLiquidated","inputs":[{"name":"vaultAddress","type":"address","indexed":true,"internalType":"address"},{"name":"borrower","type":"address","indexed":true,"internalType":"address"},{"name":"loanId","type":"uint256","indexed":true,"internalType":"uint256"}],"anonymous":false},{"type":"event","name":"LoanRepaid","inputs":[{"name":"vaultAddress","type":"address","indexed":true,"internalType":"address"},{"name":"borrower","type":"address","indexed":true,"internalType":"address"},{"name":"loanId","type":"uint256","indexed":true,"internalType":"uint256"},{"name":"amount","type":"uint256","indexed":false,"internalType":"uint256"}],"anonymous":false}],"bytecode":{"object":"0x60806040523461017657604051601f6129ca38819003918201601f19168301916001600160401b038311848410176101625780849260409485528339810103126101765761005860206100518361017a565b920161017a565b6101f46005555f80546001600160a01b03199081166001600160a01b039485161790915560018054821693909216929092179055600380549091163317905560405161010081016001600160401b038111828210176101625760019160e091604052662386f26fc100008152683635c9adc5dea00000602082015262093a8060408201526301e133806060820152613a9860808201526103e860a08201526103e860c08201520152662386f26fc10000600c55683635c9adc5dea00000600d5562093a80600e556301e13380600f55613a986010556103e86011556103e8601255600160ff196013541617601355600260ff19601454161760145560405161283b908161018f8239f35b634e487b7160e01b5f52604160045260245ffd5b5f80fd5b51906001600160a01b03821682036101765756fe6101006040526004361015610012575f80fd5b5f5f3560e01c8063030a994514611bc9578063116f71ac14611ba45780631518405e14611b5e5780632a9bf12814611a9f5780632c35ceae14611a0357806334a41177146119dd57806334d9289e146119c05780634f7a1e3d1461195b5780634f7d2694146118e9578063504006ca146117c657806366877b8d14611505578063678d750c146114d25780636d500ca414611460578063884ec7f61461143a5780638a700b53146111d45780638da5cb5b146111ad57806390a8ae9b14611190578063b5627e4214611173578063b5dcc1ef146107a1578063bb7d0bcf1461077a578063ccdd9f5d146104d3578063db10a6b51461048b578063e031a8241461046d578063e1ec3c6814610321578063e3ed1902146102ca578063eee8b7ff14610248578063ef4f2abb146101d1578063f3fdb15a146101785763f77e69ce1461015a575f80fd5b34610175578060031936011261017557602060405160028152f35b80fd5b503461017557806003193601126101755760ff601454166040519060038110156101a457602092508152f35b6024837f4e487b710000000000000000000000000000000000000000000000000000000081526021600452fd5b50346101755760206003193601126101755760606020917fffffffffffffffffffffffffffffffffffffffffffffffffffffffffffffffe0601f61021660043561238c565b959093604051968795151586526040838701528051928391826040890152018787015e85828601015201168101030190f35b5034610175576020600319360112610175576001600160a01b0361026a611be7565b168152600860205260408120604051918260208354918281520192825260208220915b8181106102b4576102b0856102a481870382611e1a565b60405191829182611c3f565b0390f35b825484526020909301926001928301920161028d565b5034610175576040600319360112610175576102e4611be7565b6001600160a01b03168152600860205260408120805460243592908310156101755760206103128484611bfd565b90549060031b1c604051908152f35b50346101755760206003193601126101755760043581526006602052604090208080805460018201546001600160a01b031660e05260028201546001600160a01b03166003830154600484015460058501546001600160a01b03166006860154600787015490600888015492600989015494600a8a015496600b8b015498600c8c01549a600d8d01549c600e01549d600f01549e60108101546080526011015460ff1660c05260405160a05260a0515260e05160a0516020015260a0516040015260a0516060015260a0516080015260a05160a0015260a05160c0015260a05160e0015260a051610100015260a051610120015260a051610140015260a051610160015260a051610180015260a0516101a0015260a0516101c0015260a0516101e0015260805160a051610200015260a0516102200160c0519061046491611c78565b60a05161024090f35b50346101755780600319360112610175576020600554604051908152f35b5034610175576040600319360112610175576104a5611be7565b6001600160a01b03168152600b60205260408120805460243592908310156101755760206103128484611bfd565b50346101755760206003193601126101755760043590818152600660205260408120916011830160ff815416600581101561074d5760016105149114611d6b565b61271061052083611eb2565b108015610740575b156106e25760047fffffffffffffffffffffffffffffffffffffffffffffffffffffffffffffff0082541617905561271061057861056f600d860154600e87015490611e5b565b60115490611e68565b049060048401549061059a61271061059260055485611e68565b0480936121ff565b906001600160a01b0360015416806105fc575b50856001600160a01b03600281600160609a01541692015416907fd4bfdcd3d7029abe0d70d4a6f1f560c5eac8d3cd6ecef801c6d3d67a49be60686040519780a4835260208301526040820152f35b6040517f14ff5ea3000000000000000000000000000000000000000000000000000000008152826004820152602081602481855afa9081156106d75787916106a1575b50813b1561069d5786916024839260405194859384927f42966c6800000000000000000000000000000000000000000000000000000000845260048401525af1156105ad5761068f868092611e1a565b610699575f6105ad565b8480fd5b8680fd5b90506020813d6020116106cf575b816106bc60209383611e1a565b810103126106cb57515f61063f565b5f80fd5b3d91506106af565b6040513d89823e3d90fd5b60646040517f08c379a000000000000000000000000000000000000000000000000000000000815260206004820152601560248201527f4c6f616e206e6f74206c6971756964617461626c6500000000000000000000006044820152fd5b50600b8401544211610528565b6024847f4e487b710000000000000000000000000000000000000000000000000000000081526021600452fd5b5034610175576020600319360112610175576020610799600435612244565b604051908152f35b50610120600319360112610175576107b7611be7565b906024356001600160a01b03811680910361116f576044359260643593608435916001600160a01b0383169283810361116b5760a435956001600160a01b0360c435936108098260025416331461219a565b16808252600960205260408220549095901561116357858252600960205260408220925b604051610100810181811067ffffffffffffffff821117611136576040528454808252600186015460208301908152600287015490604084019182526003880154926060850193845260e060ff600760048c01549b608089019c8d52600581015460a08a0152600681015460c08a0152015416950194151585528a106110d85751891161107a57518c1061101c57518b11610fbe578660011b871590888104600214821715610d78578710610f60578a9585938515159384610e03575b50506108fa61271091518a611e68565b048610610da5576109116101043560e435896126c3565b9661271087028781046127101488151715610d4b578961093091611e7b565b9189611f40810204611f40141715610d78576004549b5f198d14610d4b578c92918e8c928e600187016004556109668342611e5b565b946040519761097489611dd0565b8852602088015260408701528c606087015260808601528760a08601528660c08601528a60e08601526101008501526101208401524261014084015261016083015285610180830152886101a0830152856101c08301526101e0820152612710611f4089020461020082015260016102208201528a85526006602052610220601160408720835181556001600160a01b036020850151166001600160a01b036001830191167fffffffffffffffffffffffff00000000000000000000000000000000000000008254161790556001600160a01b036040850151166001600160a01b036002830191167fffffffffffffffffffffffff000000000000000000000000000000000000000082541617905560608401516003820155608084015160048201556001600160a01b0360a0850151166001600160a01b036005830191167fffffffffffffffffffffffff000000000000000000000000000000000000000082541617905560c0840151600682015560e0840151600782015561010084015160088201556101208401516009820155610140840151600a820155610160840151600b820155610180840151600c8201556101a0840151600d8201556101c0840151600e8201556101e0840151600f8201556102008401516010820155019101516005811015610d1e57908b93929160ff7fffffffffffffffffffffffffffffffffffffffffffffffffffffffffffffff0083541691161790558885526007602052610ba3836040872061220c565b8985526008602052610bb8836040872061220c565b610ca4575b5050506001600160a01b036001541680610c1d575b5050859493926020977f9a02a54d28aedabf1c3f226b73fdf6a9791805374efe9febef3ec6805248a02b936080936040519384528a84015260408301526060820152a4604051908152f35b602082916044604051809581937f40c10f190000000000000000000000000000000000000000000000000000000083528c60048401528d60248401525af19050610c68575b80610bd2565b90919493926020823d602011610c9c575b81610c8660209383611e1a565b810103126106cb57939492939291905085610c62565b3d9150610c79565b60207fe4923c153b9086d26c3a2dc5ac7865c800ad6a121fce34b179e24d4d9ff6f86891838652600a825260408620857fffffffffffffffffffffffff0000000000000000000000000000000000000000825416179055848652600b8252610d0f846040882061220c565b604051908152a35f8781610bbd565b6024867f4e487b710000000000000000000000000000000000000000000000000000000081526021600452fd5b6024877f4e487b710000000000000000000000000000000000000000000000000000000081526011600452fd5b6024867f4e487b710000000000000000000000000000000000000000000000000000000081526011600452fd5b60646040517f08c379a000000000000000000000000000000000000000000000000000000000815260206004820152601760248201527f496e73756666696369656e7420636f6c6c61746572616c0000000000000000006044820152fd5b919750919293505115610f02576040517fffffffffffffffffffffffffffffffffffffffff000000000000000000000000602082019260601b16825260148152610e4e603482611e1a565b51902060206001600160a01b03865416916024604051809481937f4d32d69100000000000000000000000000000000000000000000000000000000835260048301525afa908115610ef757908b9392918691610ebe575b506108fa610eb7826127109396611e5b565b97916108ea565b9350506020833d602011610eef575b81610eda60209383611e1a565b810103126106cb5791518a92906108fa610ea5565b3d9150610ecd565b6040513d87823e3d90fd5b60646040517f08c379a000000000000000000000000000000000000000000000000000000000815260206004820152601960248201527f495020636f6c6c61746572616c206e6f7420616c6c6f776564000000000000006044820152fd5b60646040517f08c379a000000000000000000000000000000000000000000000000000000000815260206004820152601060248201527f496e73756666696369656e7420435653000000000000000000000000000000006044820152fd5b60646040517f08c379a000000000000000000000000000000000000000000000000000000000815260206004820152601160248201527f4475726174696f6e20746f6f206c6f6e670000000000000000000000000000006044820152fd5b60646040517f08c379a000000000000000000000000000000000000000000000000000000000815260206004820152601260248201527f4475726174696f6e20746f6f2073686f727400000000000000000000000000006044820152fd5b60646040517f08c379a000000000000000000000000000000000000000000000000000000000815260206004820152601560248201527f4c6f616e20616d6f756e7420746f6f206c6172676500000000000000000000006044820152fd5b60646040517f08c379a000000000000000000000000000000000000000000000000000000000815260206004820152601560248201527f4c6f616e20616d6f756e7420746f6f20736d616c6c00000000000000000000006044820152fd5b6024857f4e487b710000000000000000000000000000000000000000000000000000000081526041600452fd5b600c9261082d565b8580fd5b5080fd5b503461017557806003193601126101755760206040516127108152f35b50346101755780600319360112610175576020604051611f408152f35b503461017557806003193601126101755760206001600160a01b0360035416604051908152f35b346106cb5760406003193601126106cb576004356024356112016001600160a01b0360025416331461219a565b5f91805f52600660205260405f2092601184019060ff825416600581101561140d57600161122f9114611d6b565b61124561123b84612244565b6003870154611e5b565b90600c860190815461125781856121ff565b87106113e3575050555f600d85015560027fffffffffffffffffffffffffffffffffffffffffffffffffffffffffffffff0082541617905560048301546001916001600160a01b03600154169485611303575b606095505b6001600160a01b0360028160018401541692015416907fa6f6d5e50bc84f153a0d6a9f9b37780433f92dc32d7e10f975ab3831c36898fa6020604051888152a4604051928352602083015215156040820152f35b604051957f14ff5ea3000000000000000000000000000000000000000000000000000000008752826004880152602087602481845afa9687156113d8575f976113a4575b50803b156106cb575f8091602460609960405194859384927f42966c6800000000000000000000000000000000000000000000000000000000845260048401525af1611394575b506112aa565b5f61139e91611e1a565b5f61138e565b9096506020813d6020116113d0575b816113c060209383611e1a565b810103126106cb57519587611347565b3d91506113b3565b6040513d5f823e3d90fd5b61140192919450926113f9876060999795611e5b565b8092556121ff565b600d8401555f926112af565b7f4e487b71000000000000000000000000000000000000000000000000000000005f52602160045260245ffd5b346106cb575f6003193601126106cb5760206001600160a01b0360025416604051908152f35b346106cb5760206003193601126106cb576001600160a01b03611481611be7565b165f52600b60205260405f206040519081602082549182815201915f5260205f20905f5b8181106114bc576102b0856102a481870382611e1a565b82548452602090930192600192830192016114a5565b346106cb5760206003193601126106cb576004355f52600a60205260206001600160a01b0360405f205416604051908152f35b346106cb5760206003193601126106cb5760043561152161210c565b50805f52600660205260405f206040519061153b82611dd0565b805482526001600160a01b0360018201541660208301526001600160a01b03600282015416604083015260038101546060830152600481015490608083019182526001600160a01b036005820154169360a08401948552600682015460c0850152600782015460e085015260088201546101008501526009820154610120850152600a820154610140850152600b820154610160850152600c820154610180850152600d820154916101a08501928352600e810154906101c0860191825260ff6011600f830154926101e0890193845260108101546102008a01520154166116286102208801918261218e565b51600581101561140d576001036117a85750509061164861164f92612244565b9051611e5b565b905192516001600160a01b0381166116cd575b5061271083029280840461271014901517156116a0576116858161028094611e7b565b6116926040518094611c85565b610240830152610260820152f35b7f4e487b71000000000000000000000000000000000000000000000000000000005f52601160045260245ffd5b6040939193517fffffffffffffffffffffffffffffffffffffffff000000000000000000000000602082019260601b1682526014815261170e603482611e1a565b5190209060206001600160a01b035f5416926024604051809581937f4d32d69100000000000000000000000000000000000000000000000000000000835260048301525afa9081156113d8575f91611772575b61176b9250611e5b565b9183611662565b90506020823d6020116117a0575b8161178d60209383611e1a565b810103126106cb5761176b915190611761565b3d9150611780565b519251905161028096509293506117c0929150611e5b565b90611685565b346106cb5760206003193601126106cb576117df61210c565b506004355f52600660205261024060405f206118da60ff60116040519361180585611dd0565b805485526001600160a01b0360018201541660208601526001600160a01b03600282015416604086015260038101546060860152600481015460808601526001600160a01b0360058201541660a0860152600681015460c0860152600781015460e086015260088101546101008601526009810154610120860152600a810154610140860152600b810154610160860152600c810154610180860152600d8101546101a0860152600e8101546101c0860152600f8101546101e08601526010810154610200860152015416610220830161218e565b6118e76040518092611c85565bf35b346106cb5760206003193601126106cb576001600160a01b0361190a611be7565b165f52600760205260405f206040519081602082549182815201915f5260205f20905f5b818110611945576102b0856102a481870382611e1a565b825484526020909301926001928301920161192e565b346106cb575f6003193601126106cb57600c54600d54600e54600f54601054601154601254601354604080519889526020890197909752958701949094526060860192909252608085015260a084015260c083015260ff16151560e082015261010090f35b346106cb575f6003193601126106cb576020600454604051908152f35b346106cb575f6003193601126106cb5760206001600160a01b0360015416604051908152f35b346106cb5760206003193601126106cb576001600160a01b03611a24611be7565b165f52600960205260405f2080546102b06001830154926002810154906003810154600482015460058301549160ff60076006860154950154169460405198899889969390989794919260e0969361010089019a8952602089015260408801526060870152608086015260a085015260c08401521515910152565b346106cb5760206003193601126106cb57611ab8611be7565b6001600160a01b03600354163303611b00576001600160a01b03167fffffffffffffffffffffffff000000000000000000000000000000000000000060025416176002555f80f35b60646040517f08c379a000000000000000000000000000000000000000000000000000000000815260206004820152600a60248201527f4f6e6c79206f776e6572000000000000000000000000000000000000000000006044820152fd5b346106cb5760406003193601126106cb57611b77611be7565b6001600160a01b0360243591165f52600760205260405f2080548210156106cb5760209161031291611bfd565b346106cb575f6003193601126106cb5760206001600160a01b035f5416604051908152f35b346106cb5760206003193601126106cb576020610799600435611eb2565b600435906001600160a01b03821682036106cb57565b8054821015611c12575f5260205f2001905f90565b7f4e487b71000000000000000000000000000000000000000000000000000000005f52603260045260245ffd5b60206040818301928281528451809452019201905f5b818110611c625750505090565b8251845260209384019390920191600101611c55565b90600582101561140d5752565b9061022080611d6993805184526001600160a01b0360208201511660208501526001600160a01b03604082015116604085015260608101516060850152608081015160808501526001600160a01b0360a08201511660a085015260c081015160c085015260e081015160e08501526101008101516101008501526101208101516101208501526101408101516101408501526101608101516101608501526101808101516101808501526101a08101516101a08501526101c08101516101c08501526101e08101516101e08501526102008101516102008501520151910190611c78565b565b15611d7257565b60646040517f08c379a000000000000000000000000000000000000000000000000000000000815260206004820152600f60248201527f4c6f616e206e6f742061637469766500000000000000000000000000000000006044820152fd5b610240810190811067ffffffffffffffff821117611ded57604052565b7f4e487b71000000000000000000000000000000000000000000000000000000005f52604160045260245ffd5b90601f7fffffffffffffffffffffffffffffffffffffffffffffffffffffffffffffffe0910116810190811067ffffffffffffffff821117611ded57604052565b919082018092116116a057565b818102929181159184041417156116a057565b8115611e85570490565b7f4e487b71000000000000000000000000000000000000000000000000000000005f52601260045260245ffd5b805f52600660205260405f209060ff601183015416600581101561140d576001611edc9114611d6b565b600482015460058301546001600160a01b038116612035575b50611eff82612244565b92611f0e84600d830154611e5b565b9161271081029080820461271014901517156116a057600192611f3091611e7b565b9384600f830155600e82015501546040517fffffffffffffffffffffffffffffffffffffffff000000000000000000000000602082019260601b16825260148152611f7c603482611e1a565b51902060206001600160a01b035f5416916024604051809481937f4d32d69100000000000000000000000000000000000000000000000000000000835260048301525afa9081156113d8575f91612002575b5060407f73217bb0eb7117a1634a599e0732ddb9ed3240382f09e690e661aebeeb937d91918151908582526020820152a290565b90506020813d60201161202d575b8161201d60209383611e1a565b810103126106cb57516040611fce565b3d9150612010565b6040517fffffffffffffffffffffffffffffffffffffffff000000000000000000000000602082019260601b16825260148152612073603482611e1a565b5190209060206001600160a01b035f5416926024604051809581937f4d32d69100000000000000000000000000000000000000000000000000000000835260048301525afa9081156113d8575f916120d6575b6120d09250611e5b565b5f611ef5565b90506020823d602011612104575b816120f160209383611e1a565b810103126106cb576120d09151906120c6565b3d91506120e4565b6040519061211982611dd0565b5f610220838281528260208201528260408201528260608201528260808201528260a08201528260c08201528260e08201528261010082015282610120820152826101408201528261016082015282610180820152826101a0820152826101c0820152826101e0820152826102008201520152565b600582101561140d5752565b156121a157565b60646040517f08c379a000000000000000000000000000000000000000000000000000000000815260206004820152600960248201527f4f6e6c792041444c5600000000000000000000000000000000000000000000006044820152fd5b919082039182116116a057565b805468010000000000000000811015611ded5761222e91600182018155611bfd565b5f19829392549160031b92831b921b1916179055565b5f52600660205260405f206040519061225c82611dd0565b805482526001600160a01b0360018201541660208301526001600160a01b03600282015416604083015260038101546060830152600481015460808301526001600160a01b0360058201541660a0830152600681015460c083015260078101549060e0830191825260088101546101008401526009810154610120840152600a810154906101408401918252600b810154610160850152600c810154610180850152600d810154936101a0810194855261234661022060ff6011600e860154956101c08601968752600f8101546101e087015260108101546102008701520154169201918261218e565b51600581101561140d575f190161238457509161237b6123809261237164496cebb8009551426121ff565b9251905190611e68565b611e68565b0490565b925050505190565b606090805f52600660205260405f20604051926123a884611dd0565b815484526001600160a01b0360018301541660208501526001600160a01b036002830154166040850152600382015490840152600481015491608084019283526001600160a01b036005830154169160a08501928352600681015460c0860152600781015460e086015260088101546101008601526009810154610120860152600a810154610140860152600b810154946101608101958652600c82015461018082015261249161022060ff6011600d860154956101a08601968752600e8101546101c0870152600f8101546101e087015260108101546102008701520154169201918261218e565b51600581101561140d575f1901612681576116486124ae92612244565b915190516001600160a01b0381166125aa575b5061271081029080820461271014901517156116a057612710916124e491611e7b565b1061256b5751421161252d575f90604051612500604082611e1a565b600c81527f4c6f616e206865616c7468790000000000000000000000000000000000000000602082015290565b60019060405161253e604082611e1a565b600c81527f4c6f616e20657870697265640000000000000000000000000000000000000000602082015290565b5060019060405161257d604082611e1a565b601381527f556e646572636f6c6c61746572616c697a656400000000000000000000000000602082015290565b6040517fffffffffffffffffffffffffffffffffffffffff000000000000000000000000602082019260601b168252601481526125e8603482611e1a565b5190209060206001600160a01b035f5416926024604051809581937f4d32d69100000000000000000000000000000000000000000000000000000000835260048301525afa9081156113d8575f9161264b575b6126459250611e5b565b5f6124c1565b90506020823d602011612679575b8161266660209383611e1a565b810103126106cb5761264591519061263b565b3d9150612659565b50505050505f90604051612696604082611e1a565b600f81527f4c6f616e206e6f74206163746976650000000000000000000000000000000000602082015290565b919060ff6014541692600384101561140d5783156127fb576012549360010361276a57508115612765576126f790826121ff565b9061271082029180830461271014901517156116a05761271691611e7b565b908060011b91818304600214821517156116a05761273a6127109161274194611e68565b0490611e5b565b6064811061275d575b61271081116127565790565b5061271090565b50606461274a565b505090565b919081156127f55761277c90826121ff565b61271081029080820461271014901517156116a05769d3c21bcecceda1000000916127a691611e7b565b9104906101f482116127eb575b6127106127c36127ca9285611e68565b0483611e5b565b818111156127e1576127dc92506121ff565b612741565b505060011c612741565b6101f491506127b3565b50505090565b505050506012549056fea264697066735822122046029f9281d15ba87e19f975fcf276e6af8b01cf687860ca2e9e8060c0e24bc764736f6c634300081e0033","linkReferences":{}},"methodIdentifiers":{"LIQUIDATION_THRESHOLD()":"90a8ae9b","MIN_CVS_RATIO()":"f77e69ce","MIN_HEALTH_FACTOR()":"b5627e42","adlvContract()":"884ec7f6","borrowerLoans(address,uint256)":"e3ed1902","calculateAccruedInterest(uint256)":"bb7d0bcf","defaultLoanTerms()":"4f7a1e3d","getBorrowerLoans(address)":"eee8b7ff","getLoan(uint256)":"504006ca","getLoanDetails(uint256)":"66877b8d","getLoansByIPCollateral(address)":"6d500ca4","getVaultLoans(address)":"4f7d2694","idoContract()":"116f71ac","interestRateModel()":"f3fdb15a","ipCollateralLoans(address,uint256)":"db10a6b5","isLoanLiquidatable(uint256)":"ef4f2abb","issueLoan(address,address,uint256,uint256,address,uint256,uint256,uint256,uint256)":"b5dcc1ef","liquidateLoan(uint256)":"ccdd9f5d","liquidationFeeBps()":"e031a824","loanCounter()":"34d9289e","loanNFT()":"34a41177","loanToIPCollateral(uint256)":"678d750c","loans(uint256)":"e1ec3c68","owner()":"8da5cb5b","repayLoan(uint256,uint256)":"8a700b53","setADLVContract(address)":"2a9bf128","updateLoanHealth(uint256)":"030a9945","vaultLoanTerms(address)":"2c35ceae","vaultLoans(address,uint256)":"1518405e"},"id":61}