{"abi":[{"type":"function","name":"attachLicenseTerms","inputs":[{"name":"ipId","type":"address","internalType":"address"},{"name":"commercial","type":"bool","internalType":"bool"},{"name":"royaltyPercentage","type":"uint256","internalType":"uint256"},{"name":"mintingFee","type":"uint256","internalType":"uint256"}],"outputs":[{"name":"licenseTermsId","type":"uint256","internalType":"uint256"}],"stateMutability":"nonpayable"},{"type":"function","name":"claimRevenue","inputs":[{"name":"ipId","type":"address","internalType":"address"},{"name":"claimer","type":"address","internalType":"address"}],"outputs":[{"name":"claimableAmount","type":"uint256","internalType":"uint256"}],"stateMutability":"nonpayable"},{"type":"function","name":"derivativeToParent","inputs":[{"name":"","type":"address","internalType":"address"}],"outputs":[{"name":"","type":"address","internalType":"address"}],"stateMutability":"view"},{"type":"function","name":"derivatives","inputs":[{"name":"","type":"address","internalType":"address"}],"outputs":[{"name":"derivativeIpId","type":"address","internalType":"address"},{"name":"parentIpId","type":"address","internalType":"address"},{"name":"licenseTokenId","type":"uint256","internalType":"uint256"},{"name":"registeredAt","type":"uint256","internalType":"uint256"},{"name":"exists","type":"bool","internalType":"bool"}],"stateMutability":"view"},{"type":"function","name":"exists","inputs":[{"name":"ipIdStr","type":"string","internalType":"string"}],"outputs":[{"name":"","type":"bool","internalType":"bool"}],"stateMutability":"view"},{"type":"function","name":"exists","inputs":[{"name":"ipId","type":"address","internalType":"address"}],"outputs":[{"name":"","type":"bool","internalType":"bool"}],"stateMutability":"view"},{"type":"function","name":"getDerivativeInfo","inputs":[{"name":"derivativeIpId","type":"address","internalType":"address"}],"outputs":[{"name":"parentIpId","type":"address","internalType":"address"},{"name":"licenseTokenId","type":"uint256","internalType":"uint256"},{"name":"registeredAt","type":"uint256","internalType":"uint256"}],"stateMutability":"view"},{"type":"function","name":"getDerivatives","inputs":[{"name":"parentIpId","type":"address","internalType":"address"}],"outputs":[{"name":"","type":"address[]","internalType":"address[]"}],"stateMutability":"view"},{"type":"function","name":"getIPAsset","inputs":[{"name":"ipId","type":"address","internalType":"address"}],"outputs":[{"name":"tokenId","type":"uint256","internalType":"uint256"},{"name":"owner","type":"address","internalType":"address"},{"name":"name","type":"string","internalType":"string"},{"name":"contentHash","type":"bytes32","internalType":"bytes32"},{"name":"registeredAt","type":"uint256","internalType":"uint256"}],"stateMutability":"view"},{"type":"function","name":"getIPLicenses","inputs":[{"name":"ipId","type":"address","internalType":"address"}],"outputs":[{"name":"","type":"uint256[]","internalType":"uint256[]"}],"stateMutability":"view"},{"type":"function","name":"getLicense","inputs":[{"name":"licenseId","type":"uint256","internalType":"uint256"}],"outputs":[{"name":"ipId","type":"address","internalType":"address"},{"name":"licenseTermsId","type":"uint256","internalType":"uint256"},{"name":"licensee","type":"address","internalType":"address"},{"name":"amount","type":"uint256","internalType":"uint256"},{"name":"mintedAt","type":"uint256","internalType":"uint256"}],"stateMutability":"view"},{"type":"function","name":"getLicenseTerms","inputs":[{"name":"licenseTermsId","type":"uint256","internalType":"uint256"}],"outputs":[{"name":"ipId","type":"address","internalType":"address"},{"name":"commercial","type":"bool","internalType":"bool"},{"name":"royaltyPercentage","type":"uint256","internalType":"uint256"},{"name":"mintingFee","type":"uint256","internalType":"uint256"}],"stateMutability":"view"},{"type":"function","name":"getParentIP","inputs":[{"name":"derivativeIpId","type":"address","internalType":"address"}],"outputs":[{"name":"","type":"address","internalType":"address"}],"stateMutability":"view"},{"type":"function","name":"getPendingRevenue","inputs":[{"name":"account","type":"address","internalType":"address"}],"outputs":[{"name":"","type":"uint256","internalType":"uint256"}],"stateMutability":"view"},{"type":"function","name":"getRoyaltyPolicy","inputs":[{"name":"ipId","type":"address","internalType":"address"}],"outputs":[{"name":"beneficiary","type":"address","internalType":"address"},{"name":"royaltyPercentage","type":"uint256","internalType":"uint256"},{"name":"totalRevenue","type":"uint256","internalType":"uint256"},{"name":"claimedRevenue","type":"uint256","internalType":"uint256"}],"stateMutability":"view"},{"type":"function","name":"ipAssets","inputs":[{"name":"","type":"address","internalType":"address"}],"outputs":[{"name":"ipId","type":"address","internalType":"address"},{"name":"tokenId","type":"uint256","internalType":"uint256"},{"name":"owner","type":"address","internalType":"address"},{"name":"name","type":"string","internalType":"string"},{"name":"contentHash","type":"bytes32","internalType":"bytes32"},{"name":"registeredAt","type":"uint256","internalType":"uint256"},{"name":"exists","type":"bool","internalType":"bool"}],"stateMutability":"view"},{"type":"function","name":"ipDefaultTerms","inputs":[{"name":"","type":"address","internalType":"address"}],"outputs":[{"name":"","type":"uint256","internalType":"uint256"}],"stateMutability":"view"},{"type":"function","name":"ipDerivatives","inputs":[{"name":"","type":"address","internalType":"address"},{"name":"","type":"uint256","internalType":"uint256"}],"outputs":[{"name":"","type":"address","internalType":"address"}],"stateMutability":"view"},{"type":"function","name":"ipIdCounter","inputs":[],"outputs":[{"name":"","type":"uint256","internalType":"uint256"}],"stateMutability":"view"},{"type":"function","name":"ipLicenses","inputs":[{"name":"","type":"address","internalType":"address"},{"name":"","type":"uint256","internalType":"uint256"}],"outputs":[{"name":"","type":"uint256","internalType":"uint256"}],"stateMutability":"view"},{"type":"function","name":"isDerivative","inputs":[{"name":"ipId","type":"address","internalType":"address"}],"outputs":[{"name":"","type":"bool","internalType":"bool"}],"stateMutability":"view"},{"type":"function","name":"isRegistered","inputs":[{"name":"ipId","type":"address","internalType":"address"}],"outputs":[{"name":"","type":"bool","internalType":"bool"}],"stateMutability":"view"},{"type":"function","name":"licenseIdCounter","inputs":[],"outputs":[{"name":"","type":"uint256","internalType":"uint256"}],"stateMutability":"view"},{"type":"function","name":"licenseTerms","inputs":[{"name":"","type":"uint256","internalType":"uint256"}],"outputs":[{"name":"termsId","type":"uint256","internalType":"uint256"},{"name":"ipId","type":"address","internalType":"address"},{"name":"commercial","type":"bool","internalType":"bool"},{"name":"royaltyPercentage","type":"uint256","internalType":"uint256"},{"name":"mintingFee","type":"uint256","internalType":"uint256"},{"name":"exists","type":"bool","internalType":"bool"}],"stateMutability":"view"},{"type":"function","name":"licenseTermsIdCounter","inputs":[],"outputs":[{"name":"","type":"uint256","internalType":"uint256"}],"stateMutability":"view"},{"type":"function","name":"licenses","inputs":[{"name":"","type":"uint256","internalType":"uint256"}],"outputs":[{"name":"licenseId","type":"uint256","internalType":"uint256"},{"name":"ipId","type":"address","internalType":"address"},{"name":"licenseTermsId","type":"uint256","internalType":"uint256"},{"name":"licensee","type":"address","internalType":"address"},{"name":"amount","type":"uint256","internalType":"uint256"},{"name":"mintedAt","type":"uint256","internalType":"uint256"},{"name":"exists","type":"bool","internalType":"bool"}],"stateMutability":"view"},{"type":"function","name":"mintAndRegisterIPAsset","inputs":[{"name":"","type":"address","internalType":"address"},{"name":"recipient","type":"address","internalType":"address"},{"name":"name","type":"string","internalType":"string"},{"name":"contentHash","type":"bytes32","internalType":"bytes32"},{"name":"","type":"string","internalType":"string"}],"outputs":[{"name":"tokenId","type":"uint256","internalType":"uint256"},{"name":"ipId","type":"address","internalType":"address"}],"stateMutability":"nonpayable"},{"type":"function","name":"mintLicense","inputs":[{"name":"licenseTermsId","type":"uint256","internalType":"uint256"},{"name":"ipId","type":"address","internalType":"address"},{"name":"licensee","type":"address","internalType":"address"},{"name":"amount","type":"uint256","internalType":"uint256"}],"outputs":[{"name":"licenseId","type":"uint256","internalType":"uint256"}],"stateMutability":"payable"},{"type":"function","name":"ownerOf","inputs":[{"name":"ipId","type":"address","internalType":"address"}],"outputs":[{"name":"","type":"address","internalType":"address"}],"stateMutability":"view"},{"type":"function","name":"ownerOf","inputs":[{"name":"ipIdStr","type":"string","internalType":"string"}],"outputs":[{"name":"","type":"address","internalType":"address"}],"stateMutability":"view"},{"type":"function","name":"payRoyaltyOnBehalf","inputs":[{"name":"ipId","type":"address","internalType":"address"},{"name":"payer","type":"address","internalType":"address"}],"outputs":[],"stateMutability":"payable"},{"type":"function","name":"payRoyaltyWithSharing","inputs":[{"name":"ipId","type":"address","internalType":"address"},{"name":"payer","type":"address","internalType":"address"}],"outputs":[],"stateMutability":"payable"},{"type":"function","name":"pendingRevenue","inputs":[{"name":"","type":"address","internalType":"address"}],"outputs":[{"name":"","type":"uint256","internalType":"uint256"}],"stateMutability":"view"},{"type":"function","name":"registerDerivative","inputs":[{"name":"parentIpId","type":"address","internalType":"address"},{"name":"licenseTokenId","type":"uint256","internalType":"uint256"},{"name":"owner","type":"address","internalType":"address"},{"name":"name","type":"string","internalType":"string"},{"name":"contentHash","type":"bytes32","internalType":"bytes32"}],"outputs":[{"name":"tokenId","type":"uint256","internalType":"uint256"},{"name":"derivativeIpId","type":"address","internalType":"address"}],"stateMutability":"nonpayable"},{"type":"function","name":"royaltyPolicies","inputs":[{"name":"","type":"address","internalType":"address"}],"outputs":[{"name":"ipId","type":"address","internalType":"address"},{"name":"royaltyPercentage","type":"uint256","internalType":"uint256"},{"name":"beneficiary","type":"address","internalType":"address"},{"name":"totalRevenue","type":"uint256","internalType":"uint256"},{"name":"claimedRevenue","type":"uint256","internalType":"uint256"},{"name":"exists","type":"bool","internalType":"bool"}],"stateMutability":"view"},{"type":"function","name":"setRoyaltyPolicy","inputs":[{"name":"ipId","type":"address","internalType":"address"},{"name":"beneficiary","type":"address","internalType":"address"},{"name":"royaltyPercentage","type":"uint256","internalType":"uint256"}],"outputs":[],"stateMutability":"nonpayable"},{"type":"function","name":"tokenIdToIpId","inputs":[{"name":"","type":"uint256","internalType":"uint256"}],"outputs":[{"name":"","type":"address","internalType":"address"}],"stateMutability":"view"},{"type":"event","name":"DerivativeIPRegistered","inputs":[{"name":"derivativeIpId","type":"address","indexed":true,"internalType":"address"},{"name":"parentIpId","type":"address","indexed":true,"internalType":"address"},{"name":"licenseTokenId","type":"uint256","indexed":true,"internalType":"uint256"},{"name":"owner","type":"address","indexed":false,"internalType":"address"}],"anonymous":false},{"type":"event","name":"IPAssetRegistered","inputs":[{"name":"ipId","type":"address","indexed":true,"internalType":"address"},{"name":"tokenId","type":"uint256","indexed":true,"internalType":"uint256"},{"name":"owner","type":"address","indexed":true,"internalType":"address"},{"name":"name","type":"string","indexed":false,"internalType":"string"},{"name":"contentHash","type":"bytes32","indexed":false,"internalType":"bytes32"}],"anonymous":false},{"type":"event","name":"LicenseMinted","inputs":[{"name":"ipId","type":"address","indexed":true,"internalType":"address"},{"name":"licenseId","type":"uint256","indexed":true,"internalType":"uint256"},{"name":"licenseTermsId","type":"uint256","indexed":true,"internalType":"uint256"},{"name":"licensee","type":"address","indexed":false,"internalType":"address"},{"name":"amount","type":"uint256","indexed":false,"internalType":"uint256"}],"anonymous":false},{"type":"event","name":"LicenseTermsAttached","inputs":[{"name":"ipId","type":"address","indexed":true,"internalType":"address"},{"name":"licenseTermsId","type":"uint256","indexed":true,"internalType":"uint256"},{"name":"royaltyPercentage","type":"uint256","indexed":false,"internalType":"uint256"}],"anonymous":false},{"type":"event","name":"RevenueClaimed","inputs":[{"name":"ipId","type":"address","indexed":true,"internalType":"address"},{"name":"claimer","type":"address","indexed":true,"internalType":"address"},{"name":"amount","type":"uint256","indexed":false,"internalType":"uint256"}],"anonymous":false},{"type":"event","name":"RoyaltyPaid","inputs":[{"name":"ipId","type":"address","indexed":true,"internalType":"address"},{"name":"payer","type":"address","indexed":true,"internalType":"address"},{"name":"amount","type":"uint256","indexed":false,"internalType":"uint256"}],"anonymous":false},{"type":"event","name":"RoyaltyPolicySet","inputs":[{"name":"ipId","type":"address","indexed":true,"internalType":"address"},{"name":"beneficiary","type":"address","indexed":true,"internalType":"address"},{"name":"royaltyPercentage","type":"uint256","indexed":false,"internalType":"uint256"}],"anonymous":false}],"bytecode":{"object":"0x60808060405234601557612a6a908161001a8239f35b5f80fdfe6080806040526004361015610012575f80fd5b5f905f3560e01c9081630bad9a1714612120575080630beb756414611f0957806310997e5514611e0357806314afd79e14611da45780631f583c8214611cde57806320b6b2fc14611ca6578063220cadbe14611ca6578063261a323e14611c6e5780632930af8b14611be85780632bea90c514611b8957806331d4d7b814611b495780633379084514611ac75780634415a6f0146119bb578063458c73e21461194a5780634a8f113f146118965780635c8285501461187a5780635dc276b6146118395780635f87df72146114d15780636614c5c514611499578063692da8571461141d5780637f5a2a6f146113c65780638201b4d714611370578063920ffa261461131c578063a01af08c146112e9578063a1ee43241461123f578063a95b0aa514610e67578063b2dd121214610da0578063c3c5a54714610822578063d03cc69f14610c12578063d1908a9c14610b67578063dd1c0a6014610a74578063e2c495e014610a56578063e595198714610845578063f490bc6114610827578063f6a3d24e14610822578063f6bb3f87146103bf5763f845211a146101b5575f80fd5b346103bc5760606003193601126103bc576101ce6121c6565b6101d66121dc565b906001600160a01b03604435911690818452600360205261020060ff60066040872001541661257f565b81845260036020526001600160a01b0360026040862001541633036103785761271081116103345760207fb82448fa463a09a533ad273a4dbca311185dd3fc7e3a3af5fb64e062f7cda4419161032a60405161025b81612335565b858152600586898684018681526001600160a01b0380604087019c169b8c815260608701928484528280604060808b019780895260a08c019960018b52815260098f5220995116167fffffffffffffffffffffffff000000000000000000000000000000000000000089541617885551600188015551166001600160a01b036002870191167fffffffffffffffffffffffff000000000000000000000000000000000000000082541617905551600385015551600484015551151591019060ff60ff1983541691151516179055565b604051908152a380f35b606460405162461bcd60e51b815260206004820152601260248201527f496e76616c69642070657263656e7461676500000000000000000000000000006044820152fd5b606460405162461bcd60e51b815260206004820152600c60248201527f4e6f74204950206f776e657200000000000000000000000000000000000000006044820152fd5b80fd5b50346103bc5760a06003193601126103bc576103d96121c6565b506103e26121dc565b60443567ffffffffffffffff811161081e576104029036906004016124f5565b9060843567ffffffffffffffff811161081a576104239036906004016124f5565b5061042e835461269a565b918284556001600160a01b0360405160208101904282527fffffffffffffffffffffffffffffffffffffffff0000000000000000000000008560601b16604082015285605482015261049d6020607483875180848a018484015e8101606435838201520301808452018261236d565b51902016936040516104ae81612351565b8581526020810190858252604081016001600160a01b03861681526001600160a01b03606083019186835260643560808501524260a0850152600160c0850152898652600360205260408620948280865116167fffffffffffffffffffffffff000000000000000000000000000000000000000087541617865551600186015551166001600160a01b036002850191167fffffffffffffffffffffffff00000000000000000000000000000000000000008254161790555180519067ffffffffffffffff82116107ed5791839189959361058d60038b9997015461229b565b601f811161078a575b50602090601f83116001146106ac5793600660c0604095858996610623967f5120637a17aa560ae785b6ff05c07a224caf09f222672d212d33577d1fe0c8a59c9a6106799c926106a1575b50505f198260011b9260031b1c19161760038501555b6080810151600485015560a081015160058501550151151591019060ff60ff1983541691151516179055565b8681526004602052206001600160a01b0385167fffffffffffffffffffffffff00000000000000000000000000000000000000008254161790556001600160a01b0360405192839260408452604084019061244e565b96606435602084015216950390a4604080519182526001600160a01b03929092166020820152f35b015190505f806105e1565b9060038501865280862091865b7fffffffffffffffffffffffffffffffffffffffffffffffffffffffffffffffe08516811061076c575060c0604095600186610623967f5120637a17aa560ae785b6ff05c07a224caf09f222672d212d33577d1fe0c8a59c9a96600696837fffffffffffffffffffffffffffffffffffffffffffffffffffffffffffffffe06106799f9c1610610754575b505050811b0160038501556105f7565b01515f1960f88460031b161c191690555f8080610744565b8282015184558c9a508d9950600190930192602092830192016106b9565b9193809698506003919395975001865260208620601f840160051c810191602085106107e3575b918b97959391601f8c9a9896940160051c01905b8181106107d25750610596565b8681558b99508c98506001016107c5565b90915081906107b1565b6024857f4e487b710000000000000000000000000000000000000000000000000000000081526041600452fd5b8380fd5b8280fd5b612513565b50346103bc57806003193601126103bc576020600254604051908152f35b5060806003193601126103bc576004359061085e6121dc565b916108676121f2565b6001600160a01b0360643594838552600560205261088e60ff6004604088200154166126a8565b169384845260036020526108ab60ff60066040872001541661257f565b6108b660015461269a565b93846001556109aa6040516108ca81612351565b868152600687602083018a8152604084018981526001600160a01b0380606087019a16998a815260808701928a84528260a089019542875260c08a0197600189528c52600760205260408c2099518a5551168360018a0191167fffffffffffffffffffffffff000000000000000000000000000000000000000082541617905551600288015551166001600160a01b036003870191167fffffffffffffffffffffffff000000000000000000000000000000000000000082541617905551600485015551600584015551151591019060ff60ff1983541691151516179055565b85815260086020526040812080549168010000000000000000831015610a295750859360209793610a048460409460017f0df2ccf0d8d1f7645800568016653ebc1c94e989f257f7611c32da3071a895da97018155612259565b81549060031b905f1989831b921b1916179055825191825288820152a4604051908152f35b807f4e487b7100000000000000000000000000000000000000000000000000000000602492526041600452fd5b50346103bc57806003193601126103bc576020600154604051908152f35b50346103bc5760206003193601126103bc576040906001600160a01b03610a996121c6565b168152600360205220604051610aae81612351565b6001600160a01b038254168152600182015491602082019283526001600160a01b036002820154169160408101928352610b586001600160a01b03610af5600385016123ae565b9560608401968752610b2f60c06004870154956080810196875260ff600660058a01549960a084019a8b520154161515918291015261257f565b51945116945191519251916040519586958652602086015260a0604086015260a085019061244e565b91606084015260808301520390f35b50346103bc5760206003193601126103bc5760406080916004358152600560205220604051610b9581612335565b815481526001820154916001600160a01b0360208301818516815260ff604085019560a01c1615158552610bf060a06002850154956060810196875260ff60046003880154978b8401988952015416151591829101526126a8565b5116925115159151905191604051938452602084015260408301526060820152f35b50346103bc5760806003193601126103bc57610c2c6121c6565b6024359081151580920361081e57602092917ff059c850b9126f17ae153fa469c780867d24818559acd4de3aa5e58e8595aed184610d88936001600160a01b0360443591169384875260038352610c8c60ff600660408a2001541661257f565b6040610c9960025461269a565b9788978893846002556004845191610cb083612335565b8683528883018b8152868401918252606084018981526080850191606435835260a0860193600185528a895260058d52898920965187556001600160a01b038060018901935116167fffffffffffffffffffffffff00000000000000000000000000000000000000008354161782555115157fffffffffffffffffffffff00ffffffffffffffffffffffffffffffffffffffff74ff000000000000000000000000000000000000000083549260a01b16911617905551600285015551600384015551151591019060ff60ff1983541691151516179055565b868152600685522055604051908152a3604051908152f35b50346103bc5760206003193601126103bc57604060a091600435815260076020522060405190610dcf82612351565b805482526001600160a01b036001820154169060208301918252600281015492604081019384526001600160a01b0380806003850154169460608401958652610e3f60c06004870154956080810196875260ff600660058a0154998d84019a8b520154161515918291015261264f565b5116945193511690519151926040519485526020850152604084015260608301526080820152f35b50346103bc5760a06003193601126103bc57610e816121c6565b90602435610e8d6121f2565b9160643567ffffffffffffffff811161119e57610eb66001600160a01b039136906004016124f5565b941690818152600360205260ff600660408320015416156111fb578281526007602052610eec60ff60066040842001541661264f565b8281526007602052816001600160a01b03600160408420015416036111b75760406001600160a01b03946020610f6283519788937ff6bb3f87000000000000000000000000000000000000000000000000000000008552866004860152169889602485015260a0604485015260a484019061244e565b608435606484015284838203916003198301608486015252018184305af19485156111aa5781948296611159575b5060405191610f9e836122ec565b61106b6001600160a01b038816938481526004602082018781526040830189815260608401904282526001600160a01b036080860193600185528a8952600b602052818060408b20985116167fffffffffffffffffffffffff000000000000000000000000000000000000000088541617875551166001600160a01b036001870191167fffffffffffffffffffffffff000000000000000000000000000000000000000082541617905551600285015551600384015551151591019060ff60ff1983541691151516179055565b838152600c602052604081208054906801000000000000000082101561112c576020926110c28360409360017f489ce915b01526bf507f4919b70fd457dafb36cebb9d847e32045faa2d3fa1d09896018155612259565b81549060031b906001600160a01b0389831b921b1916179055858152600d845220857fffffffffffffffffffffffff0000000000000000000000000000000000000000825416179055604051908152a4604080519182526001600160a01b03929092166020820152f35b6024837f4e487b710000000000000000000000000000000000000000000000000000000081526041600452fd5b945094506040843d6040116111a2575b816111766040938361236d565b810103126103bc5760208451940151936001600160a01b038516850361119e5793945f610f90565b5080fd5b3d9150611169565b50604051903d90823e3d90fd5b606460405162461bcd60e51b815260206004820152601960248201527f4c6963656e7365206e6f7420666f7220706172656e74204950000000000000006044820152fd5b606460405162461bcd60e51b815260206004820152601360248201527f506172656e74204950206e6f7420666f756e64000000000000000000000000006044820152fd5b50346103bc5760206003193601126103bc576040906001600160a01b036112646121c6565b1681526003602052206001600160a01b038154166001820154916001600160a01b03600282015416611298600383016123ae565b916112d360048201549360ff60066005850154940154169360405197889788526020880152604087015260e0606087015260e086019061244e565b92608085015260a0840152151560c08301520390f35b50346103bc5760206003193601126103bc576001600160a01b036040602092600435815260048452205416604051908152f35b50346103bc576001600160a01b03600260406020938361134461133e36612208565b906126f3565b168082526003865261135e60ff600685852001541661257f565b81526003855220015416604051908152f35b50346103bc5760206003193601126103bc576001600160a01b03600160406020938361139a6121c6565b16808252600b86526113b460ff6004858520015416612534565b8152600b855220015416604051908152f35b50346103bc5760406003193601126103bc576113e06121c6565b6001600160a01b03168152600860205260408120805460243592908310156103bc57602061140e8484612259565b90549060031b1c604051908152f35b50346103bc5760206003193601126103bc57604060a0916001600160a01b036114446121c6565b168152600b602052206001600160a01b03815416906001600160a01b0360018201541690600281015460ff60046003840154930154169260405194855260208501526040840152606083015215156080820152f35b50346103bc5760206003193601126103bc5760406020916001600160a01b036114c06121c6565b168152600683522054604051908152f35b506040600319360112611835576114e66121c6565b6001600160a01b036114f66121dc565b9116805f52600360205261151360ff600660405f2001541661257f565b3415916115208315612604565b815f52600b60205260ff600460405f200154165f146117c057818452600b6020526001600160a01b0360016040862001541692610bb890848652600960205260ff6005604088200154166117a9575b8134029134830414171561177c5761271090048034039334851161174f578161166f575b5034036115a1575b50505080f35b60206001600160a01b037fbdf0502df1b76d58521b2a929580ca100c2121e0ae38717b260d9cfa44c23b32928487526009835260ff6005604089200154165f1461165857848752600983528180600260408a200154165b168752600a83526040872061160e8782546125ca565b90558487526009835260ff600560408920015416611638575b6040519586521693a35f808061159b565b84875260098352600360408820016116518782546125ca565b9055611627565b848752600383528180600260408a200154166115f8565b8086526009602052604086206005015460ff16156117305780865260096020526001600160a01b03806002604089200154165b168652600a602052604086206116b98382546125ca565b9055808652600960205260ff60056040882001541661170f575b604051908282527fbdf0502df1b76d58521b2a929580ca100c2121e0ae38717b260d9cfa44c23b3260206001600160a01b03861693a35f611593565b8086526009602052600360408720016117298382546125ca565b90556116d3565b80865260036020526001600160a01b03806002604089200154166116a2565b6024867f4e487b710000000000000000000000000000000000000000000000000000000081526011600452fd5b6024857f4e487b710000000000000000000000000000000000000000000000000000000081526011600452fd5b84865260096020526040862060010154915061156f565b909150303b15611835576001600160a01b0390604051927f4415a6f000000000000000000000000000000000000000000000000000000000845260048401521660248201525f8160448134305af1801561182a5761181c575080f35b61182891505f9061236d565b005b6040513d5f823e3d90fd5b5f80fd5b34611835576020600319360112611835576001600160a01b0361185a6121c6565b165f52600d60205260206001600160a01b0360405f205416604051908152f35b34611835575f6003193601126118355760205f54604051908152f35b34611835576020600319360112611835576001600160a01b036118b76121c6565b165f52600860205260405f20604051806020835491828152019081935f5260205f20905f5b81811061193457505050816118f291038261236d565b604051918291602083019060208452518091526040830191905f5b81811061191b575050500390f35b825184528594506020938401939092019160010161190d565b82548452602090930192600192830192016118dc565b34611835576020600319360112611835576004355f52600560205260c060405f20805490600181015490600281015460ff806004600385015494015416936040519586526001600160a01b038116602087015260a01c161515604085015260608401526080830152151560a0820152f35b6040600319360112611835576119cf6121c6565b6001600160a01b036119df6121dc565b9116805f5260036020526119fc60ff600660405f2001541661257f565b611a07341515612604565b805f52600960205260405f2060ff6005820154165f14611a905760028160036001600160a01b039301611a3b3482546125ca565b90550154165f52600a60205260405f20611a563482546125ca565b90555b7fbdf0502df1b76d58521b2a929580ca100c2121e0ae38717b260d9cfa44c23b3260206001600160a01b03604051943486521693a3005b50805f5260036020526001600160a01b03600260405f200154165f52600a60205260405f20611ac03482546125ca565b9055611a59565b34611835576020600319360112611835576004355f52600760205260e060405f208054906001600160a01b036001820154169060028101546001600160a01b0360038301541660048301549160ff600660058601549501541694604051968752602087015260408601526060850152608084015260a0830152151560c0820152f35b34611835576020600319360112611835576001600160a01b03611b6a6121c6565b165f52600b602052602060ff600460405f200154166040519015158152f35b3461183557604060031936011261183557611ba26121c6565b6001600160a01b0360243591165f52600c60205260405f2090815481101561183557611bd86001600160a01b0391602093612259565b90549060031b1c16604051908152f35b34611835576020600319360112611835576001600160a01b03611c096121c6565b165f52600960205260c060405f206001600160a01b03815416906001810154906001600160a01b0360028201541660038201549060ff6005600485015494015416936040519586526020860152604085015260608401526080830152151560a0820152f35b34611835576001600160a01b03611c8761133e36612208565b165f526003602052602060ff600660405f200154166040519015158152f35b34611835576020600319360112611835576001600160a01b03611cc76121c6565b165f52600a602052602060405f2054604051908152f35b34611835576020600319360112611835576001600160a01b03611cff6121c6565b165f52600c60205260405f20604051806020835491828152019081935f5260205f20905f5b818110611d855750505081611d3a91038261236d565b604051918291602083019060208452518091526040830191905f5b818110611d63575050500390f35b82516001600160a01b0316845285945060209384019390920191600101611d55565b82546001600160a01b0316845260209093019260019283019201611d24565b34611835576020600319360112611835576001600160a01b03611dc56121c6565b16805f526003602052611de160ff600660405f2001541661257f565b5f52600360205260206001600160a01b03600260405f20015416604051908152f35b34611835576020600319360112611835576001600160a01b03611e246121c6565b165f52600960205260405f20604051611e3c81612335565b6001600160a01b038254168152600182015490602081019182526001600160a01b0360028401541692604082019384526003810154916060810192835260ff600560048401549360808401948552015416159060a08215910152611ec5576001600160a01b03608094511692519151905191604051938452602084015260408301526060820152f35b606460405162461bcd60e51b815260206004820152601060248201527f506f6c696379206e6f7420666f756e64000000000000000000000000000000006044820152fd5b3461183557604060031936011261183557611f226121c6565b6001600160a01b03611f326121dc565b911690815f526003602052611f5060ff600660405f2001541661257f565b815f52600960205260405f20600581019060ff8254165f146120a0576001600160a01b036002820154166001600160a01b03841680910361205c575f52600a60205260405f2054925b8315612018576001600160a01b03165f818152600a6020526040812055915460ff16612002575b505f808080858582f11561182a576020927f396b957ca7fdedb339c03b4968d2b37fcf13e62f0d395b81b2c1eca98e7403e884604051858152a3604051908152f35b6004016120108382546125ca565b905583611fc0565b606460405162461bcd60e51b815260206004820152601360248201527f4e6f20726576656e756520746f20636c61696d000000000000000000000000006044820152fd5b606460405162461bcd60e51b815260206004820152600f60248201527f4e6f742062656e656669636961727900000000000000000000000000000000006044820152fd5b835f5260036020526001600160a01b03600260405f200154166001600160a01b0384168091036120dc575f52600a60205260405f205492611f99565b606460405162461bcd60e51b815260206004820152600960248201527f4e6f74206f776e657200000000000000000000000000000000000000000000006044820152fd5b34611835576020600319360112611835576060906001600160a01b036121446121c6565b165f52600b60205260405f20612159826122ec565b6001600160a01b0381541682526001600160a01b0380600183015416602084019081526121ad60806002850154956040810196875260ff60046003880154978a840198895201541615159182910152612534565b5116915190519060405192835260208301526040820152f35b600435906001600160a01b038216820361183557565b602435906001600160a01b038216820361183557565b604435906001600160a01b038216820361183557565b9060206003198301126118355760043567ffffffffffffffff811161183557826023820112156118355780600401359267ffffffffffffffff84116118355760248483010111611835576024019190565b805482101561226e575f5260205f2001905f90565b7f4e487b71000000000000000000000000000000000000000000000000000000005f52603260045260245ffd5b90600182811c921680156122e2575b60208310146122b557565b7f4e487b71000000000000000000000000000000000000000000000000000000005f52602260045260245ffd5b91607f16916122aa565b60a0810190811067ffffffffffffffff82111761230857604052565b7f4e487b71000000000000000000000000000000000000000000000000000000005f52604160045260245ffd5b60c0810190811067ffffffffffffffff82111761230857604052565b60e0810190811067ffffffffffffffff82111761230857604052565b90601f7fffffffffffffffffffffffffffffffffffffffffffffffffffffffffffffffe0910116810190811067ffffffffffffffff82111761230857604052565b9060405191825f8254926123c18461229b565b808452936001811690811561242c57506001146123e8575b506123e69250038361236d565b565b90505f9291925260205f20905f915b8183106124105750509060206123e6928201015f6123d9565b60209193508060019154838589010152019101909184926123f7565b602093506123e695925060ff1991501682840152151560051b8201015f6123d9565b907fffffffffffffffffffffffffffffffffffffffffffffffffffffffffffffffe0601f602080948051918291828752018686015e5f8582860101520116010190565b92919267ffffffffffffffff821161230857604051916124d9601f82017fffffffffffffffffffffffffffffffffffffffffffffffffffffffffffffffe0166020018461236d565b829481845281830111611835578281602093845f960137010152565b9080601f830112156118355781602061251093359101612491565b90565b34611835576020600319360112611835576001600160a01b03611c876121c6565b1561253b57565b606460405162461bcd60e51b815260206004820152601060248201527f4e6f7420612064657269766174697665000000000000000000000000000000006044820152fd5b1561258657565b606460405162461bcd60e51b815260206004820152600c60248201527f4950206e6f7420666f756e6400000000000000000000000000000000000000006044820152fd5b919082018092116125d757565b7f4e487b71000000000000000000000000000000000000000000000000000000005f52601160045260245ffd5b1561260b57565b606460405162461bcd60e51b815260206004820152600e60248201527f496e76616c696420616d6f756e740000000000000000000000000000000000006044820152fd5b1561265657565b606460405162461bcd60e51b815260206004820152601160248201527f4c6963656e7365206e6f7420666f756e640000000000000000000000000000006044820152fd5b5f1981146125d75760010190565b156126af57565b606460405162461bcd60e51b815260206004820152600f60248201527f5465726d73206e6f7420666f756e6400000000000000000000000000000000006044820152fd5b6126fe913691612491565b602a8151036129f05780511561226e577f30000000000000000000000000000000000000000000000000000000000000007fff000000000000000000000000000000000000000000000000000000000000006020830151161480612997575b15612953575f6002915b602a831061277e57506001600160a01b0391501690565b90815183101561226e576020838301015160f81c603081101580612948575b1561281e577fffffffffffffffffffffffffffffffffffffffffffffffffffffffffffffffd00160ff81116125d7575b73fffffffffffffffffffffffffffffffffffffff06001600160a01b0383169260041b1691808304601014901517156125d75760ff16016001600160a01b0381116125d75760019092019190612767565b60418110158061293d575b15612886577fffffffffffffffffffffffffffffffffffffffffffffffffffffffffffffffc90160ff8111156127cd577f4e487b71000000000000000000000000000000000000000000000000000000005f52601160045260245ffd5b606181101580612932575b156128ee577fffffffffffffffffffffffffffffffffffffffffffffffffffffffffffffffa90160ff8111156127cd577f4e487b71000000000000000000000000000000000000000000000000000000005f52601160045260245ffd5b606460405162461bcd60e51b815260206004820152601560248201527f496e76616c6964206865782063686172616374657200000000000000000000006044820152fd5b506066811115612891565b506046811115612829565b50603981111561279d565b606460405162461bcd60e51b815260206004820152601660248201527f496e76616c6964206164647265737320666f726d6174000000000000000000006044820152fd5b5080516001101561226e577f78000000000000000000000000000000000000000000000000000000000000007fff000000000000000000000000000000000000000000000000000000000000006021830151161461275d565b606460405162461bcd60e51b815260206004820152601660248201527f496e76616c69642061646472657373206c656e677468000000000000000000006044820152fdfea26469706673582212206b8c99ab115892f0f360f4c4d67c9e09cea595c8d35b7530755d2da6a355a1ba64736f6c634300081e0033","linkReferences":{}},"methodIdentifiers":{"attachLicenseTerms(address,bool,uint256,uint256)":"d03cc69f","claimRevenue(address,address)":"0beb7564","derivativeToParent(address)":"5dc276b6","derivatives(address)":"692da857","exists(address)":"f6a3d24e","exists(string)":"261a323e","getDerivativeInfo(address)":"0bad9a17","getDerivatives(address)":"1f583c82","getIPAsset(address)":"dd1c0a60","getIPLicenses(address)":"4a8f113f","getLicense(uint256)":"b2dd1212","getLicenseTerms(uint256)":"d1908a9c","getParentIP(address)":"8201b4d7","getPendingRevenue(address)":"220cadbe","getRoyaltyPolicy(address)":"10997e55","ipAssets(address)":"a1ee4324","ipDefaultTerms(address)":"6614c5c5","ipDerivatives(address,uint256)":"2bea90c5","ipIdCounter()":"5c828550","ipLicenses(address,uint256)":"7f5a2a6f","isDerivative(address)":"31d4d7b8","isRegistered(address)":"c3c5a547","licenseIdCounter()":"e2c495e0","licenseTerms(uint256)":"458c73e2","licenseTermsIdCounter()":"f490bc61","licenses(uint256)":"33790845","mintAndRegisterIPAsset(address,address,string,bytes32,string)":"f6bb3f87","mintLicense(uint256,address,address,uint256)":"e5951987","ownerOf(address)":"14afd79e","ownerOf(string)":"920ffa26","payRoyaltyOnBehalf(address,address)":"4415a6f0","payRoyaltyWithSharing(address,address)":"5f87df72","pendingRevenue(address)":"20b6b2fc","registerDerivative(address,uint256,address,string,bytes32)":"a95b0aa5","royaltyPolicies(address)":"2930af8b","setRoyaltyPolicy(address,address,uint256)":"f845211a","tokenIdToIpId(uint256)":"a01af08c"},"id":65}